{
  "_format": "hh-sol-artifact-1",
  "contractName": "AgentPay",
  "sourceName": "contracts/AgentPay.sol",
  "abi": [
    {
      "inputs": [],
      "stateMutability": "nonpayable",
      "type": "constructor"
    },
    {
      "inputs": [
        {
          "internalType": "address",
          "name": "owner",
          "type": "address"
        }
      ],
      "name": "OwnableInvalidOwner",
      "type": "error"
    },
    {
      "inputs": [
        {
          "internalType": "address",
          "name": "account",
          "type": "address"
        }
      ],
      "name": "OwnableUnauthorizedAccount",
      "type": "error"
    },
    {
      "inputs": [],
      "name": "ReentrancyGuardReentrantCall",
      "type": "error"
    },
    {
      "anonymous": false,
      "inputs": [
        {
          "indexed": true,
          "internalType": "address",
          "name": "user",
          "type": "address"
        },
        {
          "indexed": false,
          "internalType": "bool",
          "name": "isActive",
          "type": "bool"
        },
        {
          "indexed": false,
          "internalType": "uint256",
          "name": "limitPerTx",
          "type": "uint256"
        }
      ],
      "name": "AgentConfigured",
      "type": "event"
    },
    {
      "anonymous": false,
      "inputs": [
        {
          "indexed": true,
          "internalType": "uint256",
          "name": "id",
          "type": "uint256"
        },
        {
          "indexed": true,
          "internalType": "address",
          "name": "creator",
          "type": "address"
        },
        {
          "indexed": true,
          "internalType": "address",
          "name": "recipient",
          "type": "address"
        },
        {
          "indexed": false,
          "internalType": "uint256",
          "name": "amount",
          "type": "uint256"
        },
        {
          "indexed": false,
          "internalType": "uint256",
          "name": "dueDate",
          "type": "uint256"
        }
      ],
      "name": "InvoiceCreated",
      "type": "event"
    },
    {
      "anonymous": false,
      "inputs": [
        {
          "indexed": true,
          "internalType": "uint256",
          "name": "id",
          "type": "uint256"
        },
        {
          "indexed": true,
          "internalType": "address",
          "name": "payer",
          "type": "address"
        },
        {
          "indexed": false,
          "internalType": "uint256",
          "name": "amount",
          "type": "uint256"
        }
      ],
      "name": "InvoicePaid",
      "type": "event"
    },
    {
      "anonymous": false,
      "inputs": [
        {
          "indexed": true,
          "internalType": "address",
          "name": "previousOwner",
          "type": "address"
        },
        {
          "indexed": true,
          "internalType": "address",
          "name": "newOwner",
          "type": "address"
        }
      ],
      "name": "OwnershipTransferred",
      "type": "event"
    },
    {
      "anonymous": false,
      "inputs": [
        {
          "indexed": true,
          "internalType": "uint256",
          "name": "id",
          "type": "uint256"
        }
      ],
      "name": "ScheduledPaymentCancelled",
      "type": "event"
    },
    {
      "anonymous": false,
      "inputs": [
        {
          "indexed": true,
          "internalType": "uint256",
          "name": "id",
          "type": "uint256"
        },
        {
          "indexed": true,
          "internalType": "address",
          "name": "from",
          "type": "address"
        },
        {
          "indexed": true,
          "internalType": "address",
          "name": "to",
          "type": "address"
        },
        {
          "indexed": false,
          "internalType": "uint256",
          "name": "amount",
          "type": "uint256"
        },
        {
          "indexed": false,
          "internalType": "uint256",
          "name": "interval",
          "type": "uint256"
        }
      ],
      "name": "ScheduledPaymentCreated",
      "type": "event"
    },
    {
      "anonymous": false,
      "inputs": [
        {
          "indexed": true,
          "internalType": "uint256",
          "name": "id",
          "type": "uint256"
        },
        {
          "indexed": true,
          "internalType": "address",
          "name": "from",
          "type": "address"
        },
        {
          "indexed": true,
          "internalType": "address",
          "name": "to",
          "type": "address"
        },
        {
          "indexed": false,
          "internalType": "uint256",
          "name": "amount",
          "type": "uint256"
        }
      ],
      "name": "ScheduledPaymentExecuted",
      "type": "event"
    },
    {
      "inputs": [
        {
          "internalType": "address",
          "name": "",
          "type": "address"
        }
      ],
      "name": "agentConfigs",
      "outputs": [
        {
          "internalType": "bool",
          "name": "isActive",
          "type": "bool"
        },
        {
          "internalType": "uint256",
          "name": "limitPerTx",
          "type": "uint256"
        },
        {
          "internalType": "address",
          "name": "allowedRecipient",
          "type": "address"
        },
        {
          "internalType": "uint256",
          "name": "interval",
          "type": "uint256"
        },
        {
          "internalType": "uint256",
          "name": "lastExecuted",
          "type": "uint256"
        }
      ],
      "stateMutability": "view",
      "type": "function"
    },
    {
      "inputs": [
        {
          "internalType": "uint256",
          "name": "_id",
          "type": "uint256"
        }
      ],
      "name": "cancelScheduledPayment",
      "outputs": [],
      "stateMutability": "nonpayable",
      "type": "function"
    },
    {
      "inputs": [
        {
          "internalType": "bool",
          "name": "_isActive",
          "type": "bool"
        },
        {
          "internalType": "uint256",
          "name": "_limitPerTx",
          "type": "uint256"
        },
        {
          "internalType": "address",
          "name": "_allowedRecipient",
          "type": "address"
        },
        {
          "internalType": "uint256",
          "name": "_interval",
          "type": "uint256"
        }
      ],
      "name": "configureAgent",
      "outputs": [],
      "stateMutability": "nonpayable",
      "type": "function"
    },
    {
      "inputs": [
        {
          "internalType": "address",
          "name": "_recipient",
          "type": "address"
        },
        {
          "internalType": "uint256",
          "name": "_amount",
          "type": "uint256"
        },
        {
          "internalType": "address",
          "name": "_token",
          "type": "address"
        },
        {
          "internalType": "string",
          "name": "_metadataHash",
          "type": "string"
        },
        {
          "internalType": "uint256",
          "name": "_dueDate",
          "type": "uint256"
        }
      ],
      "name": "createInvoice",
      "outputs": [
        {
          "internalType": "uint256",
          "name": "",
          "type": "uint256"
        }
      ],
      "stateMutability": "nonpayable",
      "type": "function"
    },
    {
      "inputs": [
        {
          "internalType": "address",
          "name": "_to",
          "type": "address"
        },
        {
          "internalType": "uint256",
          "name": "_amount",
          "type": "uint256"
        },
        {
          "internalType": "address",
          "name": "_token",
          "type": "address"
        },
        {
          "internalType": "uint256",
          "name": "_interval",
          "type": "uint256"
        },
        {
          "internalType": "string",
          "name": "_description",
          "type": "string"
        }
      ],
      "name": "createScheduledPayment",
      "outputs": [
        {
          "internalType": "uint256",
          "name": "",
          "type": "uint256"
        }
      ],
      "stateMutability": "payable",
      "type": "function"
    },
    {
      "inputs": [
        {
          "internalType": "uint256",
          "name": "_id",
          "type": "uint256"
        }
      ],
      "name": "executeScheduledPayment",
      "outputs": [],
      "stateMutability": "nonpayable",
      "type": "function"
    },
    {
      "inputs": [
        {
          "internalType": "address",
          "name": "_user",
          "type": "address"
        }
      ],
      "name": "getAgentConfig",
      "outputs": [
        {
          "components": [
            {
              "internalType": "bool",
              "name": "isActive",
              "type": "bool"
            },
            {
              "internalType": "uint256",
              "name": "limitPerTx",
              "type": "uint256"
            },
            {
              "internalType": "address",
              "name": "allowedRecipient",
              "type": "address"
            },
            {
              "internalType": "uint256",
              "name": "interval",
              "type": "uint256"
            },
            {
              "internalType": "uint256",
              "name": "lastExecuted",
              "type": "uint256"
            }
          ],
          "internalType": "struct AgentPay.AgentConfig",
          "name": "",
          "type": "tuple"
        }
      ],
      "stateMutability": "view",
      "type": "function"
    },
    {
      "inputs": [
        {
          "internalType": "uint256",
          "name": "_id",
          "type": "uint256"
        }
      ],
      "name": "getInvoice",
      "outputs": [
        {
          "components": [
            {
              "internalType": "uint256",
              "name": "id",
              "type": "uint256"
            },
            {
              "internalType": "address",
              "name": "creator",
              "type": "address"
            },
            {
              "internalType": "address",
              "name": "recipient",
              "type": "address"
            },
            {
              "internalType": "uint256",
              "name": "amount",
              "type": "uint256"
            },
            {
              "internalType": "address",
              "name": "token",
              "type": "address"
            },
            {
              "internalType": "string",
              "name": "metadataHash",
              "type": "string"
            },
            {
              "internalType": "bool",
              "name": "paid",
              "type": "bool"
            },
            {
              "internalType": "uint256",
              "name": "dueDate",
              "type": "uint256"
            },
            {
              "internalType": "uint256",
              "name": "createdAt",
              "type": "uint256"
            }
          ],
          "internalType": "struct AgentPay.Invoice",
          "name": "",
          "type": "tuple"
        }
      ],
      "stateMutability": "view",
      "type": "function"
    },
    {
      "inputs": [],
      "name": "getInvoiceCount",
      "outputs": [
        {
          "internalType": "uint256",
          "name": "",
          "type": "uint256"
        }
      ],
      "stateMutability": "view",
      "type": "function"
    },
    {
      "inputs": [
        {
          "internalType": "uint256",
          "name": "_id",
          "type": "uint256"
        }
      ],
      "name": "getScheduledPayment",
      "outputs": [
        {
          "components": [
            {
              "internalType": "uint256",
              "name": "id",
              "type": "uint256"
            },
            {
              "internalType": "address",
              "name": "from",
              "type": "address"
            },
            {
              "internalType": "address",
              "name": "to",
              "type": "address"
            },
            {
              "internalType": "uint256",
              "name": "amount",
              "type": "uint256"
            },
            {
              "internalType": "address",
              "name": "token",
              "type": "address"
            },
            {
              "internalType": "uint256",
              "name": "nextExecution",
              "type": "uint256"
            },
            {
              "internalType": "uint256",
              "name": "interval",
              "type": "uint256"
            },
            {
              "internalType": "bool",
              "name": "isActive",
              "type": "bool"
            },
            {
              "internalType": "string",
              "name": "description",
              "type": "string"
            }
          ],
          "internalType": "struct AgentPay.ScheduledPayment",
          "name": "",
          "type": "tuple"
        }
      ],
      "stateMutability": "view",
      "type": "function"
    },
    {
      "inputs": [
        {
          "internalType": "address",
          "name": "_user",
          "type": "address"
        }
      ],
      "name": "getUserCreatedInvoices",
      "outputs": [
        {
          "internalType": "uint256[]",
          "name": "",
          "type": "uint256[]"
        }
      ],
      "stateMutability": "view",
      "type": "function"
    },
    {
      "inputs": [
        {
          "internalType": "address",
          "name": "_user",
          "type": "address"
        }
      ],
      "name": "getUserReceivedInvoices",
      "outputs": [
        {
          "internalType": "uint256[]",
          "name": "",
          "type": "uint256[]"
        }
      ],
      "stateMutability": "view",
      "type": "function"
    },
    {
      "inputs": [
        {
          "internalType": "address",
          "name": "_user",
          "type": "address"
        }
      ],
      "name": "getUserScheduledPayments",
      "outputs": [
        {
          "internalType": "uint256[]",
          "name": "",
          "type": "uint256[]"
        }
      ],
      "stateMutability": "view",
      "type": "function"
    },
    {
      "inputs": [
        {
          "internalType": "address",
          "name": "_user",
          "type": "address"
        }
      ],
      "name": "getUserStats",
      "outputs": [
        {
          "internalType": "uint256",
          "name": "createdCount",
          "type": "uint256"
        },
        {
          "internalType": "uint256",
          "name": "receivedCount",
          "type": "uint256"
        },
        {
          "internalType": "uint256",
          "name": "totalPaid",
          "type": "uint256"
        },
        {
          "internalType": "uint256",
          "name": "totalReceived",
          "type": "uint256"
        },
        {
          "internalType": "uint256",
          "name": "scheduledCount",
          "type": "uint256"
        }
      ],
      "stateMutability": "view",
      "type": "function"
    },
    {
      "inputs": [
        {
          "internalType": "uint256",
          "name": "",
          "type": "uint256"
        }
      ],
      "name": "invoices",
      "outputs": [
        {
          "internalType": "uint256",
          "name": "id",
          "type": "uint256"
        },
        {
          "internalType": "address",
          "name": "creator",
          "type": "address"
        },
        {
          "internalType": "address",
          "name": "recipient",
          "type": "address"
        },
        {
          "internalType": "uint256",
          "name": "amount",
          "type": "uint256"
        },
        {
          "internalType": "address",
          "name": "token",
          "type": "address"
        },
        {
          "internalType": "string",
          "name": "metadataHash",
          "type": "string"
        },
        {
          "internalType": "bool",
          "name": "paid",
          "type": "bool"
        },
        {
          "internalType": "uint256",
          "name": "dueDate",
          "type": "uint256"
        },
        {
          "internalType": "uint256",
          "name": "createdAt",
          "type": "uint256"
        }
      ],
      "stateMutability": "view",
      "type": "function"
    },
    {
      "inputs": [],
      "name": "nextInvoiceId",
      "outputs": [
        {
          "internalType": "uint256",
          "name": "",
          "type": "uint256"
        }
      ],
      "stateMutability": "view",
      "type": "function"
    },
    {
      "inputs": [],
      "name": "nextScheduledPaymentId",
      "outputs": [
        {
          "internalType": "uint256",
          "name": "",
          "type": "uint256"
        }
      ],
      "stateMutability": "view",
      "type": "function"
    },
    {
      "inputs": [],
      "name": "owner",
      "outputs": [
        {
          "internalType": "address",
          "name": "",
          "type": "address"
        }
      ],
      "stateMutability": "view",
      "type": "function"
    },
    {
      "inputs": [
        {
          "internalType": "uint256",
          "name": "_id",
          "type": "uint256"
        }
      ],
      "name": "payInvoice",
      "outputs": [],
      "stateMutability": "payable",
      "type": "function"
    },
    {
      "inputs": [],
      "name": "renounceOwnership",
      "outputs": [],
      "stateMutability": "nonpayable",
      "type": "function"
    },
    {
      "inputs": [
        {
          "internalType": "uint256",
          "name": "",
          "type": "uint256"
        }
      ],
      "name": "scheduledPayments",
      "outputs": [
        {
          "internalType": "uint256",
          "name": "id",
          "type": "uint256"
        },
        {
          "internalType": "address",
          "name": "from",
          "type": "address"
        },
        {
          "internalType": "address",
          "name": "to",
          "type": "address"
        },
        {
          "internalType": "uint256",
          "name": "amount",
          "type": "uint256"
        },
        {
          "internalType": "address",
          "name": "token",
          "type": "address"
        },
        {
          "internalType": "uint256",
          "name": "nextExecution",
          "type": "uint256"
        },
        {
          "internalType": "uint256",
          "name": "interval",
          "type": "uint256"
        },
        {
          "internalType": "bool",
          "name": "isActive",
          "type": "bool"
        },
        {
          "internalType": "string",
          "name": "description",
          "type": "string"
        }
      ],
      "stateMutability": "view",
      "type": "function"
    },
    {
      "inputs": [
        {
          "internalType": "address",
          "name": "",
          "type": "address"
        }
      ],
      "name": "totalPaidByUser",
      "outputs": [
        {
          "internalType": "uint256",
          "name": "",
          "type": "uint256"
        }
      ],
      "stateMutability": "view",
      "type": "function"
    },
    {
      "inputs": [
        {
          "internalType": "address",
          "name": "",
          "type": "address"
        }
      ],
      "name": "totalReceivedByUser",
      "outputs": [
        {
          "internalType": "uint256",
          "name": "",
          "type": "uint256"
        }
      ],
      "stateMutability": "view",
      "type": "function"
    },
    {
      "inputs": [
        {
          "internalType": "address",
          "name": "newOwner",
          "type": "address"
        }
      ],
      "name": "transferOwnership",
      "outputs": [],
      "stateMutability": "nonpayable",
      "type": "function"
    },
    {
      "stateMutability": "payable",
      "type": "receive"
    }
  ],
  "bytecode": "0x608060405234801561001057600080fd5b5033600073ffffffffffffffffffffffffffffffffffffffff168173ffffffffffffffffffffffffffffffffffffffff16036100845760006040517f1e4fbdf700000000000000000000000000000000000000000000000000000000815260040161007b91906101a5565b60405180910390fd5b610093816100a060201b60201c565b50600180819055506101c0565b60008060009054906101000a900473ffffffffffffffffffffffffffffffffffffffff169050816000806101000a81548173ffffffffffffffffffffffffffffffffffffffff021916908373ffffffffffffffffffffffffffffffffffffffff1602179055508173ffffffffffffffffffffffffffffffffffffffff168173ffffffffffffffffffffffffffffffffffffffff167f8be0079c531659141344cd1fd0a4f28419497f9722a3daafe3b4186f6b6457e060405160405180910390a35050565b600073ffffffffffffffffffffffffffffffffffffffff82169050919050565b600061018f82610164565b9050919050565b61019f81610184565b82525050565b60006020820190506101ba6000830184610196565b92915050565b613c06806101cf6000396000f3fe60806040526004361061014f5760003560e01c80637d6a59ed116100b6578063b3d153161161006f578063b3d153161461051b578063bc656bfe14610558578063ed0cbbfb14610583578063f2fde38b146105c4578063f5a772ef146105ed578063fb8cf5d61461061657610156565b80637d6a59ed146104065780638da5cb5b146104315780639633e41c1461045c57806396e5ca8514610499578063a27bc4d2146104d6578063ac60a6cd146104ff57610156565b80634e43603a116101085780634e43603a146102c45780634e6d14051461030557806356bad8631461034a5780636ff2a95314610387578063715018a6146103b257806378ee5893146103c957610156565b8063037c66c91461015b5780632e337f5b1461018b57806334e8c1a4146101c8578063372f70a7146102055780633a23cc0a146102425780633c2585201461027f57610156565b3661015657005b600080fd5b610175600480360381019061017091906129b6565b61063f565b6040516101829190612a5c565b60405180910390f35b34801561019757600080fd5b506101b260048036038101906101ad9190612a77565b610a3a565b6040516101bf9190612b62565b60405180910390f35b3480156101d457600080fd5b506101ef60048036038101906101ea9190612a77565b610ad1565b6040516101fc9190612a5c565b60405180910390f35b34801561021157600080fd5b5061022c60048036038101906102279190612b84565b610ae9565b6040516102399190612a5c565b60405180910390f35b34801561024e57600080fd5b5061026960048036038101906102649190612c1b565b610ec7565b6040516102769190612db6565b60405180910390f35b34801561028b57600080fd5b506102a660048036038101906102a19190612c1b565b6110cc565b6040516102bb99989796959493929190612e40565b60405180910390f35b3480156102d057600080fd5b506102eb60048036038101906102e69190612a77565b61120f565b6040516102fc959493929190612ed4565b60405180910390f35b34801561031157600080fd5b5061032c60048036038101906103279190612c1b565b611373565b60405161034199989796959493929190612f27565b60405180910390f35b34801561035657600080fd5b50610371600480360381019061036c9190612a77565b6114b6565b60405161037e9190613023565b60405180910390f35b34801561039357600080fd5b5061039c61159e565b6040516103a99190612a5c565b60405180910390f35b3480156103be57600080fd5b506103c76115a4565b005b3480156103d557600080fd5b506103f060048036038101906103eb9190612c1b565b6115b8565b6040516103fd9190613103565b60405180910390f35b34801561041257600080fd5b5061041b6117bd565b6040516104289190612a5c565b60405180910390f35b34801561043d57600080fd5b506104466117c7565b6040516104539190613125565b60405180910390f35b34801561046857600080fd5b50610483600480360381019061047e9190612a77565b6117f0565b6040516104909190612a5c565b60405180910390f35b3480156104a557600080fd5b506104c060048036038101906104bb9190612a77565b611808565b6040516104cd9190612b62565b60405180910390f35b3480156104e257600080fd5b506104fd60048036038101906104f89190612c1b565b61189f565b005b61051960048036038101906105149190612c1b565b611996565b005b34801561052757600080fd5b50610542600480360381019061053d9190612a77565b611de4565b60405161054f9190612b62565b60405180910390f35b34801561056457600080fd5b5061056d611e7b565b60405161057a9190612a5c565b60405180910390f35b34801561058f57600080fd5b506105aa60048036038101906105a59190612a77565b611e81565b6040516105bb959493929190613140565b60405180910390f35b3480156105d057600080fd5b506105eb60048036038101906105e69190612a77565b611ee4565b005b3480156105f957600080fd5b50610614600480360381019061060f91906131bf565b611f6a565b005b34801561062257600080fd5b5061063d60048036038101906106389190612c1b565b6120c7565b005b60008073ffffffffffffffffffffffffffffffffffffffff168673ffffffffffffffffffffffffffffffffffffffff16036106af576040517f08c379a00000000000000000000000000000000000000000000000000000000081526004016106a690613272565b60405180910390fd5b600085116106f2576040517f08c379a00000000000000000000000000000000000000000000000000000000081526004016106e9906132de565b60405180910390fd5b600073ffffffffffffffffffffffffffffffffffffffff168473ffffffffffffffffffffffffffffffffffffffff160361076a5784341015610769576040517f08c379a00000000000000000000000000000000000000000000000000000000081526004016107609061334a565b60405180910390fd5b5b60006003600081548092919061077f90613399565b9190505590506040518061012001604052808281526020013373ffffffffffffffffffffffffffffffffffffffff1681526020018873ffffffffffffffffffffffffffffffffffffffff1681526020018781526020018673ffffffffffffffffffffffffffffffffffffffff16815260200185426107fd91906133e1565b815260200185815260200160011515815260200184815250600660008381526020019081526020016000206000820151816000015560208201518160010160006101000a81548173ffffffffffffffffffffffffffffffffffffffff021916908373ffffffffffffffffffffffffffffffffffffffff16021790555060408201518160020160006101000a81548173ffffffffffffffffffffffffffffffffffffffff021916908373ffffffffffffffffffffffffffffffffffffffff1602179055506060820151816003015560808201518160040160006101000a81548173ffffffffffffffffffffffffffffffffffffffff021916908373ffffffffffffffffffffffffffffffffffffffff16021790555060a0820151816005015560c0820151816006015560e08201518160070160006101000a81548160ff02191690831515021790555061010082015181600801908161095b9190613621565b50905050600960003373ffffffffffffffffffffffffffffffffffffffff1673ffffffffffffffffffffffffffffffffffffffff1681526020019081526020016000208190806001815401808255809150506001900390600052602060002001600090919091909150558673ffffffffffffffffffffffffffffffffffffffff163373ffffffffffffffffffffffffffffffffffffffff16827fb272b7ba744e64ed131e7fd6a1abcb3ff4d3541979a489a829f325c0a243ad098988604051610a259291906136f3565b60405180910390a48091505095945050505050565b6060600960008373ffffffffffffffffffffffffffffffffffffffff1673ffffffffffffffffffffffffffffffffffffffff168152602001908152602001600020805480602002602001604051908101604052809291908181526020018280548015610ac557602002820191906000526020600020905b815481526020019060010190808311610ab1575b50505050509050919050565b600b6020528060005260406000206000915090505481565b60008073ffffffffffffffffffffffffffffffffffffffff168673ffffffffffffffffffffffffffffffffffffffff1603610b59576040517f08c379a0000000000000000000000000000000000000000000000000000000008152600401610b5090613272565b60405180910390fd5b60008511610b9c576040517f08c379a0000000000000000000000000000000000000000000000000000000008152600401610b93906132de565b60405180910390fd5b600060026000815480929190610bb190613399565b9190505590506040518061012001604052808281526020013373ffffffffffffffffffffffffffffffffffffffff1681526020018873ffffffffffffffffffffffffffffffffffffffff1681526020018781526020018673ffffffffffffffffffffffffffffffffffffffff16815260200185815260200160001515815260200184815260200142815250600460008381526020019081526020016000206000820151816000015560208201518160010160006101000a81548173ffffffffffffffffffffffffffffffffffffffff021916908373ffffffffffffffffffffffffffffffffffffffff16021790555060408201518160020160006101000a81548173ffffffffffffffffffffffffffffffffffffffff021916908373ffffffffffffffffffffffffffffffffffffffff1602179055506060820151816003015560808201518160040160006101000a81548173ffffffffffffffffffffffffffffffffffffffff021916908373ffffffffffffffffffffffffffffffffffffffff16021790555060a0820151816005019081610d4d9190613621565b5060c08201518160060160006101000a81548160ff02191690831515021790555060e082015181600701556101008201518160080155905050600760003373ffffffffffffffffffffffffffffffffffffffff1673ffffffffffffffffffffffffffffffffffffffff168152602001908152602001600020819080600181540180825580915050600190039060005260206000200160009091909190915055600860008873ffffffffffffffffffffffffffffffffffffffff1673ffffffffffffffffffffffffffffffffffffffff1681526020019081526020016000208190806001815401808255809150506001900390600052602060002001600090919091909150558673ffffffffffffffffffffffffffffffffffffffff163373ffffffffffffffffffffffffffffffffffffffff16827f3fbaae0f1597d7f24bf2231a5fe5248190743aecc5f3da7126965e14e3f1ca4d8987604051610eb29291906136f3565b60405180910390a48091505095945050505050565b610ecf612661565b6004600083815260200190815260200160002060405180610120016040529081600082015481526020016001820160009054906101000a900473ffffffffffffffffffffffffffffffffffffffff1673ffffffffffffffffffffffffffffffffffffffff1673ffffffffffffffffffffffffffffffffffffffff1681526020016002820160009054906101000a900473ffffffffffffffffffffffffffffffffffffffff1673ffffffffffffffffffffffffffffffffffffffff1673ffffffffffffffffffffffffffffffffffffffff168152602001600382015481526020016004820160009054906101000a900473ffffffffffffffffffffffffffffffffffffffff1673ffffffffffffffffffffffffffffffffffffffff1673ffffffffffffffffffffffffffffffffffffffff16815260200160058201805461101490613444565b80601f016020809104026020016040519081016040528092919081815260200182805461104090613444565b801561108d5780601f106110625761010080835404028352916020019161108d565b820191906000526020600020905b81548152906001019060200180831161107057829003601f168201915b505050505081526020016006820160009054906101000a900460ff16151515158152602001600782015481526020016008820154815250509050919050565b60066020528060005260406000206000915090508060000154908060010160009054906101000a900473ffffffffffffffffffffffffffffffffffffffff16908060020160009054906101000a900473ffffffffffffffffffffffffffffffffffffffff16908060030154908060040160009054906101000a900473ffffffffffffffffffffffffffffffffffffffff16908060050154908060060154908060070160009054906101000a900460ff169080600801805461118c90613444565b80601f01602080910402602001604051908101604052809291908181526020018280546111b890613444565b80156112055780601f106111da57610100808354040283529160200191611205565b820191906000526020600020905b8154815290600101906020018083116111e857829003601f168201915b5050505050905089565b6000806000806000600760008773ffffffffffffffffffffffffffffffffffffffff1673ffffffffffffffffffffffffffffffffffffffff16815260200190815260200160002080549050600860008873ffffffffffffffffffffffffffffffffffffffff1673ffffffffffffffffffffffffffffffffffffffff16815260200190815260200160002080549050600a60008973ffffffffffffffffffffffffffffffffffffffff1673ffffffffffffffffffffffffffffffffffffffff16815260200190815260200160002054600b60008a73ffffffffffffffffffffffffffffffffffffffff1673ffffffffffffffffffffffffffffffffffffffff16815260200190815260200160002054600960008b73ffffffffffffffffffffffffffffffffffffffff1673ffffffffffffffffffffffffffffffffffffffff168152602001908152602001600020805490509450945094509450945091939590929450565b60046020528060005260406000206000915090508060000154908060010160009054906101000a900473ffffffffffffffffffffffffffffffffffffffff16908060020160009054906101000a900473ffffffffffffffffffffffffffffffffffffffff16908060030154908060040160009054906101000a900473ffffffffffffffffffffffffffffffffffffffff169080600501805461141490613444565b80601f016020809104026020016040519081016040528092919081815260200182805461144090613444565b801561148d5780601f106114625761010080835404028352916020019161148d565b820191906000526020600020905b81548152906001019060200180831161147057829003601f168201915b5050505050908060060160009054906101000a900460ff16908060070154908060080154905089565b6114be6126f1565b600560008373ffffffffffffffffffffffffffffffffffffffff1673ffffffffffffffffffffffffffffffffffffffff1681526020019081526020016000206040518060a00160405290816000820160009054906101000a900460ff16151515158152602001600182015481526020016002820160009054906101000a900473ffffffffffffffffffffffffffffffffffffffff1673ffffffffffffffffffffffffffffffffffffffff1673ffffffffffffffffffffffffffffffffffffffff168152602001600382015481526020016004820154815250509050919050565b60025481565b6115ac6124bf565b6115b66000612546565b565b6115c0612738565b6006600083815260200190815260200160002060405180610120016040529081600082015481526020016001820160009054906101000a900473ffffffffffffffffffffffffffffffffffffffff1673ffffffffffffffffffffffffffffffffffffffff1673ffffffffffffffffffffffffffffffffffffffff1681526020016002820160009054906101000a900473ffffffffffffffffffffffffffffffffffffffff1673ffffffffffffffffffffffffffffffffffffffff1673ffffffffffffffffffffffffffffffffffffffff168152602001600382015481526020016004820160009054906101000a900473ffffffffffffffffffffffffffffffffffffffff1673ffffffffffffffffffffffffffffffffffffffff1673ffffffffffffffffffffffffffffffffffffffff16815260200160058201548152602001600682015481526020016007820160009054906101000a900460ff1615151515815260200160088201805461173490613444565b80601f016020809104026020016040519081016040528092919081815260200182805461176090613444565b80156117ad5780601f10611782576101008083540402835291602001916117ad565b820191906000526020600020905b81548152906001019060200180831161179057829003601f168201915b5050505050815250509050919050565b6000600254905090565b60008060009054906101000a900473ffffffffffffffffffffffffffffffffffffffff16905090565b600a6020528060005260406000206000915090505481565b6060600860008373ffffffffffffffffffffffffffffffffffffffff1673ffffffffffffffffffffffffffffffffffffffff16815260200190815260200160002080548060200260200160405190810160405280929190818152602001828054801561189357602002820191906000526020600020905b81548152602001906001019080831161187f575b50505050509050919050565b60006006600083815260200190815260200160002090503373ffffffffffffffffffffffffffffffffffffffff168160010160009054906101000a900473ffffffffffffffffffffffffffffffffffffffff1673ffffffffffffffffffffffffffffffffffffffff1614611948576040517f08c379a000000000000000000000000000000000000000000000000000000000815260040161193f90613768565b60405180910390fd5b60008160070160006101000a81548160ff021916908315150217905550817fa923c88fcdba3ef914ef2cd253567d255d171ae587e21e1c1cb67c89985b1d8360405160405180910390a25050565b61199e61260a565b60006004600083815260200190815260200160002090508060060160009054906101000a900460ff1615611a07576040517f08c379a00000000000000000000000000000000000000000000000000000000081526004016119fe906137d4565b60405180910390fd5b6000816003015411611a4e576040517f08c379a0000000000000000000000000000000000000000000000000000000008152600401611a4590613840565b60405180910390fd5b600073ffffffffffffffffffffffffffffffffffffffff168160040160009054906101000a900473ffffffffffffffffffffffffffffffffffffffff1673ffffffffffffffffffffffffffffffffffffffff1603611bc25780600301543414611aec576040517f08c379a0000000000000000000000000000000000000000000000000000000008152600401611ae3906138ac565b60405180910390fd5b60008160010160009054906101000a900473ffffffffffffffffffffffffffffffffffffffff1673ffffffffffffffffffffffffffffffffffffffff1634604051611b36906138fd565b60006040518083038185875af1925050503d8060008114611b73576040519150601f19603f3d011682016040523d82523d6000602084013e611b78565b606091505b5050905080611bbc576040517f08c379a0000000000000000000000000000000000000000000000000000000008152600401611bb39061395e565b60405180910390fd5b50611c90565b8060040160009054906101000a900473ffffffffffffffffffffffffffffffffffffffff1673ffffffffffffffffffffffffffffffffffffffff166323b872dd338360010160009054906101000a900473ffffffffffffffffffffffffffffffffffffffff1684600301546040518463ffffffff1660e01b8152600401611c4b9392919061397e565b6020604051808303816000875af1158015611c6a573d6000803e3d6000fd5b505050506040513d601f19601f82011682018060405250810190611c8e91906139ca565b505b60018160060160006101000a81548160ff0219169083151502179055508060030154600a60003373ffffffffffffffffffffffffffffffffffffffff1673ffffffffffffffffffffffffffffffffffffffff1681526020019081526020016000206000828254611d0091906133e1565b925050819055508060030154600b60008360010160009054906101000a900473ffffffffffffffffffffffffffffffffffffffff1673ffffffffffffffffffffffffffffffffffffffff1673ffffffffffffffffffffffffffffffffffffffff1681526020019081526020016000206000828254611d7e91906133e1565b925050819055503373ffffffffffffffffffffffffffffffffffffffff16827fa6abfda59e12fa300d17e1aa76bd3233eaf23ee4feb4b02b6516ad1d60be84008360030154604051611dd09190612a5c565b60405180910390a350611de1612650565b50565b6060600760008373ffffffffffffffffffffffffffffffffffffffff1673ffffffffffffffffffffffffffffffffffffffff168152602001908152602001600020805480602002602001604051908101604052809291908181526020018280548015611e6f57602002820191906000526020600020905b815481526020019060010190808311611e5b575b50505050509050919050565b60035481565b60056020528060005260406000206000915090508060000160009054906101000a900460ff16908060010154908060020160009054906101000a900473ffffffffffffffffffffffffffffffffffffffff16908060030154908060040154905085565b611eec6124bf565b600073ffffffffffffffffffffffffffffffffffffffff168173ffffffffffffffffffffffffffffffffffffffff1603611f5e5760006040517f1e4fbdf7000000000000000000000000000000000000000000000000000000008152600401611f559190613125565b60405180910390fd5b611f6781612546565b50565b6040518060a0016040528085151581526020018481526020018373ffffffffffffffffffffffffffffffffffffffff1681526020018281526020016000815250600560003373ffffffffffffffffffffffffffffffffffffffff1673ffffffffffffffffffffffffffffffffffffffff16815260200190815260200160002060008201518160000160006101000a81548160ff0219169083151502179055506020820151816001015560408201518160020160006101000a81548173ffffffffffffffffffffffffffffffffffffffff021916908373ffffffffffffffffffffffffffffffffffffffff16021790555060608201518160030155608082015181600401559050503373ffffffffffffffffffffffffffffffffffffffff167fd8e76f77a7d49cfb61cad9d5b13dbd242c96a8b16754cd33fe2c400a0fef9e0685856040516120b99291906139f7565b60405180910390a250505050565b6120cf61260a565b60006006600083815260200190815260200160002090508060070160009054906101000a900460ff16612137576040517f08c379a000000000000000000000000000000000000000000000000000000000815260040161212e90613a6c565b60405180910390fd5b806005015442101561217e576040517f08c379a000000000000000000000000000000000000000000000000000000000815260040161217590613ad8565b60405180910390fd5b600073ffffffffffffffffffffffffffffffffffffffff168160040160009054906101000a900473ffffffffffffffffffffffffffffffffffffffff1673ffffffffffffffffffffffffffffffffffffffff16036122f757806003015447101561221d576040517f08c379a000000000000000000000000000000000000000000000000000000000815260040161221490613b44565b60405180910390fd5b60008160020160009054906101000a900473ffffffffffffffffffffffffffffffffffffffff1673ffffffffffffffffffffffffffffffffffffffff16826003015460405161226b906138fd565b60006040518083038185875af1925050503d80600081146122a8576040519150601f19603f3d011682016040523d82523d6000602084013e6122ad565b606091505b50509050806122f1576040517f08c379a00000000000000000000000000000000000000000000000000000000081526004016122e890613bb0565b60405180910390fd5b506123e9565b8060040160009054906101000a900473ffffffffffffffffffffffffffffffffffffffff1673ffffffffffffffffffffffffffffffffffffffff166323b872dd8260010160009054906101000a900473ffffffffffffffffffffffffffffffffffffffff168360020160009054906101000a900473ffffffffffffffffffffffffffffffffffffffff1684600301546040518463ffffffff1660e01b81526004016123a49392919061397e565b6020604051808303816000875af11580156123c3573d6000803e3d6000fd5b505050506040513d601f19601f820116820180604052508101906123e791906139ca565b505b8060060154426123f991906133e1565b81600501819055508060020160009054906101000a900473ffffffffffffffffffffffffffffffffffffffff1673ffffffffffffffffffffffffffffffffffffffff168160010160009054906101000a900473ffffffffffffffffffffffffffffffffffffffff1673ffffffffffffffffffffffffffffffffffffffff16837fd83b8695535cf537e03c3a27451908aa08781afc5439a3193e1691a142d3728e84600301546040516124ab9190612a5c565b60405180910390a4506124bc612650565b50565b6124c7612659565b73ffffffffffffffffffffffffffffffffffffffff166124e56117c7565b73ffffffffffffffffffffffffffffffffffffffff161461254457612508612659565b6040517f118cdaa700000000000000000000000000000000000000000000000000000000815260040161253b9190613125565b60405180910390fd5b565b60008060009054906101000a900473ffffffffffffffffffffffffffffffffffffffff169050816000806101000a81548173ffffffffffffffffffffffffffffffffffffffff021916908373ffffffffffffffffffffffffffffffffffffffff1602179055508173ffffffffffffffffffffffffffffffffffffffff168173ffffffffffffffffffffffffffffffffffffffff167f8be0079c531659141344cd1fd0a4f28419497f9722a3daafe3b4186f6b6457e060405160405180910390a35050565b600260015403612646576040517f3ee5aeb500000000000000000000000000000000000000000000000000000000815260040160405180910390fd5b6002600181905550565b60018081905550565b600033905090565b60405180610120016040528060008152602001600073ffffffffffffffffffffffffffffffffffffffff168152602001600073ffffffffffffffffffffffffffffffffffffffff16815260200160008152602001600073ffffffffffffffffffffffffffffffffffffffff1681526020016060815260200160001515815260200160008152602001600081525090565b6040518060a0016040528060001515815260200160008152602001600073ffffffffffffffffffffffffffffffffffffffff16815260200160008152602001600081525090565b60405180610120016040528060008152602001600073ffffffffffffffffffffffffffffffffffffffff168152602001600073ffffffffffffffffffffffffffffffffffffffff16815260200160008152602001600073ffffffffffffffffffffffffffffffffffffffff1681526020016000815260200160008152602001600015158152602001606081525090565b6000604051905090565b600080fd5b600080fd5b600073ffffffffffffffffffffffffffffffffffffffff82169050919050565b6000612807826127dc565b9050919050565b612817816127fc565b811461282257600080fd5b50565b6000813590506128348161280e565b92915050565b6000819050919050565b61284d8161283a565b811461285857600080fd5b50565b60008135905061286a81612844565b92915050565b600080fd5b600080fd5b6000601f19601f8301169050919050565b7f4e487b7100000000000000000000000000000000000000000000000000000000600052604160045260246000fd5b6128c38261287a565b810181811067ffffffffffffffff821117156128e2576128e161288b565b5b80604052505050565b60006128f56127c8565b905061290182826128ba565b919050565b600067ffffffffffffffff8211156129215761292061288b565b5b61292a8261287a565b9050602081019050919050565b82818337600083830152505050565b600061295961295484612906565b6128eb565b90508281526020810184848401111561297557612974612875565b5b612980848285612937565b509392505050565b600082601f83011261299d5761299c612870565b5b81356129ad848260208601612946565b91505092915050565b600080600080600060a086880312156129d2576129d16127d2565b5b60006129e088828901612825565b95505060206129f18882890161285b565b9450506040612a0288828901612825565b9350506060612a138882890161285b565b925050608086013567ffffffffffffffff811115612a3457612a336127d7565b5b612a4088828901612988565b9150509295509295909350565b612a568161283a565b82525050565b6000602082019050612a716000830184612a4d565b92915050565b600060208284031215612a8d57612a8c6127d2565b5b6000612a9b84828501612825565b91505092915050565b600081519050919050565b600082825260208201905092915050565b6000819050602082019050919050565b612ad98161283a565b82525050565b6000612aeb8383612ad0565b60208301905092915050565b6000602082019050919050565b6000612b0f82612aa4565b612b198185612aaf565b9350612b2483612ac0565b8060005b83811015612b55578151612b3c8882612adf565b9750612b4783612af7565b925050600181019050612b28565b5085935050505092915050565b60006020820190508181036000830152612b7c8184612b04565b905092915050565b600080600080600060a08688031215612ba057612b9f6127d2565b5b6000612bae88828901612825565b9550506020612bbf8882890161285b565b9450506040612bd088828901612825565b935050606086013567ffffffffffffffff811115612bf157612bf06127d7565b5b612bfd88828901612988565b9250506080612c0e8882890161285b565b9150509295509295909350565b600060208284031215612c3157612c306127d2565b5b6000612c3f8482850161285b565b91505092915050565b612c51816127fc565b82525050565b600081519050919050565b600082825260208201905092915050565b60005b83811015612c91578082015181840152602081019050612c76565b60008484015250505050565b6000612ca882612c57565b612cb28185612c62565b9350612cc2818560208601612c73565b612ccb8161287a565b840191505092915050565b60008115159050919050565b612ceb81612cd6565b82525050565b600061012083016000830151612d0a6000860182612ad0565b506020830151612d1d6020860182612c48565b506040830151612d306040860182612c48565b506060830151612d436060860182612ad0565b506080830151612d566080860182612c48565b5060a083015184820360a0860152612d6e8282612c9d565b91505060c0830151612d8360c0860182612ce2565b5060e0830151612d9660e0860182612ad0565b50610100830151612dab610100860182612ad0565b508091505092915050565b60006020820190508181036000830152612dd08184612cf1565b905092915050565b612de1816127fc565b82525050565b612df081612cd6565b82525050565b600082825260208201905092915050565b6000612e1282612c57565b612e1c8185612df6565b9350612e2c818560208601612c73565b612e358161287a565b840191505092915050565b600061012082019050612e56600083018c612a4d565b612e63602083018b612dd8565b612e70604083018a612dd8565b612e7d6060830189612a4d565b612e8a6080830188612dd8565b612e9760a0830187612a4d565b612ea460c0830186612a4d565b612eb160e0830185612de7565b818103610100830152612ec48184612e07565b90509a9950505050505050505050565b600060a082019050612ee96000830188612a4d565b612ef66020830187612a4d565b612f036040830186612a4d565b612f106060830185612a4d565b612f1d6080830184612a4d565b9695505050505050565b600061012082019050612f3d600083018c612a4d565b612f4a602083018b612dd8565b612f57604083018a612dd8565b612f646060830189612a4d565b612f716080830188612dd8565b81810360a0830152612f838187612e07565b9050612f9260c0830186612de7565b612f9f60e0830185612a4d565b612fad610100830184612a4d565b9a9950505050505050505050565b60a082016000820151612fd16000850182612ce2565b506020820151612fe46020850182612ad0565b506040820151612ff76040850182612c48565b50606082015161300a6060850182612ad0565b50608082015161301d6080850182612ad0565b50505050565b600060a0820190506130386000830184612fbb565b92915050565b6000610120830160008301516130576000860182612ad0565b50602083015161306a6020860182612c48565b50604083015161307d6040860182612c48565b5060608301516130906060860182612ad0565b5060808301516130a36080860182612c48565b5060a08301516130b660a0860182612ad0565b5060c08301516130c960c0860182612ad0565b5060e08301516130dc60e0860182612ce2565b506101008301518482036101008601526130f68282612c9d565b9150508091505092915050565b6000602082019050818103600083015261311d818461303e565b905092915050565b600060208201905061313a6000830184612dd8565b92915050565b600060a0820190506131556000830188612de7565b6131626020830187612a4d565b61316f6040830186612dd8565b61317c6060830185612a4d565b6131896080830184612a4d565b9695505050505050565b61319c81612cd6565b81146131a757600080fd5b50565b6000813590506131b981613193565b92915050565b600080600080608085870312156131d9576131d86127d2565b5b60006131e7878288016131aa565b94505060206131f88782880161285b565b935050604061320987828801612825565b925050606061321a8782880161285b565b91505092959194509250565b7f496e76616c696420726563697069656e74000000000000000000000000000000600082015250565b600061325c601183612df6565b915061326782613226565b602082019050919050565b6000602082019050818103600083015261328b8161324f565b9050919050565b7f416d6f756e74206d7573742062652067726561746572207468616e2030000000600082015250565b60006132c8601d83612df6565b91506132d382613292565b602082019050919050565b600060208201905081810360008301526132f7816132bb565b9050919050565b7f496e73756666696369656e7420696e697469616c206465706f73697400000000600082015250565b6000613334601c83612df6565b915061333f826132fe565b602082019050919050565b6000602082019050818103600083015261336381613327565b9050919050565b7f4e487b7100000000000000000000000000000000000000000000000000000000600052601160045260246000fd5b60006133a48261283a565b91507fffffffffffffffffffffffffffffffffffffffffffffffffffffffffffffffff82036133d6576133d561336a565b5b600182019050919050565b60006133ec8261283a565b91506133f78361283a565b925082820190508082111561340f5761340e61336a565b5b92915050565b7f4e487b7100000000000000000000000000000000000000000000000000000000600052602260045260246000fd5b6000600282049050600182168061345c57607f821691505b60208210810361346f5761346e613415565b5b50919050565b60008190508160005260206000209050919050565b60006020601f8301049050919050565b600082821b905092915050565b6000600883026134d77fffffffffffffffffffffffffffffffffffffffffffffffffffffffffffffffff8261349a565b6134e1868361349a565b95508019841693508086168417925050509392505050565b6000819050919050565b600061351e6135196135148461283a565b6134f9565b61283a565b9050919050565b6000819050919050565b61353883613503565b61354c61354482613525565b8484546134a7565b825550505050565b600090565b613561613554565b61356c81848461352f565b505050565b5b8181101561359057613585600082613559565b600181019050613572565b5050565b601f8211156135d5576135a681613475565b6135af8461348a565b810160208510156135be578190505b6135d26135ca8561348a565b830182613571565b50505b505050565b600082821c905092915050565b60006135f8600019846008026135da565b1980831691505092915050565b600061361183836135e7565b9150826002028217905092915050565b61362a82612c57565b67ffffffffffffffff8111156136435761364261288b565b5b61364d8254613444565b613658828285613594565b600060209050601f83116001811461368b5760008415613679578287015190505b6136838582613605565b8655506136eb565b601f19841661369986613475565b60005b828110156136c15784890151825560018201915060208501945060208101905061369c565b868310156136de57848901516136da601f8916826135e7565b8355505b6001600288020188555050505b505050505050565b60006040820190506137086000830185612a4d565b6137156020830184612a4d565b9392505050565b7f4e6f74206f776e65720000000000000000000000000000000000000000000000600082015250565b6000613752600983612df6565b915061375d8261371c565b602082019050919050565b6000602082019050818103600083015261378181613745565b9050919050565b7f416c726561647920706169640000000000000000000000000000000000000000600082015250565b60006137be600c83612df6565b91506137c982613788565b602082019050919050565b600060208201905081810360008301526137ed816137b1565b9050919050565b7f496e766f69636520646f6573206e6f7420657869737400000000000000000000600082015250565b600061382a601683612df6565b9150613835826137f4565b602082019050919050565b600060208201905081810360008301526138598161381d565b9050919050565b7f496e636f727265637420616d6f756e7400000000000000000000000000000000600082015250565b6000613896601083612df6565b91506138a182613860565b602082019050919050565b600060208201905081810360008301526138c581613889565b9050919050565b600081905092915050565b50565b60006138e76000836138cc565b91506138f2826138d7565b600082019050919050565b6000613908826138da565b9150819050919050565b7f4661696c656420746f2073656e64204d4e540000000000000000000000000000600082015250565b6000613948601283612df6565b915061395382613912565b602082019050919050565b600060208201905081810360008301526139778161393b565b9050919050565b60006060820190506139936000830186612dd8565b6139a06020830185612dd8565b6139ad6040830184612a4d565b949350505050565b6000815190506139c481613193565b92915050565b6000602082840312156139e0576139df6127d2565b5b60006139ee848285016139b5565b91505092915050565b6000604082019050613a0c6000830185612de7565b613a196020830184612a4d565b9392505050565b7f5061796d656e74206e6f74206163746976650000000000000000000000000000600082015250565b6000613a56601283612df6565b9150613a6182613a20565b602082019050919050565b60006020820190508181036000830152613a8581613a49565b9050919050565b7f4e6f742079657420647565000000000000000000000000000000000000000000600082015250565b6000613ac2600b83612df6565b9150613acd82613a8c565b602082019050919050565b60006020820190508181036000830152613af181613ab5565b9050919050565b7f496e73756666696369656e7420636f6e74726163742062616c616e6365000000600082015250565b6000613b2e601d83612df6565b9150613b3982613af8565b602082019050919050565b60006020820190508181036000830152613b5d81613b21565b9050919050565b7f4661696c656420746f2073656e64000000000000000000000000000000000000600082015250565b6000613b9a600e83612df6565b9150613ba582613b64565b602082019050919050565b60006020820190508181036000830152613bc981613b8d565b905091905056fea2646970667358221220d04340ef0689f27f024897709b339e68eadc1f85b716257ad0bf2d09b20fe8c564736f6c634300081b0033",
  "linkReferences": {},
  "deployedLinkReferences": {}
}