{
  "_format": "hh-sol-artifact-1",
  "contractName": "AgentPay",
  "sourceName": "contracts/AgentPay.sol",
  "abi": [
    {
      "inputs": [],
      "stateMutability": "nonpayable",
      "type": "constructor"
    },
    {
      "inputs": [
        {
          "internalType": "address",
          "name": "owner",
          "type": "address"
        }
      ],
      "name": "OwnableInvalidOwner",
      "type": "error"
    },
    {
      "inputs": [
        {
          "internalType": "address",
          "name": "account",
          "type": "address"
        }
      ],
      "name": "OwnableUnauthorizedAccount",
      "type": "error"
    },
    {
      "inputs": [],
      "name": "ReentrancyGuardReentrantCall",
      "type": "error"
    },
    {
      "anonymous": false,
      "inputs": [
        {
          "indexed": true,
          "internalType": "address",
          "name": "user",
          "type": "address"
        },
        {
          "indexed": false,
          "internalType": "bool",
          "name": "isActive",
          "type": "bool"
        },
        {
          "indexed": false,
          "internalType": "uint256",
          "name": "limitPerTx",
          "type": "uint256"
        }
      ],
      "name": "AgentConfigured",
      "type": "event"
    },
    {
      "anonymous": false,
      "inputs": [
        {
          "indexed": true,
          "internalType": "uint256",
          "name": "id",
          "type": "uint256"
        },
        {
          "indexed": false,
          "internalType": "bool",
          "name": "isActive",
          "type": "bool"
        }
      ],
      "name": "AgentStatusUpdated",
      "type": "event"
    },
    {
      "anonymous": false,
      "inputs": [
        {
          "indexed": true,
          "internalType": "uint256",
          "name": "id",
          "type": "uint256"
        },
        {
          "indexed": false,
          "internalType": "uint256",
          "name": "amount",
          "type": "uint256"
        },
        {
          "indexed": false,
          "internalType": "uint256",
          "name": "tokenAmount",
          "type": "uint256"
        }
      ],
      "name": "AgentTopUp",
      "type": "event"
    },
    {
      "anonymous": false,
      "inputs": [
        {
          "indexed": true,
          "internalType": "uint256",
          "name": "id",
          "type": "uint256"
        },
        {
          "indexed": false,
          "internalType": "uint256",
          "name": "amount",
          "type": "uint256"
        },
        {
          "indexed": false,
          "internalType": "uint256",
          "name": "tokenAmount",
          "type": "uint256"
        }
      ],
      "name": "AgentWithdrawn",
      "type": "event"
    },
    {
      "anonymous": false,
      "inputs": [
        {
          "indexed": true,
          "internalType": "uint256",
          "name": "id",
          "type": "uint256"
        },
        {
          "indexed": true,
          "internalType": "address",
          "name": "creator",
          "type": "address"
        }
      ],
      "name": "InvoiceCancelled",
      "type": "event"
    },
    {
      "anonymous": false,
      "inputs": [
        {
          "indexed": true,
          "internalType": "uint256",
          "name": "id",
          "type": "uint256"
        },
        {
          "indexed": true,
          "internalType": "address",
          "name": "creator",
          "type": "address"
        },
        {
          "indexed": true,
          "internalType": "address",
          "name": "recipient",
          "type": "address"
        },
        {
          "indexed": false,
          "internalType": "uint256",
          "name": "amount",
          "type": "uint256"
        },
        {
          "indexed": false,
          "internalType": "uint256",
          "name": "dueDate",
          "type": "uint256"
        }
      ],
      "name": "InvoiceCreated",
      "type": "event"
    },
    {
      "anonymous": false,
      "inputs": [
        {
          "indexed": true,
          "internalType": "uint256",
          "name": "id",
          "type": "uint256"
        },
        {
          "indexed": true,
          "internalType": "address",
          "name": "payer",
          "type": "address"
        },
        {
          "indexed": false,
          "internalType": "uint256",
          "name": "amount",
          "type": "uint256"
        }
      ],
      "name": "InvoicePaid",
      "type": "event"
    },
    {
      "anonymous": false,
      "inputs": [
        {
          "indexed": true,
          "internalType": "address",
          "name": "previousOwner",
          "type": "address"
        },
        {
          "indexed": true,
          "internalType": "address",
          "name": "newOwner",
          "type": "address"
        }
      ],
      "name": "OwnershipTransferred",
      "type": "event"
    },
    {
      "anonymous": false,
      "inputs": [
        {
          "indexed": true,
          "internalType": "uint256",
          "name": "id",
          "type": "uint256"
        }
      ],
      "name": "ScheduledPaymentCancelled",
      "type": "event"
    },
    {
      "anonymous": false,
      "inputs": [
        {
          "indexed": true,
          "internalType": "uint256",
          "name": "id",
          "type": "uint256"
        },
        {
          "indexed": true,
          "internalType": "address",
          "name": "from",
          "type": "address"
        },
        {
          "indexed": true,
          "internalType": "address",
          "name": "to",
          "type": "address"
        },
        {
          "indexed": false,
          "internalType": "uint256",
          "name": "amount",
          "type": "uint256"
        },
        {
          "indexed": false,
          "internalType": "uint256",
          "name": "interval",
          "type": "uint256"
        }
      ],
      "name": "ScheduledPaymentCreated",
      "type": "event"
    },
    {
      "anonymous": false,
      "inputs": [
        {
          "indexed": true,
          "internalType": "uint256",
          "name": "id",
          "type": "uint256"
        },
        {
          "indexed": true,
          "internalType": "address",
          "name": "from",
          "type": "address"
        },
        {
          "indexed": true,
          "internalType": "address",
          "name": "to",
          "type": "address"
        },
        {
          "indexed": false,
          "internalType": "uint256",
          "name": "amount",
          "type": "uint256"
        }
      ],
      "name": "ScheduledPaymentExecuted",
      "type": "event"
    },
    {
      "anonymous": false,
      "inputs": [
        {
          "indexed": true,
          "internalType": "uint256",
          "name": "id",
          "type": "uint256"
        },
        {
          "indexed": false,
          "internalType": "uint256",
          "name": "endDate",
          "type": "uint256"
        }
      ],
      "name": "ScheduledPaymentUpdated",
      "type": "event"
    },
    {
      "inputs": [
        {
          "internalType": "address",
          "name": "",
          "type": "address"
        }
      ],
      "name": "agentConfigs",
      "outputs": [
        {
          "internalType": "bool",
          "name": "isActive",
          "type": "bool"
        },
        {
          "internalType": "uint256",
          "name": "limitPerTx",
          "type": "uint256"
        },
        {
          "internalType": "address",
          "name": "allowedRecipient",
          "type": "address"
        },
        {
          "internalType": "uint256",
          "name": "interval",
          "type": "uint256"
        },
        {
          "internalType": "uint256",
          "name": "lastExecuted",
          "type": "uint256"
        }
      ],
      "stateMutability": "view",
      "type": "function"
    },
    {
      "inputs": [
        {
          "internalType": "uint256",
          "name": "_id",
          "type": "uint256"
        }
      ],
      "name": "cancelInvoice",
      "outputs": [],
      "stateMutability": "nonpayable",
      "type": "function"
    },
    {
      "inputs": [
        {
          "internalType": "uint256",
          "name": "_id",
          "type": "uint256"
        }
      ],
      "name": "cancelScheduledPayment",
      "outputs": [],
      "stateMutability": "nonpayable",
      "type": "function"
    },
    {
      "inputs": [
        {
          "internalType": "bool",
          "name": "_isActive",
          "type": "bool"
        },
        {
          "internalType": "uint256",
          "name": "_limitPerTx",
          "type": "uint256"
        },
        {
          "internalType": "address",
          "name": "_allowedRecipient",
          "type": "address"
        },
        {
          "internalType": "uint256",
          "name": "_interval",
          "type": "uint256"
        }
      ],
      "name": "configureAgent",
      "outputs": [],
      "stateMutability": "nonpayable",
      "type": "function"
    },
    {
      "inputs": [
        {
          "internalType": "address",
          "name": "_recipient",
          "type": "address"
        },
        {
          "internalType": "uint256",
          "name": "_amount",
          "type": "uint256"
        },
        {
          "internalType": "address",
          "name": "_token",
          "type": "address"
        },
        {
          "internalType": "string",
          "name": "_metadataHash",
          "type": "string"
        },
        {
          "internalType": "uint256",
          "name": "_dueDate",
          "type": "uint256"
        }
      ],
      "name": "createInvoice",
      "outputs": [
        {
          "internalType": "uint256",
          "name": "",
          "type": "uint256"
        }
      ],
      "stateMutability": "nonpayable",
      "type": "function"
    },
    {
      "inputs": [
        {
          "internalType": "address",
          "name": "_to",
          "type": "address"
        },
        {
          "internalType": "uint256",
          "name": "_amount",
          "type": "uint256"
        },
        {
          "internalType": "address",
          "name": "_token",
          "type": "address"
        },
        {
          "internalType": "uint256",
          "name": "_interval",
          "type": "uint256"
        },
        {
          "internalType": "string",
          "name": "_description",
          "type": "string"
        },
        {
          "internalType": "uint256",
          "name": "_initialTokenDeposit",
          "type": "uint256"
        },
        {
          "internalType": "uint256",
          "name": "_endDate",
          "type": "uint256"
        }
      ],
      "name": "createScheduledPayment",
      "outputs": [
        {
          "internalType": "uint256",
          "name": "",
          "type": "uint256"
        }
      ],
      "stateMutability": "payable",
      "type": "function"
    },
    {
      "inputs": [
        {
          "internalType": "uint256",
          "name": "_id",
          "type": "uint256"
        }
      ],
      "name": "executeScheduledPayment",
      "outputs": [],
      "stateMutability": "nonpayable",
      "type": "function"
    },
    {
      "inputs": [
        {
          "internalType": "address",
          "name": "_user",
          "type": "address"
        }
      ],
      "name": "getAgentConfig",
      "outputs": [
        {
          "components": [
            {
              "internalType": "bool",
              "name": "isActive",
              "type": "bool"
            },
            {
              "internalType": "uint256",
              "name": "limitPerTx",
              "type": "uint256"
            },
            {
              "internalType": "address",
              "name": "allowedRecipient",
              "type": "address"
            },
            {
              "internalType": "uint256",
              "name": "interval",
              "type": "uint256"
            },
            {
              "internalType": "uint256",
              "name": "lastExecuted",
              "type": "uint256"
            }
          ],
          "internalType": "struct AgentPay.AgentConfig",
          "name": "",
          "type": "tuple"
        }
      ],
      "stateMutability": "view",
      "type": "function"
    },
    {
      "inputs": [
        {
          "internalType": "uint256",
          "name": "_id",
          "type": "uint256"
        }
      ],
      "name": "getInvoice",
      "outputs": [
        {
          "components": [
            {
              "internalType": "uint256",
              "name": "id",
              "type": "uint256"
            },
            {
              "internalType": "address",
              "name": "creator",
              "type": "address"
            },
            {
              "internalType": "address",
              "name": "recipient",
              "type": "address"
            },
            {
              "internalType": "uint256",
              "name": "amount",
              "type": "uint256"
            },
            {
              "internalType": "address",
              "name": "token",
              "type": "address"
            },
            {
              "internalType": "string",
              "name": "metadataHash",
              "type": "string"
            },
            {
              "internalType": "bool",
              "name": "paid",
              "type": "bool"
            },
            {
              "internalType": "uint256",
              "name": "dueDate",
              "type": "uint256"
            },
            {
              "internalType": "uint256",
              "name": "createdAt",
              "type": "uint256"
            }
          ],
          "internalType": "struct AgentPay.Invoice",
          "name": "",
          "type": "tuple"
        }
      ],
      "stateMutability": "view",
      "type": "function"
    },
    {
      "inputs": [],
      "name": "getInvoiceCount",
      "outputs": [
        {
          "internalType": "uint256",
          "name": "",
          "type": "uint256"
        }
      ],
      "stateMutability": "view",
      "type": "function"
    },
    {
      "inputs": [
        {
          "internalType": "uint256",
          "name": "_id",
          "type": "uint256"
        }
      ],
      "name": "getScheduledPayment",
      "outputs": [
        {
          "components": [
            {
              "internalType": "uint256",
              "name": "id",
              "type": "uint256"
            },
            {
              "internalType": "address",
              "name": "from",
              "type": "address"
            },
            {
              "internalType": "address",
              "name": "to",
              "type": "address"
            },
            {
              "internalType": "uint256",
              "name": "amount",
              "type": "uint256"
            },
            {
              "internalType": "address",
              "name": "token",
              "type": "address"
            },
            {
              "internalType": "uint256",
              "name": "nextExecution",
              "type": "uint256"
            },
            {
              "internalType": "uint256",
              "name": "interval",
              "type": "uint256"
            },
            {
              "internalType": "bool",
              "name": "isActive",
              "type": "bool"
            },
            {
              "internalType": "string",
              "name": "description",
              "type": "string"
            },
            {
              "internalType": "uint256",
              "name": "balance",
              "type": "uint256"
            },
            {
              "internalType": "uint256",
              "name": "tokenBalance",
              "type": "uint256"
            },
            {
              "internalType": "uint256",
              "name": "endDate",
              "type": "uint256"
            }
          ],
          "internalType": "struct AgentPay.ScheduledPayment",
          "name": "",
          "type": "tuple"
        }
      ],
      "stateMutability": "view",
      "type": "function"
    },
    {
      "inputs": [
        {
          "internalType": "address",
          "name": "_user",
          "type": "address"
        }
      ],
      "name": "getUserCreatedInvoices",
      "outputs": [
        {
          "internalType": "uint256[]",
          "name": "",
          "type": "uint256[]"
        }
      ],
      "stateMutability": "view",
      "type": "function"
    },
    {
      "inputs": [
        {
          "internalType": "address",
          "name": "_user",
          "type": "address"
        }
      ],
      "name": "getUserReceivedInvoices",
      "outputs": [
        {
          "internalType": "uint256[]",
          "name": "",
          "type": "uint256[]"
        }
      ],
      "stateMutability": "view",
      "type": "function"
    },
    {
      "inputs": [
        {
          "internalType": "address",
          "name": "_user",
          "type": "address"
        }
      ],
      "name": "getUserScheduledPayments",
      "outputs": [
        {
          "internalType": "uint256[]",
          "name": "",
          "type": "uint256[]"
        }
      ],
      "stateMutability": "view",
      "type": "function"
    },
    {
      "inputs": [
        {
          "internalType": "address",
          "name": "_user",
          "type": "address"
        }
      ],
      "name": "getUserStats",
      "outputs": [
        {
          "internalType": "uint256",
          "name": "createdCount",
          "type": "uint256"
        },
        {
          "internalType": "uint256",
          "name": "receivedCount",
          "type": "uint256"
        },
        {
          "internalType": "uint256",
          "name": "totalPaid",
          "type": "uint256"
        },
        {
          "internalType": "uint256",
          "name": "totalReceived",
          "type": "uint256"
        },
        {
          "internalType": "uint256",
          "name": "scheduledCount",
          "type": "uint256"
        }
      ],
      "stateMutability": "view",
      "type": "function"
    },
    {
      "inputs": [
        {
          "internalType": "uint256",
          "name": "",
          "type": "uint256"
        }
      ],
      "name": "invoices",
      "outputs": [
        {
          "internalType": "uint256",
          "name": "id",
          "type": "uint256"
        },
        {
          "internalType": "address",
          "name": "creator",
          "type": "address"
        },
        {
          "internalType": "address",
          "name": "recipient",
          "type": "address"
        },
        {
          "internalType": "uint256",
          "name": "amount",
          "type": "uint256"
        },
        {
          "internalType": "address",
          "name": "token",
          "type": "address"
        },
        {
          "internalType": "string",
          "name": "metadataHash",
          "type": "string"
        },
        {
          "internalType": "bool",
          "name": "paid",
          "type": "bool"
        },
        {
          "internalType": "uint256",
          "name": "dueDate",
          "type": "uint256"
        },
        {
          "internalType": "uint256",
          "name": "createdAt",
          "type": "uint256"
        }
      ],
      "stateMutability": "view",
      "type": "function"
    },
    {
      "inputs": [],
      "name": "nextInvoiceId",
      "outputs": [
        {
          "internalType": "uint256",
          "name": "",
          "type": "uint256"
        }
      ],
      "stateMutability": "view",
      "type": "function"
    },
    {
      "inputs": [],
      "name": "nextScheduledPaymentId",
      "outputs": [
        {
          "internalType": "uint256",
          "name": "",
          "type": "uint256"
        }
      ],
      "stateMutability": "view",
      "type": "function"
    },
    {
      "inputs": [],
      "name": "owner",
      "outputs": [
        {
          "internalType": "address",
          "name": "",
          "type": "address"
        }
      ],
      "stateMutability": "view",
      "type": "function"
    },
    {
      "inputs": [
        {
          "internalType": "uint256",
          "name": "_id",
          "type": "uint256"
        }
      ],
      "name": "payInvoice",
      "outputs": [],
      "stateMutability": "payable",
      "type": "function"
    },
    {
      "inputs": [],
      "name": "renounceOwnership",
      "outputs": [],
      "stateMutability": "nonpayable",
      "type": "function"
    },
    {
      "inputs": [
        {
          "internalType": "uint256",
          "name": "",
          "type": "uint256"
        }
      ],
      "name": "scheduledPayments",
      "outputs": [
        {
          "internalType": "uint256",
          "name": "id",
          "type": "uint256"
        },
        {
          "internalType": "address",
          "name": "from",
          "type": "address"
        },
        {
          "internalType": "address",
          "name": "to",
          "type": "address"
        },
        {
          "internalType": "uint256",
          "name": "amount",
          "type": "uint256"
        },
        {
          "internalType": "address",
          "name": "token",
          "type": "address"
        },
        {
          "internalType": "uint256",
          "name": "nextExecution",
          "type": "uint256"
        },
        {
          "internalType": "uint256",
          "name": "interval",
          "type": "uint256"
        },
        {
          "internalType": "bool",
          "name": "isActive",
          "type": "bool"
        },
        {
          "internalType": "string",
          "name": "description",
          "type": "string"
        },
        {
          "internalType": "uint256",
          "name": "balance",
          "type": "uint256"
        },
        {
          "internalType": "uint256",
          "name": "tokenBalance",
          "type": "uint256"
        },
        {
          "internalType": "uint256",
          "name": "endDate",
          "type": "uint256"
        }
      ],
      "stateMutability": "view",
      "type": "function"
    },
    {
      "inputs": [
        {
          "internalType": "uint256",
          "name": "_id",
          "type": "uint256"
        },
        {
          "internalType": "bool",
          "name": "_isActive",
          "type": "bool"
        }
      ],
      "name": "toggleAgentStatus",
      "outputs": [],
      "stateMutability": "nonpayable",
      "type": "function"
    },
    {
      "inputs": [
        {
          "internalType": "uint256",
          "name": "_id",
          "type": "uint256"
        },
        {
          "internalType": "uint256",
          "name": "_tokenAmount",
          "type": "uint256"
        }
      ],
      "name": "topUpAgent",
      "outputs": [],
      "stateMutability": "payable",
      "type": "function"
    },
    {
      "inputs": [
        {
          "internalType": "address",
          "name": "",
          "type": "address"
        }
      ],
      "name": "totalPaidByUser",
      "outputs": [
        {
          "internalType": "uint256",
          "name": "",
          "type": "uint256"
        }
      ],
      "stateMutability": "view",
      "type": "function"
    },
    {
      "inputs": [
        {
          "internalType": "address",
          "name": "",
          "type": "address"
        }
      ],
      "name": "totalReceivedByUser",
      "outputs": [
        {
          "internalType": "uint256",
          "name": "",
          "type": "uint256"
        }
      ],
      "stateMutability": "view",
      "type": "function"
    },
    {
      "inputs": [
        {
          "internalType": "address",
          "name": "newOwner",
          "type": "address"
        }
      ],
      "name": "transferOwnership",
      "outputs": [],
      "stateMutability": "nonpayable",
      "type": "function"
    },
    {
      "inputs": [
        {
          "internalType": "uint256",
          "name": "_id",
          "type": "uint256"
        },
        {
          "internalType": "uint256",
          "name": "_endDate",
          "type": "uint256"
        }
      ],
      "name": "updateScheduledPayment",
      "outputs": [],
      "stateMutability": "nonpayable",
      "type": "function"
    },
    {
      "stateMutability": "payable",
      "type": "receive"
    }
  ],
  "bytecode": "0x608060405234801561001057600080fd5b5033600073ffffffffffffffffffffffffffffffffffffffff168173ffffffffffffffffffffffffffffffffffffffff16036100845760006040517f1e4fbdf700000000000000000000000000000000000000000000000000000000815260040161007b91906101a5565b60405180910390fd5b610093816100a060201b60201c565b50600180819055506101c0565b60008060009054906101000a900473ffffffffffffffffffffffffffffffffffffffff169050816000806101000a81548173ffffffffffffffffffffffffffffffffffffffff021916908373ffffffffffffffffffffffffffffffffffffffff1602179055508173ffffffffffffffffffffffffffffffffffffffff168173ffffffffffffffffffffffffffffffffffffffff167f8be0079c531659141344cd1fd0a4f28419497f9722a3daafe3b4186f6b6457e060405160405180910390a35050565b600073ffffffffffffffffffffffffffffffffffffffff82169050919050565b600061018f82610164565b9050919050565b61019f81610184565b82525050565b60006020820190506101ba6000830184610196565b92915050565b614c6c806101cf6000396000f3fe6080604052600436106101bb5760003560e01c80638c5a2abf116100ec578063bc656bfe1161008a578063ed0cbbfb11610064578063ed0cbbfb14610689578063f2fde38b146106ca578063f5a772ef146106f3578063fb8cf5d61461071c576101c2565b8063bc656bfe14610605578063c8a1270d14610630578063da9c273d14610660576101c2565b806396e5ca85116100c657806396e5ca8514610546578063a27bc4d214610583578063ac60a6cd146105ac578063b3d15316146105c8576101c2565b80638c5a2abf146104b55780638da5cb5b146104de5780639633e41c14610509576101c2565b80634e6d1405116101595780636ff2a953116101335780636ff2a9531461040b578063715018a61461043657806378ee58931461044d5780637d6a59ed1461048a576101c2565b80634e6d14051461036057806356bad863146103a55780635eebd3d6146103e2576101c2565b8063372f70a711610195578063372f70a71461025d5780633a23cc0a1461029a5780633c258520146102d75780634e43603a1461031f576101c2565b80630b2bf60c146101c75780632e337f5b146101e357806334e8c1a414610220576101c2565b366101c257005b600080fd5b6101e160048036038101906101dc919061343f565b610745565b005b3480156101ef57600080fd5b5061020a600480360381019061020591906134dd565b610938565b60405161021791906135c8565b60405180910390f35b34801561022c57600080fd5b50610247600480360381019061024291906134dd565b6109cf565b60405161025491906135f9565b60405180910390f35b34801561026957600080fd5b50610284600480360381019061027f919061375a565b6109e7565b60405161029191906135f9565b60405180910390f35b3480156102a657600080fd5b506102c160048036038101906102bc91906137f1565b610dc5565b6040516102ce919061398c565b60405180910390f35b3480156102e357600080fd5b506102fe60048036038101906102f991906137f1565b610fca565b6040516103169c9b9a99989796959493929190613a16565b60405180910390f35b34801561032b57600080fd5b50610346600480360381019061034191906134dd565b61111f565b604051610357959493929190613ad7565b60405180910390f35b34801561036c57600080fd5b50610387600480360381019061038291906137f1565b611283565b60405161039c99989796959493929190613b2a565b60405180910390f35b3480156103b157600080fd5b506103cc60048036038101906103c791906134dd565b6113c6565b6040516103d99190613c26565b60405180910390f35b3480156103ee57600080fd5b5061040960048036038101906104049190613c6d565b6114ae565b005b34801561041757600080fd5b506104206115b0565b60405161042d91906135f9565b60405180910390f35b34801561044257600080fd5b5061044b6115b6565b005b34801561045957600080fd5b50610474600480360381019061046f91906137f1565b6115ca565b6040516104819190613db1565b60405180910390f35b34801561049657600080fd5b5061049f6117ed565b6040516104ac91906135f9565b60405180910390f35b3480156104c157600080fd5b506104dc60048036038101906104d7919061343f565b6117f7565b005b3480156104ea57600080fd5b506104f3611944565b6040516105009190613dd3565b60405180910390f35b34801561051557600080fd5b50610530600480360381019061052b91906134dd565b61196d565b60405161053d91906135f9565b60405180910390f35b34801561055257600080fd5b5061056d600480360381019061056891906134dd565b611985565b60405161057a91906135c8565b60405180910390f35b34801561058f57600080fd5b506105aa60048036038101906105a591906137f1565b611a1c565b005b6105c660048036038101906105c191906137f1565b611daa565b005b3480156105d457600080fd5b506105ef60048036038101906105ea91906134dd565b6121f8565b6040516105fc91906135c8565b60405180910390f35b34801561061157600080fd5b5061061a61228f565b60405161062791906135f9565b60405180910390f35b61064a60048036038101906106459190613dee565b612295565b60405161065791906135f9565b60405180910390f35b34801561066c57600080fd5b50610687600480360381019061068291906137f1565b6127ba565b005b34801561069557600080fd5b506106b060048036038101906106ab91906134dd565b61294e565b6040516106c1959493929190613eac565b60405180910390f35b3480156106d657600080fd5b506106f160048036038101906106ec91906134dd565b6129b1565b005b3480156106ff57600080fd5b5061071a60048036038101906107159190613eff565b612a37565b005b34801561072857600080fd5b50610743600480360381019061073e91906137f1565b612b94565b005b60006006600084815260200190815260200160002090508060070160009054906101000a900460ff166107ad576040517f08c379a00000000000000000000000000000000000000000000000000000000081526004016107a490613fb2565b60405180910390fd5b600073ffffffffffffffffffffffffffffffffffffffff168160040160009054906101000a900473ffffffffffffffffffffffffffffffffffffffff1673ffffffffffffffffffffffffffffffffffffffff161415801561080e5750600082115b156108d4578060040160009054906101000a900473ffffffffffffffffffffffffffffffffffffffff1673ffffffffffffffffffffffffffffffffffffffff166323b872dd3330856040518463ffffffff1660e01b815260040161087493929190613fd2565b6020604051808303816000875af1158015610893573d6000803e3d6000fd5b505050506040513d601f19601f820116820180604052508101906108b7919061401e565b508181600a0160008282546108cc919061407a565b925050819055505b60003411156108f957348160090160008282546108f1919061407a565b925050819055505b827f77f2460bc4014658a03824c31329bb19daec9d93da444242d1aa6e889072ad7a348460405161092b9291906140ae565b60405180910390a2505050565b6060600960008373ffffffffffffffffffffffffffffffffffffffff1673ffffffffffffffffffffffffffffffffffffffff1681526020019081526020016000208054806020026020016040519081016040528092919081815260200182805480156109c357602002820191906000526020600020905b8154815260200190600101908083116109af575b50505050509050919050565b600b6020528060005260406000206000915090505481565b60008073ffffffffffffffffffffffffffffffffffffffff168673ffffffffffffffffffffffffffffffffffffffff1603610a57576040517f08c379a0000000000000000000000000000000000000000000000000000000008152600401610a4e90614123565b60405180910390fd5b60008511610a9a576040517f08c379a0000000000000000000000000000000000000000000000000000000008152600401610a919061418f565b60405180910390fd5b600060026000815480929190610aaf906141af565b9190505590506040518061012001604052808281526020013373ffffffffffffffffffffffffffffffffffffffff1681526020018873ffffffffffffffffffffffffffffffffffffffff1681526020018781526020018673ffffffffffffffffffffffffffffffffffffffff16815260200185815260200160001515815260200184815260200142815250600460008381526020019081526020016000206000820151816000015560208201518160010160006101000a81548173ffffffffffffffffffffffffffffffffffffffff021916908373ffffffffffffffffffffffffffffffffffffffff16021790555060408201518160020160006101000a81548173ffffffffffffffffffffffffffffffffffffffff021916908373ffffffffffffffffffffffffffffffffffffffff1602179055506060820151816003015560808201518160040160006101000a81548173ffffffffffffffffffffffffffffffffffffffff021916908373ffffffffffffffffffffffffffffffffffffffff16021790555060a0820151816005019081610c4b9190614403565b5060c08201518160060160006101000a81548160ff02191690831515021790555060e082015181600701556101008201518160080155905050600760003373ffffffffffffffffffffffffffffffffffffffff1673ffffffffffffffffffffffffffffffffffffffff168152602001908152602001600020819080600181540180825580915050600190039060005260206000200160009091909190915055600860008873ffffffffffffffffffffffffffffffffffffffff1673ffffffffffffffffffffffffffffffffffffffff1681526020019081526020016000208190806001815401808255809150506001900390600052602060002001600090919091909150558673ffffffffffffffffffffffffffffffffffffffff163373ffffffffffffffffffffffffffffffffffffffff16827f3fbaae0f1597d7f24bf2231a5fe5248190743aecc5f3da7126965e14e3f1ca4d8987604051610db09291906140ae565b60405180910390a48091505095945050505050565b610dcd613279565b6004600083815260200190815260200160002060405180610120016040529081600082015481526020016001820160009054906101000a900473ffffffffffffffffffffffffffffffffffffffff1673ffffffffffffffffffffffffffffffffffffffff1673ffffffffffffffffffffffffffffffffffffffff1681526020016002820160009054906101000a900473ffffffffffffffffffffffffffffffffffffffff1673ffffffffffffffffffffffffffffffffffffffff1673ffffffffffffffffffffffffffffffffffffffff168152602001600382015481526020016004820160009054906101000a900473ffffffffffffffffffffffffffffffffffffffff1673ffffffffffffffffffffffffffffffffffffffff1673ffffffffffffffffffffffffffffffffffffffff168152602001600582018054610f1290614226565b80601f0160208091040260200160405190810160405280929190818152602001828054610f3e90614226565b8015610f8b5780601f10610f6057610100808354040283529160200191610f8b565b820191906000526020600020905b815481529060010190602001808311610f6e57829003601f168201915b505050505081526020016006820160009054906101000a900460ff16151515158152602001600782015481526020016008820154815250509050919050565b60066020528060005260406000206000915090508060000154908060010160009054906101000a900473ffffffffffffffffffffffffffffffffffffffff16908060020160009054906101000a900473ffffffffffffffffffffffffffffffffffffffff16908060030154908060040160009054906101000a900473ffffffffffffffffffffffffffffffffffffffff16908060050154908060060154908060070160009054906101000a900460ff169080600801805461108a90614226565b80601f01602080910402602001604051908101604052809291908181526020018280546110b690614226565b80156111035780601f106110d857610100808354040283529160200191611103565b820191906000526020600020905b8154815290600101906020018083116110e657829003601f168201915b50505050509080600901549080600a01549080600b015490508c565b6000806000806000600760008773ffffffffffffffffffffffffffffffffffffffff1673ffffffffffffffffffffffffffffffffffffffff16815260200190815260200160002080549050600860008873ffffffffffffffffffffffffffffffffffffffff1673ffffffffffffffffffffffffffffffffffffffff16815260200190815260200160002080549050600a60008973ffffffffffffffffffffffffffffffffffffffff1673ffffffffffffffffffffffffffffffffffffffff16815260200190815260200160002054600b60008a73ffffffffffffffffffffffffffffffffffffffff1673ffffffffffffffffffffffffffffffffffffffff16815260200190815260200160002054600960008b73ffffffffffffffffffffffffffffffffffffffff1673ffffffffffffffffffffffffffffffffffffffff168152602001908152602001600020805490509450945094509450945091939590929450565b60046020528060005260406000206000915090508060000154908060010160009054906101000a900473ffffffffffffffffffffffffffffffffffffffff16908060020160009054906101000a900473ffffffffffffffffffffffffffffffffffffffff16908060030154908060040160009054906101000a900473ffffffffffffffffffffffffffffffffffffffff169080600501805461132490614226565b80601f016020809104026020016040519081016040528092919081815260200182805461135090614226565b801561139d5780601f106113725761010080835404028352916020019161139d565b820191906000526020600020905b81548152906001019060200180831161138057829003601f168201915b5050505050908060060160009054906101000a900460ff16908060070154908060080154905089565b6113ce613309565b600560008373ffffffffffffffffffffffffffffffffffffffff1673ffffffffffffffffffffffffffffffffffffffff1681526020019081526020016000206040518060a00160405290816000820160009054906101000a900460ff16151515158152602001600182015481526020016002820160009054906101000a900473ffffffffffffffffffffffffffffffffffffffff1673ffffffffffffffffffffffffffffffffffffffff1673ffffffffffffffffffffffffffffffffffffffff168152602001600382015481526020016004820154815250509050919050565b60006006600084815260200190815260200160002090503373ffffffffffffffffffffffffffffffffffffffff168160010160009054906101000a900473ffffffffffffffffffffffffffffffffffffffff1673ffffffffffffffffffffffffffffffffffffffff1614611557576040517f08c379a000000000000000000000000000000000000000000000000000000000815260040161154e90614521565b60405180910390fd5b818160070160006101000a81548160ff021916908315150217905550827f6abccd5934f543a8605838d91768257de5521383bdb2aa5f286bc01dc9433563836040516115a39190614541565b60405180910390a2505050565b60025481565b6115be613062565b6115c860006130e9565b565b6115d2613350565b6006600083815260200190815260200160002060405180610180016040529081600082015481526020016001820160009054906101000a900473ffffffffffffffffffffffffffffffffffffffff1673ffffffffffffffffffffffffffffffffffffffff1673ffffffffffffffffffffffffffffffffffffffff1681526020016002820160009054906101000a900473ffffffffffffffffffffffffffffffffffffffff1673ffffffffffffffffffffffffffffffffffffffff1673ffffffffffffffffffffffffffffffffffffffff168152602001600382015481526020016004820160009054906101000a900473ffffffffffffffffffffffffffffffffffffffff1673ffffffffffffffffffffffffffffffffffffffff1673ffffffffffffffffffffffffffffffffffffffff16815260200160058201548152602001600682015481526020016007820160009054906101000a900460ff1615151515815260200160088201805461174690614226565b80601f016020809104026020016040519081016040528092919081815260200182805461177290614226565b80156117bf5780601f10611794576101008083540402835291602001916117bf565b820191906000526020600020905b8154815290600101906020018083116117a257829003601f168201915b5050505050815260200160098201548152602001600a8201548152602001600b820154815250509050919050565b6000600254905090565b60006006600084815260200190815260200160002090503373ffffffffffffffffffffffffffffffffffffffff168160010160009054906101000a900473ffffffffffffffffffffffffffffffffffffffff1673ffffffffffffffffffffffffffffffffffffffff16146118a0576040517f08c379a000000000000000000000000000000000000000000000000000000000815260040161189790614521565b60405180910390fd5b600082146118fe5760006118b782600601546131ad565b9050808310156118fc576040517f08c379a00000000000000000000000000000000000000000000000000000000081526004016118f3906145a8565b60405180910390fd5b505b8181600b0181905550827fab9bfee2e136ce409aa530b138e54b2f00398127fc44d8a4222bc8946100eeeb8360405161193791906135f9565b60405180910390a2505050565b60008060009054906101000a900473ffffffffffffffffffffffffffffffffffffffff16905090565b600a6020528060005260406000206000915090505481565b6060600860008373ffffffffffffffffffffffffffffffffffffffff1673ffffffffffffffffffffffffffffffffffffffff168152602001908152602001600020805480602002602001604051908101604052809291908181526020018280548015611a1057602002820191906000526020600020905b8154815260200190600101908083116119fc575b50505050509050919050565b611a24613222565b60006006600083815260200190815260200160002090503373ffffffffffffffffffffffffffffffffffffffff168160010160009054906101000a900473ffffffffffffffffffffffffffffffffffffffff1673ffffffffffffffffffffffffffffffffffffffff1614611acd576040517f08c379a0000000000000000000000000000000000000000000000000000000008152600401611ac490614521565b60405180910390fd5b60008160070160006101000a81548160ff021916908315150217905550600080600083600901541115611bdd57826009015491506000836009018190555060008360010160009054906101000a900473ffffffffffffffffffffffffffffffffffffffff1673ffffffffffffffffffffffffffffffffffffffff1683604051611b55906145f9565b60006040518083038185875af1925050503d8060008114611b92576040519150601f19603f3d011682016040523d82523d6000602084013e611b97565b606091505b5050905080611bdb576040517f08c379a0000000000000000000000000000000000000000000000000000000008152600401611bd29061465a565b60405180910390fd5b505b600073ffffffffffffffffffffffffffffffffffffffff168360040160009054906101000a900473ffffffffffffffffffffffffffffffffffffffff1673ffffffffffffffffffffffffffffffffffffffff1614158015611c425750600083600a0154115b15611d205782600a01549050600083600a01819055508260040160009054906101000a900473ffffffffffffffffffffffffffffffffffffffff1673ffffffffffffffffffffffffffffffffffffffff1663a9059cbb8460010160009054906101000a900473ffffffffffffffffffffffffffffffffffffffff16836040518363ffffffff1660e01b8152600401611cdb92919061467a565b6020604051808303816000875af1158015611cfa573d6000803e3d6000fd5b505050506040513d601f19601f82011682018060405250810190611d1e919061401e565b505b837fa923c88fcdba3ef914ef2cd253567d255d171ae587e21e1c1cb67c89985b1d8360405160405180910390a26000821180611d5c5750600081115b15611d9c57837f96907d778c1d60986d2a2dfec9bd5f67250747ea3d3367df465da3303d9d64618383604051611d939291906140ae565b60405180910390a25b505050611da7613268565b50565b611db2613222565b60006004600083815260200190815260200160002090508060060160009054906101000a900460ff1615611e1b576040517f08c379a0000000000000000000000000000000000000000000000000000000008152600401611e12906146ef565b60405180910390fd5b6000816003015411611e62576040517f08c379a0000000000000000000000000000000000000000000000000000000008152600401611e599061475b565b60405180910390fd5b600073ffffffffffffffffffffffffffffffffffffffff168160040160009054906101000a900473ffffffffffffffffffffffffffffffffffffffff1673ffffffffffffffffffffffffffffffffffffffff1603611fd65780600301543414611f00576040517f08c379a0000000000000000000000000000000000000000000000000000000008152600401611ef7906147c7565b60405180910390fd5b60008160010160009054906101000a900473ffffffffffffffffffffffffffffffffffffffff1673ffffffffffffffffffffffffffffffffffffffff1634604051611f4a906145f9565b60006040518083038185875af1925050503d8060008114611f87576040519150601f19603f3d011682016040523d82523d6000602084013e611f8c565b606091505b5050905080611fd0576040517f08c379a0000000000000000000000000000000000000000000000000000000008152600401611fc790614833565b60405180910390fd5b506120a4565b8060040160009054906101000a900473ffffffffffffffffffffffffffffffffffffffff1673ffffffffffffffffffffffffffffffffffffffff166323b872dd338360010160009054906101000a900473ffffffffffffffffffffffffffffffffffffffff1684600301546040518463ffffffff1660e01b815260040161205f93929190613fd2565b6020604051808303816000875af115801561207e573d6000803e3d6000fd5b505050506040513d601f19601f820116820180604052508101906120a2919061401e565b505b60018160060160006101000a81548160ff0219169083151502179055508060030154600a60003373ffffffffffffffffffffffffffffffffffffffff1673ffffffffffffffffffffffffffffffffffffffff1681526020019081526020016000206000828254612114919061407a565b925050819055508060030154600b60008360010160009054906101000a900473ffffffffffffffffffffffffffffffffffffffff1673ffffffffffffffffffffffffffffffffffffffff1673ffffffffffffffffffffffffffffffffffffffff1681526020019081526020016000206000828254612192919061407a565b925050819055503373ffffffffffffffffffffffffffffffffffffffff16827fa6abfda59e12fa300d17e1aa76bd3233eaf23ee4feb4b02b6516ad1d60be840083600301546040516121e491906135f9565b60405180910390a3506121f5613268565b50565b6060600760008373ffffffffffffffffffffffffffffffffffffffff1673ffffffffffffffffffffffffffffffffffffffff16815260200190815260200160002080548060200260200160405190810160405280929190818152602001828054801561228357602002820191906000526020600020905b81548152602001906001019080831161226f575b50505050509050919050565b60035481565b60008073ffffffffffffffffffffffffffffffffffffffff168873ffffffffffffffffffffffffffffffffffffffff1603612305576040517f08c379a00000000000000000000000000000000000000000000000000000000081526004016122fc90614123565b60405180910390fd5b60008711612348576040517f08c379a000000000000000000000000000000000000000000000000000000000815260040161233f9061418f565b60405180910390fd5b600082146123a257600061235b866131ad565b9050808310156123a0576040517f08c379a0000000000000000000000000000000000000000000000000000000008152600401612397906145a8565b60405180910390fd5b505b600073ffffffffffffffffffffffffffffffffffffffff168673ffffffffffffffffffffffffffffffffffffffff16141580156123df5750600083115b15612466578573ffffffffffffffffffffffffffffffffffffffff166323b872dd3330866040518463ffffffff1660e01b815260040161242193929190613fd2565b6020604051808303816000875af1158015612440573d6000803e3d6000fd5b505050506040513d601f19601f82011682018060405250810190612464919061401e565b505b60006003600081548092919061247b906141af565b9190505590506040518061018001604052808281526020013373ffffffffffffffffffffffffffffffffffffffff1681526020018a73ffffffffffffffffffffffffffffffffffffffff1681526020018981526020018873ffffffffffffffffffffffffffffffffffffffff16815260200187426124f9919061407a565b815260200187815260200160011515815260200186815260200134815260200185815260200184815250600660008381526020019081526020016000206000820151816000015560208201518160010160006101000a81548173ffffffffffffffffffffffffffffffffffffffff021916908373ffffffffffffffffffffffffffffffffffffffff16021790555060408201518160020160006101000a81548173ffffffffffffffffffffffffffffffffffffffff021916908373ffffffffffffffffffffffffffffffffffffffff1602179055506060820151816003015560808201518160040160006101000a81548173ffffffffffffffffffffffffffffffffffffffff021916908373ffffffffffffffffffffffffffffffffffffffff16021790555060a0820151816005015560c0820151816006015560e08201518160070160006101000a81548160ff0219169083151502179055506101008201518160080190816126699190614403565b50610120820151816009015561014082015181600a015561016082015181600b0155905050600960003373ffffffffffffffffffffffffffffffffffffffff1673ffffffffffffffffffffffffffffffffffffffff1681526020019081526020016000208190806001815401808255809150506001900390600052602060002001600090919091909150558873ffffffffffffffffffffffffffffffffffffffff163373ffffffffffffffffffffffffffffffffffffffff16827fb272b7ba744e64ed131e7fd6a1abcb3ff4d3541979a489a829f325c0a243ad098b8a6040516127549291906140ae565b60405180910390a4600034118061276b5750600084115b156127ab57807f77f2460bc4014658a03824c31329bb19daec9d93da444242d1aa6e889072ad7a34866040516127a29291906140ae565b60405180910390a25b80915050979650505050505050565b60006004600083815260200190815260200160002090503373ffffffffffffffffffffffffffffffffffffffff168160010160009054906101000a900473ffffffffffffffffffffffffffffffffffffffff1673ffffffffffffffffffffffffffffffffffffffff1614612863576040517f08c379a000000000000000000000000000000000000000000000000000000000815260040161285a9061489f565b60405180910390fd5b8060060160009054906101000a900460ff16156128b5576040517f08c379a00000000000000000000000000000000000000000000000000000000081526004016128ac9061490b565b60405180910390fd5b60008160030154116128fc576040517f08c379a00000000000000000000000000000000000000000000000000000000081526004016128f39061499d565b60405180910390fd5b600081600301819055503373ffffffffffffffffffffffffffffffffffffffff16827f1893bd55c53ca5d28463267b3794ea27b1c3fc3b0cc5f86e0c5b613ad4156f0860405160405180910390a35050565b60056020528060005260406000206000915090508060000160009054906101000a900460ff16908060010154908060020160009054906101000a900473ffffffffffffffffffffffffffffffffffffffff16908060030154908060040154905085565b6129b9613062565b600073ffffffffffffffffffffffffffffffffffffffff168173ffffffffffffffffffffffffffffffffffffffff1603612a2b5760006040517f1e4fbdf7000000000000000000000000000000000000000000000000000000008152600401612a229190613dd3565b60405180910390fd5b612a34816130e9565b50565b6040518060a0016040528085151581526020018481526020018373ffffffffffffffffffffffffffffffffffffffff1681526020018281526020016000815250600560003373ffffffffffffffffffffffffffffffffffffffff1673ffffffffffffffffffffffffffffffffffffffff16815260200190815260200160002060008201518160000160006101000a81548160ff0219169083151502179055506020820151816001015560408201518160020160006101000a81548173ffffffffffffffffffffffffffffffffffffffff021916908373ffffffffffffffffffffffffffffffffffffffff16021790555060608201518160030155608082015181600401559050503373ffffffffffffffffffffffffffffffffffffffff167fd8e76f77a7d49cfb61cad9d5b13dbd242c96a8b16754cd33fe2c400a0fef9e068585604051612b869291906149bd565b60405180910390a250505050565b612b9c613222565b60006006600083815260200190815260200160002090508060070160009054906101000a900460ff16612c04576040517f08c379a0000000000000000000000000000000000000000000000000000000008152600401612bfb90614a32565b60405180910390fd5b8060050154421015612c4b576040517f08c379a0000000000000000000000000000000000000000000000000000000008152600401612c4290614a9e565b60405180910390fd5b600081600b015414158015612c64575080600b01544210155b15612cb95760008160070160006101000a81548160ff021916908315150217905550817fa923c88fcdba3ef914ef2cd253567d255d171ae587e21e1c1cb67c89985b1d8360405160405180910390a250613057565b600073ffffffffffffffffffffffffffffffffffffffff168160040160009054906101000a900473ffffffffffffffffffffffffffffffffffffffff1673ffffffffffffffffffffffffffffffffffffffff1603612e5557806003015481600901541015612d5c576040517f08c379a0000000000000000000000000000000000000000000000000000000008152600401612d5390614b0a565b60405180910390fd5b8060030154816009016000828254612d749190614b2a565b9250508190555060008160020160009054906101000a900473ffffffffffffffffffffffffffffffffffffffff1673ffffffffffffffffffffffffffffffffffffffff168260030154604051612dc9906145f9565b60006040518083038185875af1925050503d8060008114612e06576040519150601f19603f3d011682016040523d82523d6000602084013e612e0b565b606091505b5050905080612e4f576040517f08c379a0000000000000000000000000000000000000000000000000000000008152600401612e4690614baa565b60405180910390fd5b50612f8b565b806003015481600a01541015612ea0576040517f08c379a0000000000000000000000000000000000000000000000000000000008152600401612e9790614c16565b60405180910390fd5b806003015481600a016000828254612eb89190614b2a565b925050819055508060040160009054906101000a900473ffffffffffffffffffffffffffffffffffffffff1673ffffffffffffffffffffffffffffffffffffffff1663a9059cbb8260020160009054906101000a900473ffffffffffffffffffffffffffffffffffffffff1683600301546040518363ffffffff1660e01b8152600401612f4692919061467a565b6020604051808303816000875af1158015612f65573d6000803e3d6000fd5b505050506040513d601f19601f82011682018060405250810190612f89919061401e565b505b806006015442612f9b919061407a565b81600501819055508060020160009054906101000a900473ffffffffffffffffffffffffffffffffffffffff1673ffffffffffffffffffffffffffffffffffffffff168160010160009054906101000a900473ffffffffffffffffffffffffffffffffffffffff1673ffffffffffffffffffffffffffffffffffffffff16837fd83b8695535cf537e03c3a27451908aa08781afc5439a3193e1691a142d3728e846003015460405161304d91906135f9565b60405180910390a4505b61305f613268565b50565b61306a613271565b73ffffffffffffffffffffffffffffffffffffffff16613088611944565b73ffffffffffffffffffffffffffffffffffffffff16146130e7576130ab613271565b6040517f118cdaa70000000000000000000000000000000000000000000000000000000081526004016130de9190613dd3565b60405180910390fd5b565b60008060009054906101000a900473ffffffffffffffffffffffffffffffffffffffff169050816000806101000a81548173ffffffffffffffffffffffffffffffffffffffff021916908373ffffffffffffffffffffffffffffffffffffffff1602179055508173ffffffffffffffffffffffffffffffffffffffff168173ffffffffffffffffffffffffffffffffffffffff167f8be0079c531659141344cd1fd0a4f28419497f9722a3daafe3b4186f6b6457e060405160405180910390a35050565b6000603c82116131cb576078426131c4919061407a565b905061321d565b6201518082116131eb5762015180426131e4919061407a565b905061321d565b62093a80821161320b57620a8c0042613204919061407a565b905061321d565b6228de804261321a919061407a565b90505b919050565b60026001540361325e576040517f3ee5aeb500000000000000000000000000000000000000000000000000000000815260040160405180910390fd5b6002600181905550565b60018081905550565b600033905090565b60405180610120016040528060008152602001600073ffffffffffffffffffffffffffffffffffffffff168152602001600073ffffffffffffffffffffffffffffffffffffffff16815260200160008152602001600073ffffffffffffffffffffffffffffffffffffffff1681526020016060815260200160001515815260200160008152602001600081525090565b6040518060a0016040528060001515815260200160008152602001600073ffffffffffffffffffffffffffffffffffffffff16815260200160008152602001600081525090565b60405180610180016040528060008152602001600073ffffffffffffffffffffffffffffffffffffffff168152602001600073ffffffffffffffffffffffffffffffffffffffff16815260200160008152602001600073ffffffffffffffffffffffffffffffffffffffff1681526020016000815260200160008152602001600015158152602001606081526020016000815260200160008152602001600081525090565b6000604051905090565b600080fd5b600080fd5b6000819050919050565b61341c81613409565b811461342757600080fd5b50565b60008135905061343981613413565b92915050565b60008060408385031215613456576134556133ff565b5b60006134648582860161342a565b92505060206134758582860161342a565b9150509250929050565b600073ffffffffffffffffffffffffffffffffffffffff82169050919050565b60006134aa8261347f565b9050919050565b6134ba8161349f565b81146134c557600080fd5b50565b6000813590506134d7816134b1565b92915050565b6000602082840312156134f3576134f26133ff565b5b6000613501848285016134c8565b91505092915050565b600081519050919050565b600082825260208201905092915050565b6000819050602082019050919050565b61353f81613409565b82525050565b60006135518383613536565b60208301905092915050565b6000602082019050919050565b60006135758261350a565b61357f8185613515565b935061358a83613526565b8060005b838110156135bb5781516135a28882613545565b97506135ad8361355d565b92505060018101905061358e565b5085935050505092915050565b600060208201905081810360008301526135e2818461356a565b905092915050565b6135f381613409565b82525050565b600060208201905061360e60008301846135ea565b92915050565b600080fd5b600080fd5b6000601f19601f8301169050919050565b7f4e487b7100000000000000000000000000000000000000000000000000000000600052604160045260246000fd5b6136678261361e565b810181811067ffffffffffffffff821117156136865761368561362f565b5b80604052505050565b60006136996133f5565b90506136a5828261365e565b919050565b600067ffffffffffffffff8211156136c5576136c461362f565b5b6136ce8261361e565b9050602081019050919050565b82818337600083830152505050565b60006136fd6136f8846136aa565b61368f565b90508281526020810184848401111561371957613718613619565b5b6137248482856136db565b509392505050565b600082601f83011261374157613740613614565b5b81356137518482602086016136ea565b91505092915050565b600080600080600060a08688031215613776576137756133ff565b5b6000613784888289016134c8565b95505060206137958882890161342a565b94505060406137a6888289016134c8565b935050606086013567ffffffffffffffff8111156137c7576137c6613404565b5b6137d38882890161372c565b92505060806137e48882890161342a565b9150509295509295909350565b600060208284031215613807576138066133ff565b5b60006138158482850161342a565b91505092915050565b6138278161349f565b82525050565b600081519050919050565b600082825260208201905092915050565b60005b8381101561386757808201518184015260208101905061384c565b60008484015250505050565b600061387e8261382d565b6138888185613838565b9350613898818560208601613849565b6138a18161361e565b840191505092915050565b60008115159050919050565b6138c1816138ac565b82525050565b6000610120830160008301516138e06000860182613536565b5060208301516138f3602086018261381e565b506040830151613906604086018261381e565b5060608301516139196060860182613536565b50608083015161392c608086018261381e565b5060a083015184820360a08601526139448282613873565b91505060c083015161395960c08601826138b8565b5060e083015161396c60e0860182613536565b50610100830151613981610100860182613536565b508091505092915050565b600060208201905081810360008301526139a681846138c7565b905092915050565b6139b78161349f565b82525050565b6139c6816138ac565b82525050565b600082825260208201905092915050565b60006139e88261382d565b6139f281856139cc565b9350613a02818560208601613849565b613a0b8161361e565b840191505092915050565b600061018082019050613a2c600083018f6135ea565b613a39602083018e6139ae565b613a46604083018d6139ae565b613a53606083018c6135ea565b613a60608083018b6139ae565b613a6d60a083018a6135ea565b613a7a60c08301896135ea565b613a8760e08301886139bd565b818103610100830152613a9a81876139dd565b9050613aaa6101208301866135ea565b613ab86101408301856135ea565b613ac66101608301846135ea565b9d9c50505050505050505050505050565b600060a082019050613aec60008301886135ea565b613af960208301876135ea565b613b0660408301866135ea565b613b1360608301856135ea565b613b2060808301846135ea565b9695505050505050565b600061012082019050613b40600083018c6135ea565b613b4d602083018b6139ae565b613b5a604083018a6139ae565b613b6760608301896135ea565b613b7460808301886139ae565b81810360a0830152613b8681876139dd565b9050613b9560c08301866139bd565b613ba260e08301856135ea565b613bb06101008301846135ea565b9a9950505050505050505050565b60a082016000820151613bd460008501826138b8565b506020820151613be76020850182613536565b506040820151613bfa604085018261381e565b506060820151613c0d6060850182613536565b506080820151613c206080850182613536565b50505050565b600060a082019050613c3b6000830184613bbe565b92915050565b613c4a816138ac565b8114613c5557600080fd5b50565b600081359050613c6781613c41565b92915050565b60008060408385031215613c8457613c836133ff565b5b6000613c928582860161342a565b9250506020613ca385828601613c58565b9150509250929050565b600061018083016000830151613cc66000860182613536565b506020830151613cd9602086018261381e565b506040830151613cec604086018261381e565b506060830151613cff6060860182613536565b506080830151613d12608086018261381e565b5060a0830151613d2560a0860182613536565b5060c0830151613d3860c0860182613536565b5060e0830151613d4b60e08601826138b8565b50610100830151848203610100860152613d658282613873565b915050610120830151613d7c610120860182613536565b50610140830151613d91610140860182613536565b50610160830151613da6610160860182613536565b508091505092915050565b60006020820190508181036000830152613dcb8184613cad565b905092915050565b6000602082019050613de860008301846139ae565b92915050565b600080600080600080600060e0888a031215613e0d57613e0c6133ff565b5b6000613e1b8a828b016134c8565b9750506020613e2c8a828b0161342a565b9650506040613e3d8a828b016134c8565b9550506060613e4e8a828b0161342a565b945050608088013567ffffffffffffffff811115613e6f57613e6e613404565b5b613e7b8a828b0161372c565b93505060a0613e8c8a828b0161342a565b92505060c0613e9d8a828b0161342a565b91505092959891949750929550565b600060a082019050613ec160008301886139bd565b613ece60208301876135ea565b613edb60408301866139ae565b613ee860608301856135ea565b613ef560808301846135ea565b9695505050505050565b60008060008060808587031215613f1957613f186133ff565b5b6000613f2787828801613c58565b9450506020613f388782880161342a565b9350506040613f49878288016134c8565b9250506060613f5a8782880161342a565b91505092959194509250565b7f4167656e74206e6f742061637469766500000000000000000000000000000000600082015250565b6000613f9c6010836139cc565b9150613fa782613f66565b602082019050919050565b60006020820190508181036000830152613fcb81613f8f565b9050919050565b6000606082019050613fe760008301866139ae565b613ff460208301856139ae565b61400160408301846135ea565b949350505050565b60008151905061401881613c41565b92915050565b600060208284031215614034576140336133ff565b5b600061404284828501614009565b91505092915050565b7f4e487b7100000000000000000000000000000000000000000000000000000000600052601160045260246000fd5b600061408582613409565b915061409083613409565b92508282019050808211156140a8576140a761404b565b5b92915050565b60006040820190506140c360008301856135ea565b6140d060208301846135ea565b9392505050565b7f496e76616c696420726563697069656e74000000000000000000000000000000600082015250565b600061410d6011836139cc565b9150614118826140d7565b602082019050919050565b6000602082019050818103600083015261413c81614100565b9050919050565b7f416d6f756e74206d7573742062652067726561746572207468616e2030000000600082015250565b6000614179601d836139cc565b915061418482614143565b602082019050919050565b600060208201905081810360008301526141a88161416c565b9050919050565b60006141ba82613409565b91507fffffffffffffffffffffffffffffffffffffffffffffffffffffffffffffffff82036141ec576141eb61404b565b5b600182019050919050565b7f4e487b7100000000000000000000000000000000000000000000000000000000600052602260045260246000fd5b6000600282049050600182168061423e57607f821691505b602082108103614251576142506141f7565b5b50919050565b60008190508160005260206000209050919050565b60006020601f8301049050919050565b600082821b905092915050565b6000600883026142b97fffffffffffffffffffffffffffffffffffffffffffffffffffffffffffffffff8261427c565b6142c3868361427c565b95508019841693508086168417925050509392505050565b6000819050919050565b60006143006142fb6142f684613409565b6142db565b613409565b9050919050565b6000819050919050565b61431a836142e5565b61432e61432682614307565b848454614289565b825550505050565b600090565b614343614336565b61434e818484614311565b505050565b5b818110156143725761436760008261433b565b600181019050614354565b5050565b601f8211156143b75761438881614257565b6143918461426c565b810160208510156143a0578190505b6143b46143ac8561426c565b830182614353565b50505b505050565b600082821c905092915050565b60006143da600019846008026143bc565b1980831691505092915050565b60006143f383836143c9565b9150826002028217905092915050565b61440c8261382d565b67ffffffffffffffff8111156144255761442461362f565b5b61442f8254614226565b61443a828285614376565b600060209050601f83116001811461446d576000841561445b578287015190505b61446585826143e7565b8655506144cd565b601f19841661447b86614257565b60005b828110156144a35784890151825560018201915060208501945060208101905061447e565b868310156144c057848901516144bc601f8916826143c9565b8355505b6001600288020188555050505b505050505050565b7f4e6f74206f776e65720000000000000000000000000000000000000000000000600082015250565b600061450b6009836139cc565b9150614516826144d5565b602082019050919050565b6000602082019050818103600083015261453a816144fe565b9050919050565b600060208201905061455660008301846139bd565b92915050565b7f456e64206461746520746f6f20736f6f6e20666f7220696e74657276616c0000600082015250565b6000614592601e836139cc565b915061459d8261455c565b602082019050919050565b600060208201905081810360008301526145c181614585565b9050919050565b600081905092915050565b50565b60006145e36000836145c8565b91506145ee826145d3565b600082019050919050565b6000614604826145d6565b9150819050919050565b7f526566756e64206661696c656400000000000000000000000000000000000000600082015250565b6000614644600d836139cc565b915061464f8261460e565b602082019050919050565b6000602082019050818103600083015261467381614637565b9050919050565b600060408201905061468f60008301856139ae565b61469c60208301846135ea565b9392505050565b7f416c726561647920706169640000000000000000000000000000000000000000600082015250565b60006146d9600c836139cc565b91506146e4826146a3565b602082019050919050565b60006020820190508181036000830152614708816146cc565b9050919050565b7f496e766f69636520646f6573206e6f7420657869737400000000000000000000600082015250565b60006147456016836139cc565b91506147508261470f565b602082019050919050565b6000602082019050818103600083015261477481614738565b9050919050565b7f496e636f727265637420616d6f756e7400000000000000000000000000000000600082015250565b60006147b16010836139cc565b91506147bc8261477b565b602082019050919050565b600060208201905081810360008301526147e0816147a4565b9050919050565b7f4661696c656420746f2073656e64204d4e540000000000000000000000000000600082015250565b600061481d6012836139cc565b9150614828826147e7565b602082019050919050565b6000602082019050818103600083015261484c81614810565b9050919050565b7f4e6f7420696e766f6963652063726561746f7200000000000000000000000000600082015250565b60006148896013836139cc565b915061489482614853565b602082019050919050565b600060208201905081810360008301526148b88161487c565b9050919050565b7f496e766f69636520616c72656164792070616964000000000000000000000000600082015250565b60006148f56014836139cc565b9150614900826148bf565b602082019050919050565b60006020820190508181036000830152614924816148e8565b9050919050565b7f496e766f69636520646f6573206e6f74206578697374206f7220616c7265616460008201527f792063616e63656c6c6564000000000000000000000000000000000000000000602082015250565b6000614987602b836139cc565b91506149928261492b565b604082019050919050565b600060208201905081810360008301526149b68161497a565b9050919050565b60006040820190506149d260008301856139bd565b6149df60208301846135ea565b9392505050565b7f5061796d656e74206e6f74206163746976650000000000000000000000000000600082015250565b6000614a1c6012836139cc565b9150614a27826149e6565b602082019050919050565b60006020820190508181036000830152614a4b81614a0f565b9050919050565b7f4e6f742079657420647565000000000000000000000000000000000000000000600082015250565b6000614a88600b836139cc565b9150614a9382614a52565b602082019050919050565b60006020820190508181036000830152614ab781614a7b565b9050919050565b7f496e73756666696369656e74206167656e742062616c616e6365000000000000600082015250565b6000614af4601a836139cc565b9150614aff82614abe565b602082019050919050565b60006020820190508181036000830152614b2381614ae7565b9050919050565b6000614b3582613409565b9150614b4083613409565b9250828203905081811115614b5857614b5761404b565b5b92915050565b7f4661696c656420746f2073656e64000000000000000000000000000000000000600082015250565b6000614b94600e836139cc565b9150614b9f82614b5e565b602082019050919050565b60006020820190508181036000830152614bc381614b87565b9050919050565b7f496e73756666696369656e7420746f6b656e2062616c616e6365000000000000600082015250565b6000614c00601a836139cc565b9150614c0b82614bca565b602082019050919050565b60006020820190508181036000830152614c2f81614bf3565b905091905056fea2646970667358221220775204b7e3976adc88879fac7fcd58927f906e89b75481f7b4419597cf68322864736f6c634300081b0033",
  "linkReferences": {},
  "deployedLinkReferences": {}
}