{
  "_format": "hh-sol-artifact-1",
  "contractName": "AgentPay",
  "sourceName": "contracts/AgentPay.sol",
  "abi": [
    {
      "inputs": [],
      "stateMutability": "nonpayable",
      "type": "constructor"
    },
    {
      "inputs": [
        {
          "internalType": "address",
          "name": "owner",
          "type": "address"
        }
      ],
      "name": "OwnableInvalidOwner",
      "type": "error"
    },
    {
      "inputs": [
        {
          "internalType": "address",
          "name": "account",
          "type": "address"
        }
      ],
      "name": "OwnableUnauthorizedAccount",
      "type": "error"
    },
    {
      "inputs": [],
      "name": "ReentrancyGuardReentrantCall",
      "type": "error"
    },
    {
      "anonymous": false,
      "inputs": [
        {
          "indexed": true,
          "internalType": "address",
          "name": "user",
          "type": "address"
        },
        {
          "indexed": false,
          "internalType": "bool",
          "name": "isActive",
          "type": "bool"
        },
        {
          "indexed": false,
          "internalType": "uint256",
          "name": "limitPerTx",
          "type": "uint256"
        }
      ],
      "name": "AgentConfigured",
      "type": "event"
    },
    {
      "anonymous": false,
      "inputs": [
        {
          "indexed": true,
          "internalType": "uint256",
          "name": "id",
          "type": "uint256"
        },
        {
          "indexed": false,
          "internalType": "bool",
          "name": "isActive",
          "type": "bool"
        }
      ],
      "name": "AgentStatusUpdated",
      "type": "event"
    },
    {
      "anonymous": false,
      "inputs": [
        {
          "indexed": true,
          "internalType": "uint256",
          "name": "id",
          "type": "uint256"
        },
        {
          "indexed": false,
          "internalType": "uint256",
          "name": "amount",
          "type": "uint256"
        },
        {
          "indexed": false,
          "internalType": "uint256",
          "name": "tokenAmount",
          "type": "uint256"
        }
      ],
      "name": "AgentTopUp",
      "type": "event"
    },
    {
      "anonymous": false,
      "inputs": [
        {
          "indexed": true,
          "internalType": "uint256",
          "name": "id",
          "type": "uint256"
        },
        {
          "indexed": false,
          "internalType": "uint256",
          "name": "amount",
          "type": "uint256"
        },
        {
          "indexed": false,
          "internalType": "uint256",
          "name": "tokenAmount",
          "type": "uint256"
        }
      ],
      "name": "AgentWithdrawn",
      "type": "event"
    },
    {
      "anonymous": false,
      "inputs": [
        {
          "indexed": true,
          "internalType": "uint256",
          "name": "id",
          "type": "uint256"
        },
        {
          "indexed": true,
          "internalType": "address",
          "name": "creator",
          "type": "address"
        }
      ],
      "name": "InvoiceCancelled",
      "type": "event"
    },
    {
      "anonymous": false,
      "inputs": [
        {
          "indexed": true,
          "internalType": "uint256",
          "name": "id",
          "type": "uint256"
        },
        {
          "indexed": true,
          "internalType": "address",
          "name": "creator",
          "type": "address"
        },
        {
          "indexed": true,
          "internalType": "address",
          "name": "recipient",
          "type": "address"
        },
        {
          "indexed": false,
          "internalType": "uint256",
          "name": "amount",
          "type": "uint256"
        },
        {
          "indexed": false,
          "internalType": "uint256",
          "name": "dueDate",
          "type": "uint256"
        }
      ],
      "name": "InvoiceCreated",
      "type": "event"
    },
    {
      "anonymous": false,
      "inputs": [
        {
          "indexed": true,
          "internalType": "uint256",
          "name": "id",
          "type": "uint256"
        },
        {
          "indexed": true,
          "internalType": "address",
          "name": "payer",
          "type": "address"
        },
        {
          "indexed": false,
          "internalType": "uint256",
          "name": "amount",
          "type": "uint256"
        }
      ],
      "name": "InvoicePaid",
      "type": "event"
    },
    {
      "anonymous": false,
      "inputs": [
        {
          "indexed": true,
          "internalType": "address",
          "name": "previousOwner",
          "type": "address"
        },
        {
          "indexed": true,
          "internalType": "address",
          "name": "newOwner",
          "type": "address"
        }
      ],
      "name": "OwnershipTransferred",
      "type": "event"
    },
    {
      "anonymous": false,
      "inputs": [
        {
          "indexed": true,
          "internalType": "uint256",
          "name": "id",
          "type": "uint256"
        }
      ],
      "name": "ScheduledPaymentCancelled",
      "type": "event"
    },
    {
      "anonymous": false,
      "inputs": [
        {
          "indexed": true,
          "internalType": "uint256",
          "name": "id",
          "type": "uint256"
        },
        {
          "indexed": true,
          "internalType": "address",
          "name": "from",
          "type": "address"
        },
        {
          "indexed": true,
          "internalType": "address",
          "name": "to",
          "type": "address"
        },
        {
          "indexed": false,
          "internalType": "uint256",
          "name": "amount",
          "type": "uint256"
        },
        {
          "indexed": false,
          "internalType": "uint256",
          "name": "interval",
          "type": "uint256"
        }
      ],
      "name": "ScheduledPaymentCreated",
      "type": "event"
    },
    {
      "anonymous": false,
      "inputs": [
        {
          "indexed": true,
          "internalType": "uint256",
          "name": "id",
          "type": "uint256"
        },
        {
          "indexed": true,
          "internalType": "address",
          "name": "from",
          "type": "address"
        },
        {
          "indexed": true,
          "internalType": "address",
          "name": "to",
          "type": "address"
        },
        {
          "indexed": false,
          "internalType": "uint256",
          "name": "amount",
          "type": "uint256"
        }
      ],
      "name": "ScheduledPaymentExecuted",
      "type": "event"
    },
    {
      "inputs": [
        {
          "internalType": "address",
          "name": "",
          "type": "address"
        }
      ],
      "name": "agentConfigs",
      "outputs": [
        {
          "internalType": "bool",
          "name": "isActive",
          "type": "bool"
        },
        {
          "internalType": "uint256",
          "name": "limitPerTx",
          "type": "uint256"
        },
        {
          "internalType": "address",
          "name": "allowedRecipient",
          "type": "address"
        },
        {
          "internalType": "uint256",
          "name": "interval",
          "type": "uint256"
        },
        {
          "internalType": "uint256",
          "name": "lastExecuted",
          "type": "uint256"
        }
      ],
      "stateMutability": "view",
      "type": "function"
    },
    {
      "inputs": [
        {
          "internalType": "uint256",
          "name": "_id",
          "type": "uint256"
        }
      ],
      "name": "cancelInvoice",
      "outputs": [],
      "stateMutability": "nonpayable",
      "type": "function"
    },
    {
      "inputs": [
        {
          "internalType": "uint256",
          "name": "_id",
          "type": "uint256"
        }
      ],
      "name": "cancelScheduledPayment",
      "outputs": [],
      "stateMutability": "nonpayable",
      "type": "function"
    },
    {
      "inputs": [
        {
          "internalType": "bool",
          "name": "_isActive",
          "type": "bool"
        },
        {
          "internalType": "uint256",
          "name": "_limitPerTx",
          "type": "uint256"
        },
        {
          "internalType": "address",
          "name": "_allowedRecipient",
          "type": "address"
        },
        {
          "internalType": "uint256",
          "name": "_interval",
          "type": "uint256"
        }
      ],
      "name": "configureAgent",
      "outputs": [],
      "stateMutability": "nonpayable",
      "type": "function"
    },
    {
      "inputs": [
        {
          "internalType": "address",
          "name": "_recipient",
          "type": "address"
        },
        {
          "internalType": "uint256",
          "name": "_amount",
          "type": "uint256"
        },
        {
          "internalType": "address",
          "name": "_token",
          "type": "address"
        },
        {
          "internalType": "string",
          "name": "_metadataHash",
          "type": "string"
        },
        {
          "internalType": "uint256",
          "name": "_dueDate",
          "type": "uint256"
        }
      ],
      "name": "createInvoice",
      "outputs": [
        {
          "internalType": "uint256",
          "name": "",
          "type": "uint256"
        }
      ],
      "stateMutability": "nonpayable",
      "type": "function"
    },
    {
      "inputs": [
        {
          "internalType": "address",
          "name": "_to",
          "type": "address"
        },
        {
          "internalType": "uint256",
          "name": "_amount",
          "type": "uint256"
        },
        {
          "internalType": "address",
          "name": "_token",
          "type": "address"
        },
        {
          "internalType": "uint256",
          "name": "_interval",
          "type": "uint256"
        },
        {
          "internalType": "string",
          "name": "_description",
          "type": "string"
        },
        {
          "internalType": "uint256",
          "name": "_initialTokenDeposit",
          "type": "uint256"
        }
      ],
      "name": "createScheduledPayment",
      "outputs": [
        {
          "internalType": "uint256",
          "name": "",
          "type": "uint256"
        }
      ],
      "stateMutability": "payable",
      "type": "function"
    },
    {
      "inputs": [
        {
          "internalType": "uint256",
          "name": "_id",
          "type": "uint256"
        }
      ],
      "name": "executeScheduledPayment",
      "outputs": [],
      "stateMutability": "nonpayable",
      "type": "function"
    },
    {
      "inputs": [
        {
          "internalType": "address",
          "name": "_user",
          "type": "address"
        }
      ],
      "name": "getAgentConfig",
      "outputs": [
        {
          "components": [
            {
              "internalType": "bool",
              "name": "isActive",
              "type": "bool"
            },
            {
              "internalType": "uint256",
              "name": "limitPerTx",
              "type": "uint256"
            },
            {
              "internalType": "address",
              "name": "allowedRecipient",
              "type": "address"
            },
            {
              "internalType": "uint256",
              "name": "interval",
              "type": "uint256"
            },
            {
              "internalType": "uint256",
              "name": "lastExecuted",
              "type": "uint256"
            }
          ],
          "internalType": "struct AgentPay.AgentConfig",
          "name": "",
          "type": "tuple"
        }
      ],
      "stateMutability": "view",
      "type": "function"
    },
    {
      "inputs": [
        {
          "internalType": "uint256",
          "name": "_id",
          "type": "uint256"
        }
      ],
      "name": "getInvoice",
      "outputs": [
        {
          "components": [
            {
              "internalType": "uint256",
              "name": "id",
              "type": "uint256"
            },
            {
              "internalType": "address",
              "name": "creator",
              "type": "address"
            },
            {
              "internalType": "address",
              "name": "recipient",
              "type": "address"
            },
            {
              "internalType": "uint256",
              "name": "amount",
              "type": "uint256"
            },
            {
              "internalType": "address",
              "name": "token",
              "type": "address"
            },
            {
              "internalType": "string",
              "name": "metadataHash",
              "type": "string"
            },
            {
              "internalType": "bool",
              "name": "paid",
              "type": "bool"
            },
            {
              "internalType": "uint256",
              "name": "dueDate",
              "type": "uint256"
            },
            {
              "internalType": "uint256",
              "name": "createdAt",
              "type": "uint256"
            }
          ],
          "internalType": "struct AgentPay.Invoice",
          "name": "",
          "type": "tuple"
        }
      ],
      "stateMutability": "view",
      "type": "function"
    },
    {
      "inputs": [],
      "name": "getInvoiceCount",
      "outputs": [
        {
          "internalType": "uint256",
          "name": "",
          "type": "uint256"
        }
      ],
      "stateMutability": "view",
      "type": "function"
    },
    {
      "inputs": [
        {
          "internalType": "uint256",
          "name": "_id",
          "type": "uint256"
        }
      ],
      "name": "getScheduledPayment",
      "outputs": [
        {
          "components": [
            {
              "internalType": "uint256",
              "name": "id",
              "type": "uint256"
            },
            {
              "internalType": "address",
              "name": "from",
              "type": "address"
            },
            {
              "internalType": "address",
              "name": "to",
              "type": "address"
            },
            {
              "internalType": "uint256",
              "name": "amount",
              "type": "uint256"
            },
            {
              "internalType": "address",
              "name": "token",
              "type": "address"
            },
            {
              "internalType": "uint256",
              "name": "nextExecution",
              "type": "uint256"
            },
            {
              "internalType": "uint256",
              "name": "interval",
              "type": "uint256"
            },
            {
              "internalType": "bool",
              "name": "isActive",
              "type": "bool"
            },
            {
              "internalType": "string",
              "name": "description",
              "type": "string"
            },
            {
              "internalType": "uint256",
              "name": "balance",
              "type": "uint256"
            },
            {
              "internalType": "uint256",
              "name": "tokenBalance",
              "type": "uint256"
            }
          ],
          "internalType": "struct AgentPay.ScheduledPayment",
          "name": "",
          "type": "tuple"
        }
      ],
      "stateMutability": "view",
      "type": "function"
    },
    {
      "inputs": [
        {
          "internalType": "address",
          "name": "_user",
          "type": "address"
        }
      ],
      "name": "getUserCreatedInvoices",
      "outputs": [
        {
          "internalType": "uint256[]",
          "name": "",
          "type": "uint256[]"
        }
      ],
      "stateMutability": "view",
      "type": "function"
    },
    {
      "inputs": [
        {
          "internalType": "address",
          "name": "_user",
          "type": "address"
        }
      ],
      "name": "getUserReceivedInvoices",
      "outputs": [
        {
          "internalType": "uint256[]",
          "name": "",
          "type": "uint256[]"
        }
      ],
      "stateMutability": "view",
      "type": "function"
    },
    {
      "inputs": [
        {
          "internalType": "address",
          "name": "_user",
          "type": "address"
        }
      ],
      "name": "getUserScheduledPayments",
      "outputs": [
        {
          "internalType": "uint256[]",
          "name": "",
          "type": "uint256[]"
        }
      ],
      "stateMutability": "view",
      "type": "function"
    },
    {
      "inputs": [
        {
          "internalType": "address",
          "name": "_user",
          "type": "address"
        }
      ],
      "name": "getUserStats",
      "outputs": [
        {
          "internalType": "uint256",
          "name": "createdCount",
          "type": "uint256"
        },
        {
          "internalType": "uint256",
          "name": "receivedCount",
          "type": "uint256"
        },
        {
          "internalType": "uint256",
          "name": "totalPaid",
          "type": "uint256"
        },
        {
          "internalType": "uint256",
          "name": "totalReceived",
          "type": "uint256"
        },
        {
          "internalType": "uint256",
          "name": "scheduledCount",
          "type": "uint256"
        }
      ],
      "stateMutability": "view",
      "type": "function"
    },
    {
      "inputs": [
        {
          "internalType": "uint256",
          "name": "",
          "type": "uint256"
        }
      ],
      "name": "invoices",
      "outputs": [
        {
          "internalType": "uint256",
          "name": "id",
          "type": "uint256"
        },
        {
          "internalType": "address",
          "name": "creator",
          "type": "address"
        },
        {
          "internalType": "address",
          "name": "recipient",
          "type": "address"
        },
        {
          "internalType": "uint256",
          "name": "amount",
          "type": "uint256"
        },
        {
          "internalType": "address",
          "name": "token",
          "type": "address"
        },
        {
          "internalType": "string",
          "name": "metadataHash",
          "type": "string"
        },
        {
          "internalType": "bool",
          "name": "paid",
          "type": "bool"
        },
        {
          "internalType": "uint256",
          "name": "dueDate",
          "type": "uint256"
        },
        {
          "internalType": "uint256",
          "name": "createdAt",
          "type": "uint256"
        }
      ],
      "stateMutability": "view",
      "type": "function"
    },
    {
      "inputs": [],
      "name": "nextInvoiceId",
      "outputs": [
        {
          "internalType": "uint256",
          "name": "",
          "type": "uint256"
        }
      ],
      "stateMutability": "view",
      "type": "function"
    },
    {
      "inputs": [],
      "name": "nextScheduledPaymentId",
      "outputs": [
        {
          "internalType": "uint256",
          "name": "",
          "type": "uint256"
        }
      ],
      "stateMutability": "view",
      "type": "function"
    },
    {
      "inputs": [],
      "name": "owner",
      "outputs": [
        {
          "internalType": "address",
          "name": "",
          "type": "address"
        }
      ],
      "stateMutability": "view",
      "type": "function"
    },
    {
      "inputs": [
        {
          "internalType": "uint256",
          "name": "_id",
          "type": "uint256"
        }
      ],
      "name": "payInvoice",
      "outputs": [],
      "stateMutability": "payable",
      "type": "function"
    },
    {
      "inputs": [],
      "name": "renounceOwnership",
      "outputs": [],
      "stateMutability": "nonpayable",
      "type": "function"
    },
    {
      "inputs": [
        {
          "internalType": "uint256",
          "name": "",
          "type": "uint256"
        }
      ],
      "name": "scheduledPayments",
      "outputs": [
        {
          "internalType": "uint256",
          "name": "id",
          "type": "uint256"
        },
        {
          "internalType": "address",
          "name": "from",
          "type": "address"
        },
        {
          "internalType": "address",
          "name": "to",
          "type": "address"
        },
        {
          "internalType": "uint256",
          "name": "amount",
          "type": "uint256"
        },
        {
          "internalType": "address",
          "name": "token",
          "type": "address"
        },
        {
          "internalType": "uint256",
          "name": "nextExecution",
          "type": "uint256"
        },
        {
          "internalType": "uint256",
          "name": "interval",
          "type": "uint256"
        },
        {
          "internalType": "bool",
          "name": "isActive",
          "type": "bool"
        },
        {
          "internalType": "string",
          "name": "description",
          "type": "string"
        },
        {
          "internalType": "uint256",
          "name": "balance",
          "type": "uint256"
        },
        {
          "internalType": "uint256",
          "name": "tokenBalance",
          "type": "uint256"
        }
      ],
      "stateMutability": "view",
      "type": "function"
    },
    {
      "inputs": [
        {
          "internalType": "uint256",
          "name": "_id",
          "type": "uint256"
        },
        {
          "internalType": "bool",
          "name": "_isActive",
          "type": "bool"
        }
      ],
      "name": "toggleAgentStatus",
      "outputs": [],
      "stateMutability": "nonpayable",
      "type": "function"
    },
    {
      "inputs": [
        {
          "internalType": "uint256",
          "name": "_id",
          "type": "uint256"
        },
        {
          "internalType": "uint256",
          "name": "_tokenAmount",
          "type": "uint256"
        }
      ],
      "name": "topUpAgent",
      "outputs": [],
      "stateMutability": "payable",
      "type": "function"
    },
    {
      "inputs": [
        {
          "internalType": "address",
          "name": "",
          "type": "address"
        }
      ],
      "name": "totalPaidByUser",
      "outputs": [
        {
          "internalType": "uint256",
          "name": "",
          "type": "uint256"
        }
      ],
      "stateMutability": "view",
      "type": "function"
    },
    {
      "inputs": [
        {
          "internalType": "address",
          "name": "",
          "type": "address"
        }
      ],
      "name": "totalReceivedByUser",
      "outputs": [
        {
          "internalType": "uint256",
          "name": "",
          "type": "uint256"
        }
      ],
      "stateMutability": "view",
      "type": "function"
    },
    {
      "inputs": [
        {
          "internalType": "address",
          "name": "newOwner",
          "type": "address"
        }
      ],
      "name": "transferOwnership",
      "outputs": [],
      "stateMutability": "nonpayable",
      "type": "function"
    },
    {
      "stateMutability": "payable",
      "type": "receive"
    }
  ],
  "bytecode": "0x608060405234801561001057600080fd5b5033600073ffffffffffffffffffffffffffffffffffffffff168173ffffffffffffffffffffffffffffffffffffffff16036100845760006040517f1e4fbdf700000000000000000000000000000000000000000000000000000000815260040161007b91906101a5565b60405180910390fd5b610093816100a060201b60201c565b50600180819055506101c0565b60008060009054906101000a900473ffffffffffffffffffffffffffffffffffffffff169050816000806101000a81548173ffffffffffffffffffffffffffffffffffffffff021916908373ffffffffffffffffffffffffffffffffffffffff1602179055508173ffffffffffffffffffffffffffffffffffffffff168173ffffffffffffffffffffffffffffffffffffffff167f8be0079c531659141344cd1fd0a4f28419497f9722a3daafe3b4186f6b6457e060405160405180910390a35050565b600073ffffffffffffffffffffffffffffffffffffffff82169050919050565b600061018f82610164565b9050919050565b61019f81610184565b82525050565b60006020820190506101ba6000830184610196565b92915050565b61498b806101cf6000396000f3fe6080604052600436106101a05760003560e01c806378ee5893116100ec578063b3d153161161008a578063ed0cbbfb11610064578063ed0cbbfb14610644578063f2fde38b14610685578063f5a772ef146106ae578063fb8cf5d6146106d7576101a7565b8063b3d15316146105b3578063bc656bfe146105f0578063da9c273d1461061b576101a7565b80639633e41c116100c65780639633e41c146104f457806396e5ca8514610531578063a27bc4d21461056e578063ac60a6cd14610597576101a7565b806378ee5893146104615780637d6a59ed1461049e5780638da5cb5b146104c9576101a7565b80633c2585201161015957806356bad8631161013357806356bad863146103b95780635eebd3d6146103f65780636ff2a9531461041f578063715018a61461044a576101a7565b80633c258520146102ec5780634e43603a146103335780634e6d140514610374576101a7565b80630b2bf60c146101ac5780632e337f5b146101c857806334e8c1a414610205578063372f70a7146102425780633a23cc0a1461027f5780633bacdbd6146102bc576101a7565b366101a757005b600080fd5b6101c660048036038101906101c19190613197565b610700565b005b3480156101d457600080fd5b506101ef60048036038101906101ea9190613235565b6108f3565b6040516101fc9190613320565b60405180910390f35b34801561021157600080fd5b5061022c60048036038101906102279190613235565b61098a565b6040516102399190613351565b60405180910390f35b34801561024e57600080fd5b50610269600480360381019061026491906134b2565b6109a2565b6040516102769190613351565b60405180910390f35b34801561028b57600080fd5b506102a660048036038101906102a19190613549565b610d80565b6040516102b391906136e4565b60405180910390f35b6102d660048036038101906102d19190613706565b610f85565b6040516102e39190613351565b60405180910390f35b3480156102f857600080fd5b50610313600480360381019061030e9190613549565b61143e565b60405161032a9b9a99989796959493929190613817565b60405180910390f35b34801561033f57600080fd5b5061035a60048036038101906103559190613235565b61158d565b60405161036b9594939291906138c9565b60405180910390f35b34801561038057600080fd5b5061039b60048036038101906103969190613549565b6116f1565b6040516103b09998979695949392919061391c565b60405180910390f35b3480156103c557600080fd5b506103e060048036038101906103db9190613235565b611834565b6040516103ed9190613a18565b60405180910390f35b34801561040257600080fd5b5061041d60048036038101906104189190613a5f565b61191c565b005b34801561042b57600080fd5b50610434611a1e565b6040516104419190613351565b60405180910390f35b34801561045657600080fd5b5061045f611a24565b005b34801561046d57600080fd5b5061048860048036038101906104839190613549565b611a38565b6040516104959190613b8e565b60405180910390f35b3480156104aa57600080fd5b506104b3611c51565b6040516104c09190613351565b60405180910390f35b3480156104d557600080fd5b506104de611c5b565b6040516104eb9190613bb0565b60405180910390f35b34801561050057600080fd5b5061051b60048036038101906105169190613235565b611c84565b6040516105289190613351565b60405180910390f35b34801561053d57600080fd5b5061055860048036038101906105539190613235565b611c9c565b6040516105659190613320565b60405180910390f35b34801561057a57600080fd5b5061059560048036038101906105909190613549565b611d33565b005b6105b160048036038101906105ac9190613549565b612112565b005b3480156105bf57600080fd5b506105da60048036038101906105d59190613235565b612560565b6040516105e79190613320565b60405180910390f35b3480156105fc57600080fd5b506106056125f7565b6040516106129190613351565b60405180910390f35b34801561062757600080fd5b50610642600480360381019061063d9190613549565b6125fd565b005b34801561065057600080fd5b5061066b60048036038101906106669190613235565b612791565b60405161067c959493929190613bcb565b60405180910390f35b34801561069157600080fd5b506106ac60048036038101906106a79190613235565b6127f4565b005b3480156106ba57600080fd5b506106d560048036038101906106d09190613c1e565b61287a565b005b3480156106e357600080fd5b506106fe60048036038101906106f99190613549565b6129d7565b005b60006006600084815260200190815260200160002090508060070160009054906101000a900460ff16610768576040517f08c379a000000000000000000000000000000000000000000000000000000000815260040161075f90613cd1565b60405180910390fd5b600073ffffffffffffffffffffffffffffffffffffffff168160040160009054906101000a900473ffffffffffffffffffffffffffffffffffffffff1673ffffffffffffffffffffffffffffffffffffffff16141580156107c95750600082115b1561088f578060040160009054906101000a900473ffffffffffffffffffffffffffffffffffffffff1673ffffffffffffffffffffffffffffffffffffffff166323b872dd3330856040518463ffffffff1660e01b815260040161082f93929190613cf1565b6020604051808303816000875af115801561084e573d6000803e3d6000fd5b505050506040513d601f19601f820116820180604052508101906108729190613d3d565b508181600a0160008282546108879190613d99565b925050819055505b60003411156108b457348160090160008282546108ac9190613d99565b925050819055505b827f77f2460bc4014658a03824c31329bb19daec9d93da444242d1aa6e889072ad7a34846040516108e6929190613dcd565b60405180910390a2505050565b6060600960008373ffffffffffffffffffffffffffffffffffffffff1673ffffffffffffffffffffffffffffffffffffffff16815260200190815260200160002080548060200260200160405190810160405280929190818152602001828054801561097e57602002820191906000526020600020905b81548152602001906001019080831161096a575b50505050509050919050565b600b6020528060005260406000206000915090505481565b60008073ffffffffffffffffffffffffffffffffffffffff168673ffffffffffffffffffffffffffffffffffffffff1603610a12576040517f08c379a0000000000000000000000000000000000000000000000000000000008152600401610a0990613e42565b60405180910390fd5b60008511610a55576040517f08c379a0000000000000000000000000000000000000000000000000000000008152600401610a4c90613eae565b60405180910390fd5b600060026000815480929190610a6a90613ece565b9190505590506040518061012001604052808281526020013373ffffffffffffffffffffffffffffffffffffffff1681526020018873ffffffffffffffffffffffffffffffffffffffff1681526020018781526020018673ffffffffffffffffffffffffffffffffffffffff16815260200185815260200160001515815260200184815260200142815250600460008381526020019081526020016000206000820151816000015560208201518160010160006101000a81548173ffffffffffffffffffffffffffffffffffffffff021916908373ffffffffffffffffffffffffffffffffffffffff16021790555060408201518160020160006101000a81548173ffffffffffffffffffffffffffffffffffffffff021916908373ffffffffffffffffffffffffffffffffffffffff1602179055506060820151816003015560808201518160040160006101000a81548173ffffffffffffffffffffffffffffffffffffffff021916908373ffffffffffffffffffffffffffffffffffffffff16021790555060a0820151816005019081610c069190614122565b5060c08201518160060160006101000a81548160ff02191690831515021790555060e082015181600701556101008201518160080155905050600760003373ffffffffffffffffffffffffffffffffffffffff1673ffffffffffffffffffffffffffffffffffffffff168152602001908152602001600020819080600181540180825580915050600190039060005260206000200160009091909190915055600860008873ffffffffffffffffffffffffffffffffffffffff1673ffffffffffffffffffffffffffffffffffffffff1681526020019081526020016000208190806001815401808255809150506001900390600052602060002001600090919091909150558673ffffffffffffffffffffffffffffffffffffffff163373ffffffffffffffffffffffffffffffffffffffff16827f3fbaae0f1597d7f24bf2231a5fe5248190743aecc5f3da7126965e14e3f1ca4d8987604051610d6b929190613dcd565b60405180910390a48091505095945050505050565b610d88612fd8565b6004600083815260200190815260200160002060405180610120016040529081600082015481526020016001820160009054906101000a900473ffffffffffffffffffffffffffffffffffffffff1673ffffffffffffffffffffffffffffffffffffffff1673ffffffffffffffffffffffffffffffffffffffff1681526020016002820160009054906101000a900473ffffffffffffffffffffffffffffffffffffffff1673ffffffffffffffffffffffffffffffffffffffff1673ffffffffffffffffffffffffffffffffffffffff168152602001600382015481526020016004820160009054906101000a900473ffffffffffffffffffffffffffffffffffffffff1673ffffffffffffffffffffffffffffffffffffffff1673ffffffffffffffffffffffffffffffffffffffff168152602001600582018054610ecd90613f45565b80601f0160208091040260200160405190810160405280929190818152602001828054610ef990613f45565b8015610f465780601f10610f1b57610100808354040283529160200191610f46565b820191906000526020600020905b815481529060010190602001808311610f2957829003601f168201915b505050505081526020016006820160009054906101000a900460ff16151515158152602001600782015481526020016008820154815250509050919050565b60008073ffffffffffffffffffffffffffffffffffffffff168773ffffffffffffffffffffffffffffffffffffffff1603610ff5576040517f08c379a0000000000000000000000000000000000000000000000000000000008152600401610fec90613e42565b60405180910390fd5b60008611611038576040517f08c379a000000000000000000000000000000000000000000000000000000000815260040161102f90613eae565b60405180910390fd5b600073ffffffffffffffffffffffffffffffffffffffff168573ffffffffffffffffffffffffffffffffffffffff16141580156110755750600082115b156110fc578473ffffffffffffffffffffffffffffffffffffffff166323b872dd3330856040518463ffffffff1660e01b81526004016110b793929190613cf1565b6020604051808303816000875af11580156110d6573d6000803e3d6000fd5b505050506040513d601f19601f820116820180604052508101906110fa9190613d3d565b505b60006003600081548092919061111190613ece565b9190505590506040518061016001604052808281526020013373ffffffffffffffffffffffffffffffffffffffff1681526020018973ffffffffffffffffffffffffffffffffffffffff1681526020018881526020018773ffffffffffffffffffffffffffffffffffffffff168152602001864261118f9190613d99565b815260200186815260200160011515815260200185815260200134815260200184815250600660008381526020019081526020016000206000820151816000015560208201518160010160006101000a81548173ffffffffffffffffffffffffffffffffffffffff021916908373ffffffffffffffffffffffffffffffffffffffff16021790555060408201518160020160006101000a81548173ffffffffffffffffffffffffffffffffffffffff021916908373ffffffffffffffffffffffffffffffffffffffff1602179055506060820151816003015560808201518160040160006101000a81548173ffffffffffffffffffffffffffffffffffffffff021916908373ffffffffffffffffffffffffffffffffffffffff16021790555060a0820151816005015560c0820151816006015560e08201518160070160006101000a81548160ff0219169083151502179055506101008201518160080190816112f99190614122565b50610120820151816009015561014082015181600a0155905050600960003373ffffffffffffffffffffffffffffffffffffffff1673ffffffffffffffffffffffffffffffffffffffff1681526020019081526020016000208190806001815401808255809150506001900390600052602060002001600090919091909150558773ffffffffffffffffffffffffffffffffffffffff163373ffffffffffffffffffffffffffffffffffffffff16827fb272b7ba744e64ed131e7fd6a1abcb3ff4d3541979a489a829f325c0a243ad098a896040516113d9929190613dcd565b60405180910390a460003411806113f05750600083115b1561143057807f77f2460bc4014658a03824c31329bb19daec9d93da444242d1aa6e889072ad7a3485604051611427929190613dcd565b60405180910390a25b809150509695505050505050565b60066020528060005260406000206000915090508060000154908060010160009054906101000a900473ffffffffffffffffffffffffffffffffffffffff16908060020160009054906101000a900473ffffffffffffffffffffffffffffffffffffffff16908060030154908060040160009054906101000a900473ffffffffffffffffffffffffffffffffffffffff16908060050154908060060154908060070160009054906101000a900460ff16908060080180546114fe90613f45565b80601f016020809104026020016040519081016040528092919081815260200182805461152a90613f45565b80156115775780601f1061154c57610100808354040283529160200191611577565b820191906000526020600020905b81548152906001019060200180831161155a57829003601f168201915b50505050509080600901549080600a015490508b565b6000806000806000600760008773ffffffffffffffffffffffffffffffffffffffff1673ffffffffffffffffffffffffffffffffffffffff16815260200190815260200160002080549050600860008873ffffffffffffffffffffffffffffffffffffffff1673ffffffffffffffffffffffffffffffffffffffff16815260200190815260200160002080549050600a60008973ffffffffffffffffffffffffffffffffffffffff1673ffffffffffffffffffffffffffffffffffffffff16815260200190815260200160002054600b60008a73ffffffffffffffffffffffffffffffffffffffff1673ffffffffffffffffffffffffffffffffffffffff16815260200190815260200160002054600960008b73ffffffffffffffffffffffffffffffffffffffff1673ffffffffffffffffffffffffffffffffffffffff168152602001908152602001600020805490509450945094509450945091939590929450565b60046020528060005260406000206000915090508060000154908060010160009054906101000a900473ffffffffffffffffffffffffffffffffffffffff16908060020160009054906101000a900473ffffffffffffffffffffffffffffffffffffffff16908060030154908060040160009054906101000a900473ffffffffffffffffffffffffffffffffffffffff169080600501805461179290613f45565b80601f01602080910402602001604051908101604052809291908181526020018280546117be90613f45565b801561180b5780601f106117e05761010080835404028352916020019161180b565b820191906000526020600020905b8154815290600101906020018083116117ee57829003601f168201915b5050505050908060060160009054906101000a900460ff16908060070154908060080154905089565b61183c613068565b600560008373ffffffffffffffffffffffffffffffffffffffff1673ffffffffffffffffffffffffffffffffffffffff1681526020019081526020016000206040518060a00160405290816000820160009054906101000a900460ff16151515158152602001600182015481526020016002820160009054906101000a900473ffffffffffffffffffffffffffffffffffffffff1673ffffffffffffffffffffffffffffffffffffffff1673ffffffffffffffffffffffffffffffffffffffff168152602001600382015481526020016004820154815250509050919050565b60006006600084815260200190815260200160002090503373ffffffffffffffffffffffffffffffffffffffff168160010160009054906101000a900473ffffffffffffffffffffffffffffffffffffffff1673ffffffffffffffffffffffffffffffffffffffff16146119c5576040517f08c379a00000000000000000000000000000000000000000000000000000000081526004016119bc90614240565b60405180910390fd5b818160070160006101000a81548160ff021916908315150217905550827f6abccd5934f543a8605838d91768257de5521383bdb2aa5f286bc01dc943356383604051611a119190614260565b60405180910390a2505050565b60025481565b611a2c612e36565b611a366000612ebd565b565b611a406130af565b6006600083815260200190815260200160002060405180610160016040529081600082015481526020016001820160009054906101000a900473ffffffffffffffffffffffffffffffffffffffff1673ffffffffffffffffffffffffffffffffffffffff1673ffffffffffffffffffffffffffffffffffffffff1681526020016002820160009054906101000a900473ffffffffffffffffffffffffffffffffffffffff1673ffffffffffffffffffffffffffffffffffffffff1673ffffffffffffffffffffffffffffffffffffffff168152602001600382015481526020016004820160009054906101000a900473ffffffffffffffffffffffffffffffffffffffff1673ffffffffffffffffffffffffffffffffffffffff1673ffffffffffffffffffffffffffffffffffffffff16815260200160058201548152602001600682015481526020016007820160009054906101000a900460ff16151515158152602001600882018054611bb490613f45565b80601f0160208091040260200160405190810160405280929190818152602001828054611be090613f45565b8015611c2d5780601f10611c0257610100808354040283529160200191611c2d565b820191906000526020600020905b815481529060010190602001808311611c1057829003601f168201915b5050505050815260200160098201548152602001600a820154815250509050919050565b6000600254905090565b60008060009054906101000a900473ffffffffffffffffffffffffffffffffffffffff16905090565b600a6020528060005260406000206000915090505481565b6060600860008373ffffffffffffffffffffffffffffffffffffffff1673ffffffffffffffffffffffffffffffffffffffff168152602001908152602001600020805480602002602001604051908101604052809291908181526020018280548015611d2757602002820191906000526020600020905b815481526020019060010190808311611d13575b50505050509050919050565b611d3b612f81565b60006006600083815260200190815260200160002090503373ffffffffffffffffffffffffffffffffffffffff168160010160009054906101000a900473ffffffffffffffffffffffffffffffffffffffff1673ffffffffffffffffffffffffffffffffffffffff1614611de4576040517f08c379a0000000000000000000000000000000000000000000000000000000008152600401611ddb90614240565b60405180910390fd5b8060070160009054906101000a900460ff16611e35576040517f08c379a0000000000000000000000000000000000000000000000000000000008152600401611e2c906142c7565b60405180910390fd5b60008160070160006101000a81548160ff021916908315150217905550600080600083600901541115611f4557826009015491506000836009018190555060008360010160009054906101000a900473ffffffffffffffffffffffffffffffffffffffff1673ffffffffffffffffffffffffffffffffffffffff1683604051611ebd90614318565b60006040518083038185875af1925050503d8060008114611efa576040519150601f19603f3d011682016040523d82523d6000602084013e611eff565b606091505b5050905080611f43576040517f08c379a0000000000000000000000000000000000000000000000000000000008152600401611f3a90614379565b60405180910390fd5b505b600073ffffffffffffffffffffffffffffffffffffffff168360040160009054906101000a900473ffffffffffffffffffffffffffffffffffffffff1673ffffffffffffffffffffffffffffffffffffffff1614158015611faa5750600083600a0154115b156120885782600a01549050600083600a01819055508260040160009054906101000a900473ffffffffffffffffffffffffffffffffffffffff1673ffffffffffffffffffffffffffffffffffffffff1663a9059cbb8460010160009054906101000a900473ffffffffffffffffffffffffffffffffffffffff16836040518363ffffffff1660e01b8152600401612043929190614399565b6020604051808303816000875af1158015612062573d6000803e3d6000fd5b505050506040513d601f19601f820116820180604052508101906120869190613d3d565b505b837fa923c88fcdba3ef914ef2cd253567d255d171ae587e21e1c1cb67c89985b1d8360405160405180910390a260008211806120c45750600081115b1561210457837f96907d778c1d60986d2a2dfec9bd5f67250747ea3d3367df465da3303d9d646183836040516120fb929190613dcd565b60405180910390a25b50505061210f612fc7565b50565b61211a612f81565b60006004600083815260200190815260200160002090508060060160009054906101000a900460ff1615612183576040517f08c379a000000000000000000000000000000000000000000000000000000000815260040161217a9061440e565b60405180910390fd5b60008160030154116121ca576040517f08c379a00000000000000000000000000000000000000000000000000000000081526004016121c19061447a565b60405180910390fd5b600073ffffffffffffffffffffffffffffffffffffffff168160040160009054906101000a900473ffffffffffffffffffffffffffffffffffffffff1673ffffffffffffffffffffffffffffffffffffffff160361233e5780600301543414612268576040517f08c379a000000000000000000000000000000000000000000000000000000000815260040161225f906144e6565b60405180910390fd5b60008160010160009054906101000a900473ffffffffffffffffffffffffffffffffffffffff1673ffffffffffffffffffffffffffffffffffffffff16346040516122b290614318565b60006040518083038185875af1925050503d80600081146122ef576040519150601f19603f3d011682016040523d82523d6000602084013e6122f4565b606091505b5050905080612338576040517f08c379a000000000000000000000000000000000000000000000000000000000815260040161232f90614552565b60405180910390fd5b5061240c565b8060040160009054906101000a900473ffffffffffffffffffffffffffffffffffffffff1673ffffffffffffffffffffffffffffffffffffffff166323b872dd338360010160009054906101000a900473ffffffffffffffffffffffffffffffffffffffff1684600301546040518463ffffffff1660e01b81526004016123c793929190613cf1565b6020604051808303816000875af11580156123e6573d6000803e3d6000fd5b505050506040513d601f19601f8201168201806040525081019061240a9190613d3d565b505b60018160060160006101000a81548160ff0219169083151502179055508060030154600a60003373ffffffffffffffffffffffffffffffffffffffff1673ffffffffffffffffffffffffffffffffffffffff168152602001908152602001600020600082825461247c9190613d99565b925050819055508060030154600b60008360010160009054906101000a900473ffffffffffffffffffffffffffffffffffffffff1673ffffffffffffffffffffffffffffffffffffffff1673ffffffffffffffffffffffffffffffffffffffff16815260200190815260200160002060008282546124fa9190613d99565b925050819055503373ffffffffffffffffffffffffffffffffffffffff16827fa6abfda59e12fa300d17e1aa76bd3233eaf23ee4feb4b02b6516ad1d60be8400836003015460405161254c9190613351565b60405180910390a35061255d612fc7565b50565b6060600760008373ffffffffffffffffffffffffffffffffffffffff1673ffffffffffffffffffffffffffffffffffffffff1681526020019081526020016000208054806020026020016040519081016040528092919081815260200182805480156125eb57602002820191906000526020600020905b8154815260200190600101908083116125d7575b50505050509050919050565b60035481565b60006004600083815260200190815260200160002090503373ffffffffffffffffffffffffffffffffffffffff168160010160009054906101000a900473ffffffffffffffffffffffffffffffffffffffff1673ffffffffffffffffffffffffffffffffffffffff16146126a6576040517f08c379a000000000000000000000000000000000000000000000000000000000815260040161269d906145be565b60405180910390fd5b8060060160009054906101000a900460ff16156126f8576040517f08c379a00000000000000000000000000000000000000000000000000000000081526004016126ef9061462a565b60405180910390fd5b600081600301541161273f576040517f08c379a0000000000000000000000000000000000000000000000000000000008152600401612736906146bc565b60405180910390fd5b600081600301819055503373ffffffffffffffffffffffffffffffffffffffff16827f1893bd55c53ca5d28463267b3794ea27b1c3fc3b0cc5f86e0c5b613ad4156f0860405160405180910390a35050565b60056020528060005260406000206000915090508060000160009054906101000a900460ff16908060010154908060020160009054906101000a900473ffffffffffffffffffffffffffffffffffffffff16908060030154908060040154905085565b6127fc612e36565b600073ffffffffffffffffffffffffffffffffffffffff168173ffffffffffffffffffffffffffffffffffffffff160361286e5760006040517f1e4fbdf70000000000000000000000000000000000000000000000000000000081526004016128659190613bb0565b60405180910390fd5b61287781612ebd565b50565b6040518060a0016040528085151581526020018481526020018373ffffffffffffffffffffffffffffffffffffffff1681526020018281526020016000815250600560003373ffffffffffffffffffffffffffffffffffffffff1673ffffffffffffffffffffffffffffffffffffffff16815260200190815260200160002060008201518160000160006101000a81548160ff0219169083151502179055506020820151816001015560408201518160020160006101000a81548173ffffffffffffffffffffffffffffffffffffffff021916908373ffffffffffffffffffffffffffffffffffffffff16021790555060608201518160030155608082015181600401559050503373ffffffffffffffffffffffffffffffffffffffff167fd8e76f77a7d49cfb61cad9d5b13dbd242c96a8b16754cd33fe2c400a0fef9e0685856040516129c99291906146dc565b60405180910390a250505050565b6129df612f81565b60006006600083815260200190815260200160002090508060070160009054906101000a900460ff16612a47576040517f08c379a0000000000000000000000000000000000000000000000000000000008152600401612a3e90614751565b60405180910390fd5b8060050154421015612a8e576040517f08c379a0000000000000000000000000000000000000000000000000000000008152600401612a85906147bd565b60405180910390fd5b600073ffffffffffffffffffffffffffffffffffffffff168160040160009054906101000a900473ffffffffffffffffffffffffffffffffffffffff1673ffffffffffffffffffffffffffffffffffffffff1603612c2a57806003015481600901541015612b31576040517f08c379a0000000000000000000000000000000000000000000000000000000008152600401612b2890614829565b60405180910390fd5b8060030154816009016000828254612b499190614849565b9250508190555060008160020160009054906101000a900473ffffffffffffffffffffffffffffffffffffffff1673ffffffffffffffffffffffffffffffffffffffff168260030154604051612b9e90614318565b60006040518083038185875af1925050503d8060008114612bdb576040519150601f19603f3d011682016040523d82523d6000602084013e612be0565b606091505b5050905080612c24576040517f08c379a0000000000000000000000000000000000000000000000000000000008152600401612c1b906148c9565b60405180910390fd5b50612d60565b806003015481600a01541015612c75576040517f08c379a0000000000000000000000000000000000000000000000000000000008152600401612c6c90614935565b60405180910390fd5b806003015481600a016000828254612c8d9190614849565b925050819055508060040160009054906101000a900473ffffffffffffffffffffffffffffffffffffffff1673ffffffffffffffffffffffffffffffffffffffff1663a9059cbb8260020160009054906101000a900473ffffffffffffffffffffffffffffffffffffffff1683600301546040518363ffffffff1660e01b8152600401612d1b929190614399565b6020604051808303816000875af1158015612d3a573d6000803e3d6000fd5b505050506040513d601f19601f82011682018060405250810190612d5e9190613d3d565b505b806006015442612d709190613d99565b81600501819055508060020160009054906101000a900473ffffffffffffffffffffffffffffffffffffffff1673ffffffffffffffffffffffffffffffffffffffff168160010160009054906101000a900473ffffffffffffffffffffffffffffffffffffffff1673ffffffffffffffffffffffffffffffffffffffff16837fd83b8695535cf537e03c3a27451908aa08781afc5439a3193e1691a142d3728e8460030154604051612e229190613351565b60405180910390a450612e33612fc7565b50565b612e3e612fd0565b73ffffffffffffffffffffffffffffffffffffffff16612e5c611c5b565b73ffffffffffffffffffffffffffffffffffffffff1614612ebb57612e7f612fd0565b6040517f118cdaa7000000000000000000000000000000000000000000000000000000008152600401612eb29190613bb0565b60405180910390fd5b565b60008060009054906101000a900473ffffffffffffffffffffffffffffffffffffffff169050816000806101000a81548173ffffffffffffffffffffffffffffffffffffffff021916908373ffffffffffffffffffffffffffffffffffffffff1602179055508173ffffffffffffffffffffffffffffffffffffffff168173ffffffffffffffffffffffffffffffffffffffff167f8be0079c531659141344cd1fd0a4f28419497f9722a3daafe3b4186f6b6457e060405160405180910390a35050565b600260015403612fbd576040517f3ee5aeb500000000000000000000000000000000000000000000000000000000815260040160405180910390fd5b6002600181905550565b60018081905550565b600033905090565b60405180610120016040528060008152602001600073ffffffffffffffffffffffffffffffffffffffff168152602001600073ffffffffffffffffffffffffffffffffffffffff16815260200160008152602001600073ffffffffffffffffffffffffffffffffffffffff1681526020016060815260200160001515815260200160008152602001600081525090565b6040518060a0016040528060001515815260200160008152602001600073ffffffffffffffffffffffffffffffffffffffff16815260200160008152602001600081525090565b60405180610160016040528060008152602001600073ffffffffffffffffffffffffffffffffffffffff168152602001600073ffffffffffffffffffffffffffffffffffffffff16815260200160008152602001600073ffffffffffffffffffffffffffffffffffffffff16815260200160008152602001600081526020016000151581526020016060815260200160008152602001600081525090565b6000604051905090565b600080fd5b600080fd5b6000819050919050565b61317481613161565b811461317f57600080fd5b50565b6000813590506131918161316b565b92915050565b600080604083850312156131ae576131ad613157565b5b60006131bc85828601613182565b92505060206131cd85828601613182565b9150509250929050565b600073ffffffffffffffffffffffffffffffffffffffff82169050919050565b6000613202826131d7565b9050919050565b613212816131f7565b811461321d57600080fd5b50565b60008135905061322f81613209565b92915050565b60006020828403121561324b5761324a613157565b5b600061325984828501613220565b91505092915050565b600081519050919050565b600082825260208201905092915050565b6000819050602082019050919050565b61329781613161565b82525050565b60006132a9838361328e565b60208301905092915050565b6000602082019050919050565b60006132cd82613262565b6132d7818561326d565b93506132e28361327e565b8060005b838110156133135781516132fa888261329d565b9750613305836132b5565b9250506001810190506132e6565b5085935050505092915050565b6000602082019050818103600083015261333a81846132c2565b905092915050565b61334b81613161565b82525050565b60006020820190506133666000830184613342565b92915050565b600080fd5b600080fd5b6000601f19601f8301169050919050565b7f4e487b7100000000000000000000000000000000000000000000000000000000600052604160045260246000fd5b6133bf82613376565b810181811067ffffffffffffffff821117156133de576133dd613387565b5b80604052505050565b60006133f161314d565b90506133fd82826133b6565b919050565b600067ffffffffffffffff82111561341d5761341c613387565b5b61342682613376565b9050602081019050919050565b82818337600083830152505050565b600061345561345084613402565b6133e7565b90508281526020810184848401111561347157613470613371565b5b61347c848285613433565b509392505050565b600082601f8301126134995761349861336c565b5b81356134a9848260208601613442565b91505092915050565b600080600080600060a086880312156134ce576134cd613157565b5b60006134dc88828901613220565b95505060206134ed88828901613182565b94505060406134fe88828901613220565b935050606086013567ffffffffffffffff81111561351f5761351e61315c565b5b61352b88828901613484565b925050608061353c88828901613182565b9150509295509295909350565b60006020828403121561355f5761355e613157565b5b600061356d84828501613182565b91505092915050565b61357f816131f7565b82525050565b600081519050919050565b600082825260208201905092915050565b60005b838110156135bf5780820151818401526020810190506135a4565b60008484015250505050565b60006135d682613585565b6135e08185613590565b93506135f08185602086016135a1565b6135f981613376565b840191505092915050565b60008115159050919050565b61361981613604565b82525050565b600061012083016000830151613638600086018261328e565b50602083015161364b6020860182613576565b50604083015161365e6040860182613576565b506060830151613671606086018261328e565b5060808301516136846080860182613576565b5060a083015184820360a086015261369c82826135cb565b91505060c08301516136b160c0860182613610565b5060e08301516136c460e086018261328e565b506101008301516136d961010086018261328e565b508091505092915050565b600060208201905081810360008301526136fe818461361f565b905092915050565b60008060008060008060c0878903121561372357613722613157565b5b600061373189828a01613220565b965050602061374289828a01613182565b955050604061375389828a01613220565b945050606061376489828a01613182565b935050608087013567ffffffffffffffff8111156137855761378461315c565b5b61379189828a01613484565b92505060a06137a289828a01613182565b9150509295509295509295565b6137b8816131f7565b82525050565b6137c781613604565b82525050565b600082825260208201905092915050565b60006137e982613585565b6137f381856137cd565b93506138038185602086016135a1565b61380c81613376565b840191505092915050565b60006101608201905061382d600083018e613342565b61383a602083018d6137af565b613847604083018c6137af565b613854606083018b613342565b613861608083018a6137af565b61386e60a0830189613342565b61387b60c0830188613342565b61388860e08301876137be565b81810361010083015261389b81866137de565b90506138ab610120830185613342565b6138b9610140830184613342565b9c9b505050505050505050505050565b600060a0820190506138de6000830188613342565b6138eb6020830187613342565b6138f86040830186613342565b6139056060830185613342565b6139126080830184613342565b9695505050505050565b600061012082019050613932600083018c613342565b61393f602083018b6137af565b61394c604083018a6137af565b6139596060830189613342565b61396660808301886137af565b81810360a083015261397881876137de565b905061398760c08301866137be565b61399460e0830185613342565b6139a2610100830184613342565b9a9950505050505050505050565b60a0820160008201516139c66000850182613610565b5060208201516139d9602085018261328e565b5060408201516139ec6040850182613576565b5060608201516139ff606085018261328e565b506080820151613a12608085018261328e565b50505050565b600060a082019050613a2d60008301846139b0565b92915050565b613a3c81613604565b8114613a4757600080fd5b50565b600081359050613a5981613a33565b92915050565b60008060408385031215613a7657613a75613157565b5b6000613a8485828601613182565b9250506020613a9585828601613a4a565b9150509250929050565b600061016083016000830151613ab8600086018261328e565b506020830151613acb6020860182613576565b506040830151613ade6040860182613576565b506060830151613af1606086018261328e565b506080830151613b046080860182613576565b5060a0830151613b1760a086018261328e565b5060c0830151613b2a60c086018261328e565b5060e0830151613b3d60e0860182613610565b50610100830151848203610100860152613b5782826135cb565b915050610120830151613b6e61012086018261328e565b50610140830151613b8361014086018261328e565b508091505092915050565b60006020820190508181036000830152613ba88184613a9f565b905092915050565b6000602082019050613bc560008301846137af565b92915050565b600060a082019050613be060008301886137be565b613bed6020830187613342565b613bfa60408301866137af565b613c076060830185613342565b613c146080830184613342565b9695505050505050565b60008060008060808587031215613c3857613c37613157565b5b6000613c4687828801613a4a565b9450506020613c5787828801613182565b9350506040613c6887828801613220565b9250506060613c7987828801613182565b91505092959194509250565b7f4167656e74206e6f742061637469766500000000000000000000000000000000600082015250565b6000613cbb6010836137cd565b9150613cc682613c85565b602082019050919050565b60006020820190508181036000830152613cea81613cae565b9050919050565b6000606082019050613d0660008301866137af565b613d1360208301856137af565b613d206040830184613342565b949350505050565b600081519050613d3781613a33565b92915050565b600060208284031215613d5357613d52613157565b5b6000613d6184828501613d28565b91505092915050565b7f4e487b7100000000000000000000000000000000000000000000000000000000600052601160045260246000fd5b6000613da482613161565b9150613daf83613161565b9250828201905080821115613dc757613dc6613d6a565b5b92915050565b6000604082019050613de26000830185613342565b613def6020830184613342565b9392505050565b7f496e76616c696420726563697069656e74000000000000000000000000000000600082015250565b6000613e2c6011836137cd565b9150613e3782613df6565b602082019050919050565b60006020820190508181036000830152613e5b81613e1f565b9050919050565b7f416d6f756e74206d7573742062652067726561746572207468616e2030000000600082015250565b6000613e98601d836137cd565b9150613ea382613e62565b602082019050919050565b60006020820190508181036000830152613ec781613e8b565b9050919050565b6000613ed982613161565b91507fffffffffffffffffffffffffffffffffffffffffffffffffffffffffffffffff8203613f0b57613f0a613d6a565b5b600182019050919050565b7f4e487b7100000000000000000000000000000000000000000000000000000000600052602260045260246000fd5b60006002820490506001821680613f5d57607f821691505b602082108103613f7057613f6f613f16565b5b50919050565b60008190508160005260206000209050919050565b60006020601f8301049050919050565b600082821b905092915050565b600060088302613fd87fffffffffffffffffffffffffffffffffffffffffffffffffffffffffffffffff82613f9b565b613fe28683613f9b565b95508019841693508086168417925050509392505050565b6000819050919050565b600061401f61401a61401584613161565b613ffa565b613161565b9050919050565b6000819050919050565b61403983614004565b61404d61404582614026565b848454613fa8565b825550505050565b600090565b614062614055565b61406d818484614030565b505050565b5b818110156140915761408660008261405a565b600181019050614073565b5050565b601f8211156140d6576140a781613f76565b6140b084613f8b565b810160208510156140bf578190505b6140d36140cb85613f8b565b830182614072565b50505b505050565b600082821c905092915050565b60006140f9600019846008026140db565b1980831691505092915050565b600061411283836140e8565b9150826002028217905092915050565b61412b82613585565b67ffffffffffffffff81111561414457614143613387565b5b61414e8254613f45565b614159828285614095565b600060209050601f83116001811461418c576000841561417a578287015190505b6141848582614106565b8655506141ec565b601f19841661419a86613f76565b60005b828110156141c25784890151825560018201915060208501945060208101905061419d565b868310156141df57848901516141db601f8916826140e8565b8355505b6001600288020188555050505b505050505050565b7f4e6f74206f776e65720000000000000000000000000000000000000000000000600082015250565b600061422a6009836137cd565b9150614235826141f4565b602082019050919050565b600060208201905081810360008301526142598161421d565b9050919050565b600060208201905061427560008301846137be565b92915050565b7f416c72656164792063616e63656c6c6564000000000000000000000000000000600082015250565b60006142b16011836137cd565b91506142bc8261427b565b602082019050919050565b600060208201905081810360008301526142e0816142a4565b9050919050565b600081905092915050565b50565b60006143026000836142e7565b915061430d826142f2565b600082019050919050565b6000614323826142f5565b9150819050919050565b7f526566756e64206661696c656400000000000000000000000000000000000000600082015250565b6000614363600d836137cd565b915061436e8261432d565b602082019050919050565b6000602082019050818103600083015261439281614356565b9050919050565b60006040820190506143ae60008301856137af565b6143bb6020830184613342565b9392505050565b7f416c726561647920706169640000000000000000000000000000000000000000600082015250565b60006143f8600c836137cd565b9150614403826143c2565b602082019050919050565b60006020820190508181036000830152614427816143eb565b9050919050565b7f496e766f69636520646f6573206e6f7420657869737400000000000000000000600082015250565b60006144646016836137cd565b915061446f8261442e565b602082019050919050565b6000602082019050818103600083015261449381614457565b9050919050565b7f496e636f727265637420616d6f756e7400000000000000000000000000000000600082015250565b60006144d06010836137cd565b91506144db8261449a565b602082019050919050565b600060208201905081810360008301526144ff816144c3565b9050919050565b7f4661696c656420746f2073656e64204d4e540000000000000000000000000000600082015250565b600061453c6012836137cd565b915061454782614506565b602082019050919050565b6000602082019050818103600083015261456b8161452f565b9050919050565b7f4e6f7420696e766f6963652063726561746f7200000000000000000000000000600082015250565b60006145a86013836137cd565b91506145b382614572565b602082019050919050565b600060208201905081810360008301526145d78161459b565b9050919050565b7f496e766f69636520616c72656164792070616964000000000000000000000000600082015250565b60006146146014836137cd565b915061461f826145de565b602082019050919050565b6000602082019050818103600083015261464381614607565b9050919050565b7f496e766f69636520646f6573206e6f74206578697374206f7220616c7265616460008201527f792063616e63656c6c6564000000000000000000000000000000000000000000602082015250565b60006146a6602b836137cd565b91506146b18261464a565b604082019050919050565b600060208201905081810360008301526146d581614699565b9050919050565b60006040820190506146f160008301856137be565b6146fe6020830184613342565b9392505050565b7f5061796d656e74206e6f74206163746976650000000000000000000000000000600082015250565b600061473b6012836137cd565b915061474682614705565b602082019050919050565b6000602082019050818103600083015261476a8161472e565b9050919050565b7f4e6f742079657420647565000000000000000000000000000000000000000000600082015250565b60006147a7600b836137cd565b91506147b282614771565b602082019050919050565b600060208201905081810360008301526147d68161479a565b9050919050565b7f496e73756666696369656e74206167656e742062616c616e6365000000000000600082015250565b6000614813601a836137cd565b915061481e826147dd565b602082019050919050565b6000602082019050818103600083015261484281614806565b9050919050565b600061485482613161565b915061485f83613161565b925082820390508181111561487757614876613d6a565b5b92915050565b7f4661696c656420746f2073656e64000000000000000000000000000000000000600082015250565b60006148b3600e836137cd565b91506148be8261487d565b602082019050919050565b600060208201905081810360008301526148e2816148a6565b9050919050565b7f496e73756666696369656e7420746f6b656e2062616c616e6365000000000000600082015250565b600061491f601a836137cd565b915061492a826148e9565b602082019050919050565b6000602082019050818103600083015261494e81614912565b905091905056fea264697066735822122073f6e8aba878c57ede184c9351632c3bbca14e6d0b2db6d069b8c65b1ab65b3b64736f6c634300081b0033",
  "linkReferences": {},
  "deployedLinkReferences": {}
}