{
  "_format": "hh-sol-artifact-1",
  "contractName": "AgentPay",
  "sourceName": "contracts/AgentPay.sol",
  "abi": [
    {
      "inputs": [],
      "stateMutability": "nonpayable",
      "type": "constructor"
    },
    {
      "inputs": [
        {
          "internalType": "address",
          "name": "owner",
          "type": "address"
        }
      ],
      "name": "OwnableInvalidOwner",
      "type": "error"
    },
    {
      "inputs": [
        {
          "internalType": "address",
          "name": "account",
          "type": "address"
        }
      ],
      "name": "OwnableUnauthorizedAccount",
      "type": "error"
    },
    {
      "inputs": [],
      "name": "ReentrancyGuardReentrantCall",
      "type": "error"
    },
    {
      "anonymous": false,
      "inputs": [
        {
          "indexed": true,
          "internalType": "address",
          "name": "user",
          "type": "address"
        },
        {
          "indexed": false,
          "internalType": "bool",
          "name": "isActive",
          "type": "bool"
        },
        {
          "indexed": false,
          "internalType": "uint256",
          "name": "limitPerTx",
          "type": "uint256"
        }
      ],
      "name": "AgentConfigured",
      "type": "event"
    },
    {
      "anonymous": false,
      "inputs": [
        {
          "indexed": true,
          "internalType": "uint256",
          "name": "id",
          "type": "uint256"
        },
        {
          "indexed": false,
          "internalType": "bool",
          "name": "isActive",
          "type": "bool"
        }
      ],
      "name": "AgentStatusUpdated",
      "type": "event"
    },
    {
      "anonymous": false,
      "inputs": [
        {
          "indexed": true,
          "internalType": "uint256",
          "name": "id",
          "type": "uint256"
        },
        {
          "indexed": false,
          "internalType": "uint256",
          "name": "amount",
          "type": "uint256"
        },
        {
          "indexed": false,
          "internalType": "uint256",
          "name": "tokenAmount",
          "type": "uint256"
        }
      ],
      "name": "AgentTopUp",
      "type": "event"
    },
    {
      "anonymous": false,
      "inputs": [
        {
          "indexed": true,
          "internalType": "uint256",
          "name": "id",
          "type": "uint256"
        },
        {
          "indexed": false,
          "internalType": "uint256",
          "name": "amount",
          "type": "uint256"
        },
        {
          "indexed": false,
          "internalType": "uint256",
          "name": "tokenAmount",
          "type": "uint256"
        }
      ],
      "name": "AgentWithdrawn",
      "type": "event"
    },
    {
      "anonymous": false,
      "inputs": [
        {
          "indexed": true,
          "internalType": "uint256",
          "name": "id",
          "type": "uint256"
        },
        {
          "indexed": true,
          "internalType": "address",
          "name": "creator",
          "type": "address"
        }
      ],
      "name": "InvoiceCancelled",
      "type": "event"
    },
    {
      "anonymous": false,
      "inputs": [
        {
          "indexed": true,
          "internalType": "uint256",
          "name": "id",
          "type": "uint256"
        },
        {
          "indexed": true,
          "internalType": "address",
          "name": "creator",
          "type": "address"
        },
        {
          "indexed": true,
          "internalType": "address",
          "name": "recipient",
          "type": "address"
        },
        {
          "indexed": false,
          "internalType": "uint256",
          "name": "amount",
          "type": "uint256"
        },
        {
          "indexed": false,
          "internalType": "uint256",
          "name": "dueDate",
          "type": "uint256"
        }
      ],
      "name": "InvoiceCreated",
      "type": "event"
    },
    {
      "anonymous": false,
      "inputs": [
        {
          "indexed": true,
          "internalType": "uint256",
          "name": "id",
          "type": "uint256"
        },
        {
          "indexed": true,
          "internalType": "address",
          "name": "payer",
          "type": "address"
        },
        {
          "indexed": false,
          "internalType": "uint256",
          "name": "amount",
          "type": "uint256"
        }
      ],
      "name": "InvoicePaid",
      "type": "event"
    },
    {
      "anonymous": false,
      "inputs": [
        {
          "indexed": true,
          "internalType": "address",
          "name": "previousOwner",
          "type": "address"
        },
        {
          "indexed": true,
          "internalType": "address",
          "name": "newOwner",
          "type": "address"
        }
      ],
      "name": "OwnershipTransferred",
      "type": "event"
    },
    {
      "anonymous": false,
      "inputs": [
        {
          "indexed": true,
          "internalType": "uint256",
          "name": "id",
          "type": "uint256"
        }
      ],
      "name": "ScheduledPaymentCancelled",
      "type": "event"
    },
    {
      "anonymous": false,
      "inputs": [
        {
          "indexed": true,
          "internalType": "uint256",
          "name": "id",
          "type": "uint256"
        },
        {
          "indexed": true,
          "internalType": "address",
          "name": "from",
          "type": "address"
        },
        {
          "indexed": true,
          "internalType": "address",
          "name": "to",
          "type": "address"
        },
        {
          "indexed": false,
          "internalType": "uint256",
          "name": "amount",
          "type": "uint256"
        },
        {
          "indexed": false,
          "internalType": "uint256",
          "name": "interval",
          "type": "uint256"
        }
      ],
      "name": "ScheduledPaymentCreated",
      "type": "event"
    },
    {
      "anonymous": false,
      "inputs": [
        {
          "indexed": true,
          "internalType": "uint256",
          "name": "id",
          "type": "uint256"
        },
        {
          "indexed": true,
          "internalType": "address",
          "name": "from",
          "type": "address"
        },
        {
          "indexed": true,
          "internalType": "address",
          "name": "to",
          "type": "address"
        },
        {
          "indexed": false,
          "internalType": "uint256",
          "name": "amount",
          "type": "uint256"
        }
      ],
      "name": "ScheduledPaymentExecuted",
      "type": "event"
    },
    {
      "anonymous": false,
      "inputs": [
        {
          "indexed": true,
          "internalType": "uint256",
          "name": "id",
          "type": "uint256"
        },
        {
          "indexed": false,
          "internalType": "uint256",
          "name": "endDate",
          "type": "uint256"
        }
      ],
      "name": "ScheduledPaymentUpdated",
      "type": "event"
    },
    {
      "inputs": [
        {
          "internalType": "address",
          "name": "",
          "type": "address"
        }
      ],
      "name": "agentConfigs",
      "outputs": [
        {
          "internalType": "bool",
          "name": "isActive",
          "type": "bool"
        },
        {
          "internalType": "uint256",
          "name": "limitPerTx",
          "type": "uint256"
        },
        {
          "internalType": "address",
          "name": "allowedRecipient",
          "type": "address"
        },
        {
          "internalType": "uint256",
          "name": "interval",
          "type": "uint256"
        },
        {
          "internalType": "uint256",
          "name": "lastExecuted",
          "type": "uint256"
        }
      ],
      "stateMutability": "view",
      "type": "function"
    },
    {
      "inputs": [
        {
          "internalType": "uint256",
          "name": "_id",
          "type": "uint256"
        }
      ],
      "name": "cancelInvoice",
      "outputs": [],
      "stateMutability": "nonpayable",
      "type": "function"
    },
    {
      "inputs": [
        {
          "internalType": "uint256",
          "name": "_id",
          "type": "uint256"
        }
      ],
      "name": "cancelScheduledPayment",
      "outputs": [],
      "stateMutability": "nonpayable",
      "type": "function"
    },
    {
      "inputs": [
        {
          "internalType": "bool",
          "name": "_isActive",
          "type": "bool"
        },
        {
          "internalType": "uint256",
          "name": "_limitPerTx",
          "type": "uint256"
        },
        {
          "internalType": "address",
          "name": "_allowedRecipient",
          "type": "address"
        },
        {
          "internalType": "uint256",
          "name": "_interval",
          "type": "uint256"
        }
      ],
      "name": "configureAgent",
      "outputs": [],
      "stateMutability": "nonpayable",
      "type": "function"
    },
    {
      "inputs": [
        {
          "internalType": "address",
          "name": "_recipient",
          "type": "address"
        },
        {
          "internalType": "uint256",
          "name": "_amount",
          "type": "uint256"
        },
        {
          "internalType": "address",
          "name": "_token",
          "type": "address"
        },
        {
          "internalType": "string",
          "name": "_metadataHash",
          "type": "string"
        },
        {
          "internalType": "uint256",
          "name": "_dueDate",
          "type": "uint256"
        }
      ],
      "name": "createInvoice",
      "outputs": [
        {
          "internalType": "uint256",
          "name": "",
          "type": "uint256"
        }
      ],
      "stateMutability": "nonpayable",
      "type": "function"
    },
    {
      "inputs": [
        {
          "internalType": "address",
          "name": "_to",
          "type": "address"
        },
        {
          "internalType": "uint256",
          "name": "_amount",
          "type": "uint256"
        },
        {
          "internalType": "address",
          "name": "_token",
          "type": "address"
        },
        {
          "internalType": "uint256",
          "name": "_interval",
          "type": "uint256"
        },
        {
          "internalType": "string",
          "name": "_description",
          "type": "string"
        },
        {
          "internalType": "uint256",
          "name": "_initialTokenDeposit",
          "type": "uint256"
        },
        {
          "internalType": "uint256",
          "name": "_endDate",
          "type": "uint256"
        }
      ],
      "name": "createScheduledPayment",
      "outputs": [
        {
          "internalType": "uint256",
          "name": "",
          "type": "uint256"
        }
      ],
      "stateMutability": "payable",
      "type": "function"
    },
    {
      "inputs": [
        {
          "internalType": "uint256",
          "name": "_id",
          "type": "uint256"
        }
      ],
      "name": "executeScheduledPayment",
      "outputs": [],
      "stateMutability": "nonpayable",
      "type": "function"
    },
    {
      "inputs": [
        {
          "internalType": "address",
          "name": "_user",
          "type": "address"
        }
      ],
      "name": "getAgentConfig",
      "outputs": [
        {
          "components": [
            {
              "internalType": "bool",
              "name": "isActive",
              "type": "bool"
            },
            {
              "internalType": "uint256",
              "name": "limitPerTx",
              "type": "uint256"
            },
            {
              "internalType": "address",
              "name": "allowedRecipient",
              "type": "address"
            },
            {
              "internalType": "uint256",
              "name": "interval",
              "type": "uint256"
            },
            {
              "internalType": "uint256",
              "name": "lastExecuted",
              "type": "uint256"
            }
          ],
          "internalType": "struct AgentPay.AgentConfig",
          "name": "",
          "type": "tuple"
        }
      ],
      "stateMutability": "view",
      "type": "function"
    },
    {
      "inputs": [
        {
          "internalType": "uint256",
          "name": "_id",
          "type": "uint256"
        }
      ],
      "name": "getInvoice",
      "outputs": [
        {
          "components": [
            {
              "internalType": "uint256",
              "name": "id",
              "type": "uint256"
            },
            {
              "internalType": "address",
              "name": "creator",
              "type": "address"
            },
            {
              "internalType": "address",
              "name": "recipient",
              "type": "address"
            },
            {
              "internalType": "uint256",
              "name": "amount",
              "type": "uint256"
            },
            {
              "internalType": "address",
              "name": "token",
              "type": "address"
            },
            {
              "internalType": "string",
              "name": "metadataHash",
              "type": "string"
            },
            {
              "internalType": "bool",
              "name": "paid",
              "type": "bool"
            },
            {
              "internalType": "uint256",
              "name": "dueDate",
              "type": "uint256"
            },
            {
              "internalType": "uint256",
              "name": "createdAt",
              "type": "uint256"
            }
          ],
          "internalType": "struct AgentPay.Invoice",
          "name": "",
          "type": "tuple"
        }
      ],
      "stateMutability": "view",
      "type": "function"
    },
    {
      "inputs": [],
      "name": "getInvoiceCount",
      "outputs": [
        {
          "internalType": "uint256",
          "name": "",
          "type": "uint256"
        }
      ],
      "stateMutability": "view",
      "type": "function"
    },
    {
      "inputs": [
        {
          "internalType": "uint256",
          "name": "_id",
          "type": "uint256"
        }
      ],
      "name": "getScheduledPayment",
      "outputs": [
        {
          "components": [
            {
              "internalType": "uint256",
              "name": "id",
              "type": "uint256"
            },
            {
              "internalType": "address",
              "name": "from",
              "type": "address"
            },
            {
              "internalType": "address",
              "name": "to",
              "type": "address"
            },
            {
              "internalType": "uint256",
              "name": "amount",
              "type": "uint256"
            },
            {
              "internalType": "address",
              "name": "token",
              "type": "address"
            },
            {
              "internalType": "uint256",
              "name": "nextExecution",
              "type": "uint256"
            },
            {
              "internalType": "uint256",
              "name": "interval",
              "type": "uint256"
            },
            {
              "internalType": "bool",
              "name": "isActive",
              "type": "bool"
            },
            {
              "internalType": "string",
              "name": "description",
              "type": "string"
            },
            {
              "internalType": "uint256",
              "name": "balance",
              "type": "uint256"
            },
            {
              "internalType": "uint256",
              "name": "tokenBalance",
              "type": "uint256"
            },
            {
              "internalType": "uint256",
              "name": "endDate",
              "type": "uint256"
            }
          ],
          "internalType": "struct AgentPay.ScheduledPayment",
          "name": "",
          "type": "tuple"
        }
      ],
      "stateMutability": "view",
      "type": "function"
    },
    {
      "inputs": [
        {
          "internalType": "address",
          "name": "_user",
          "type": "address"
        }
      ],
      "name": "getUserCreatedInvoices",
      "outputs": [
        {
          "internalType": "uint256[]",
          "name": "",
          "type": "uint256[]"
        }
      ],
      "stateMutability": "view",
      "type": "function"
    },
    {
      "inputs": [
        {
          "internalType": "address",
          "name": "_user",
          "type": "address"
        }
      ],
      "name": "getUserReceivedInvoices",
      "outputs": [
        {
          "internalType": "uint256[]",
          "name": "",
          "type": "uint256[]"
        }
      ],
      "stateMutability": "view",
      "type": "function"
    },
    {
      "inputs": [
        {
          "internalType": "address",
          "name": "_user",
          "type": "address"
        }
      ],
      "name": "getUserScheduledPayments",
      "outputs": [
        {
          "internalType": "uint256[]",
          "name": "",
          "type": "uint256[]"
        }
      ],
      "stateMutability": "view",
      "type": "function"
    },
    {
      "inputs": [
        {
          "internalType": "address",
          "name": "_user",
          "type": "address"
        }
      ],
      "name": "getUserStats",
      "outputs": [
        {
          "internalType": "uint256",
          "name": "createdCount",
          "type": "uint256"
        },
        {
          "internalType": "uint256",
          "name": "receivedCount",
          "type": "uint256"
        },
        {
          "internalType": "uint256",
          "name": "totalPaid",
          "type": "uint256"
        },
        {
          "internalType": "uint256",
          "name": "totalReceived",
          "type": "uint256"
        },
        {
          "internalType": "uint256",
          "name": "scheduledCount",
          "type": "uint256"
        }
      ],
      "stateMutability": "view",
      "type": "function"
    },
    {
      "inputs": [
        {
          "internalType": "uint256",
          "name": "",
          "type": "uint256"
        }
      ],
      "name": "invoices",
      "outputs": [
        {
          "internalType": "uint256",
          "name": "id",
          "type": "uint256"
        },
        {
          "internalType": "address",
          "name": "creator",
          "type": "address"
        },
        {
          "internalType": "address",
          "name": "recipient",
          "type": "address"
        },
        {
          "internalType": "uint256",
          "name": "amount",
          "type": "uint256"
        },
        {
          "internalType": "address",
          "name": "token",
          "type": "address"
        },
        {
          "internalType": "string",
          "name": "metadataHash",
          "type": "string"
        },
        {
          "internalType": "bool",
          "name": "paid",
          "type": "bool"
        },
        {
          "internalType": "uint256",
          "name": "dueDate",
          "type": "uint256"
        },
        {
          "internalType": "uint256",
          "name": "createdAt",
          "type": "uint256"
        }
      ],
      "stateMutability": "view",
      "type": "function"
    },
    {
      "inputs": [],
      "name": "nextInvoiceId",
      "outputs": [
        {
          "internalType": "uint256",
          "name": "",
          "type": "uint256"
        }
      ],
      "stateMutability": "view",
      "type": "function"
    },
    {
      "inputs": [],
      "name": "nextScheduledPaymentId",
      "outputs": [
        {
          "internalType": "uint256",
          "name": "",
          "type": "uint256"
        }
      ],
      "stateMutability": "view",
      "type": "function"
    },
    {
      "inputs": [],
      "name": "owner",
      "outputs": [
        {
          "internalType": "address",
          "name": "",
          "type": "address"
        }
      ],
      "stateMutability": "view",
      "type": "function"
    },
    {
      "inputs": [
        {
          "internalType": "uint256",
          "name": "_id",
          "type": "uint256"
        }
      ],
      "name": "payInvoice",
      "outputs": [],
      "stateMutability": "payable",
      "type": "function"
    },
    {
      "inputs": [],
      "name": "renounceOwnership",
      "outputs": [],
      "stateMutability": "nonpayable",
      "type": "function"
    },
    {
      "inputs": [
        {
          "internalType": "uint256",
          "name": "",
          "type": "uint256"
        }
      ],
      "name": "scheduledPayments",
      "outputs": [
        {
          "internalType": "uint256",
          "name": "id",
          "type": "uint256"
        },
        {
          "internalType": "address",
          "name": "from",
          "type": "address"
        },
        {
          "internalType": "address",
          "name": "to",
          "type": "address"
        },
        {
          "internalType": "uint256",
          "name": "amount",
          "type": "uint256"
        },
        {
          "internalType": "address",
          "name": "token",
          "type": "address"
        },
        {
          "internalType": "uint256",
          "name": "nextExecution",
          "type": "uint256"
        },
        {
          "internalType": "uint256",
          "name": "interval",
          "type": "uint256"
        },
        {
          "internalType": "bool",
          "name": "isActive",
          "type": "bool"
        },
        {
          "internalType": "string",
          "name": "description",
          "type": "string"
        },
        {
          "internalType": "uint256",
          "name": "balance",
          "type": "uint256"
        },
        {
          "internalType": "uint256",
          "name": "tokenBalance",
          "type": "uint256"
        },
        {
          "internalType": "uint256",
          "name": "endDate",
          "type": "uint256"
        }
      ],
      "stateMutability": "view",
      "type": "function"
    },
    {
      "inputs": [
        {
          "internalType": "uint256",
          "name": "_id",
          "type": "uint256"
        },
        {
          "internalType": "bool",
          "name": "_isActive",
          "type": "bool"
        }
      ],
      "name": "toggleAgentStatus",
      "outputs": [],
      "stateMutability": "nonpayable",
      "type": "function"
    },
    {
      "inputs": [
        {
          "internalType": "uint256",
          "name": "_id",
          "type": "uint256"
        },
        {
          "internalType": "uint256",
          "name": "_tokenAmount",
          "type": "uint256"
        }
      ],
      "name": "topUpAgent",
      "outputs": [],
      "stateMutability": "payable",
      "type": "function"
    },
    {
      "inputs": [
        {
          "internalType": "address",
          "name": "",
          "type": "address"
        }
      ],
      "name": "totalPaidByUser",
      "outputs": [
        {
          "internalType": "uint256",
          "name": "",
          "type": "uint256"
        }
      ],
      "stateMutability": "view",
      "type": "function"
    },
    {
      "inputs": [
        {
          "internalType": "address",
          "name": "",
          "type": "address"
        }
      ],
      "name": "totalReceivedByUser",
      "outputs": [
        {
          "internalType": "uint256",
          "name": "",
          "type": "uint256"
        }
      ],
      "stateMutability": "view",
      "type": "function"
    },
    {
      "inputs": [
        {
          "internalType": "address",
          "name": "newOwner",
          "type": "address"
        }
      ],
      "name": "transferOwnership",
      "outputs": [],
      "stateMutability": "nonpayable",
      "type": "function"
    },
    {
      "inputs": [
        {
          "internalType": "uint256",
          "name": "_id",
          "type": "uint256"
        },
        {
          "internalType": "uint256",
          "name": "_endDate",
          "type": "uint256"
        }
      ],
      "name": "updateScheduledPayment",
      "outputs": [],
      "stateMutability": "nonpayable",
      "type": "function"
    },
    {
      "stateMutability": "payable",
      "type": "receive"
    }
  ],
  "bytecode": "0x608060405234801561001057600080fd5b5033600073ffffffffffffffffffffffffffffffffffffffff168173ffffffffffffffffffffffffffffffffffffffff16036100845760006040517f1e4fbdf700000000000000000000000000000000000000000000000000000000815260040161007b91906101a5565b60405180910390fd5b610093816100a060201b60201c565b50600180819055506101c0565b60008060009054906101000a900473ffffffffffffffffffffffffffffffffffffffff169050816000806101000a81548173ffffffffffffffffffffffffffffffffffffffff021916908373ffffffffffffffffffffffffffffffffffffffff1602179055508173ffffffffffffffffffffffffffffffffffffffff168173ffffffffffffffffffffffffffffffffffffffff167f8be0079c531659141344cd1fd0a4f28419497f9722a3daafe3b4186f6b6457e060405160405180910390a35050565b600073ffffffffffffffffffffffffffffffffffffffff82169050919050565b600061018f82610164565b9050919050565b61019f81610184565b82525050565b60006020820190506101ba6000830184610196565b92915050565b614d7a806101cf6000396000f3fe6080604052600436106101bb5760003560e01c80638c5a2abf116100ec578063bc656bfe1161008a578063ed0cbbfb11610064578063ed0cbbfb14610689578063f2fde38b146106ca578063f5a772ef146106f3578063fb8cf5d61461071c576101c2565b8063bc656bfe14610605578063c8a1270d14610630578063da9c273d14610660576101c2565b806396e5ca85116100c657806396e5ca8514610546578063a27bc4d214610583578063ac60a6cd146105ac578063b3d15316146105c8576101c2565b80638c5a2abf146104b55780638da5cb5b146104de5780639633e41c14610509576101c2565b80634e6d1405116101595780636ff2a953116101335780636ff2a9531461040b578063715018a61461043657806378ee58931461044d5780637d6a59ed1461048a576101c2565b80634e6d14051461036057806356bad863146103a55780635eebd3d6146103e2576101c2565b8063372f70a711610195578063372f70a71461025d5780633a23cc0a1461029a5780633c258520146102d75780634e43603a1461031f576101c2565b80630b2bf60c146101c75780632e337f5b146101e357806334e8c1a414610220576101c2565b366101c257005b600080fd5b6101e160048036038101906101dc91906134e1565b610745565b005b3480156101ef57600080fd5b5061020a6004803603810190610205919061357f565b610938565b604051610217919061366a565b60405180910390f35b34801561022c57600080fd5b506102476004803603810190610242919061357f565b6109cf565b604051610254919061369b565b60405180910390f35b34801561026957600080fd5b50610284600480360381019061027f91906137fc565b6109e7565b604051610291919061369b565b60405180910390f35b3480156102a657600080fd5b506102c160048036038101906102bc9190613893565b610dc5565b6040516102ce9190613a2e565b60405180910390f35b3480156102e357600080fd5b506102fe60048036038101906102f99190613893565b610fca565b6040516103169c9b9a99989796959493929190613ab8565b60405180910390f35b34801561032b57600080fd5b506103466004803603810190610341919061357f565b61111f565b604051610357959493929190613b79565b60405180910390f35b34801561036c57600080fd5b5061038760048036038101906103829190613893565b611283565b60405161039c99989796959493929190613bcc565b60405180910390f35b3480156103b157600080fd5b506103cc60048036038101906103c7919061357f565b6113c6565b6040516103d99190613cc8565b60405180910390f35b3480156103ee57600080fd5b5061040960048036038101906104049190613d0f565b6114ae565b005b34801561041757600080fd5b506104206115b0565b60405161042d919061369b565b60405180910390f35b34801561044257600080fd5b5061044b6115b6565b005b34801561045957600080fd5b50610474600480360381019061046f9190613893565b6115ca565b6040516104819190613e53565b60405180910390f35b34801561049657600080fd5b5061049f6117ed565b6040516104ac919061369b565b60405180910390f35b3480156104c157600080fd5b506104dc60048036038101906104d791906134e1565b6117f7565b005b3480156104ea57600080fd5b506104f3611995565b6040516105009190613e75565b60405180910390f35b34801561051557600080fd5b50610530600480360381019061052b919061357f565b6119be565b60405161053d919061369b565b60405180910390f35b34801561055257600080fd5b5061056d6004803603810190610568919061357f565b6119d6565b60405161057a919061366a565b60405180910390f35b34801561058f57600080fd5b506105aa60048036038101906105a59190613893565b611a6d565b005b6105c660048036038101906105c19190613893565b611e4c565b005b3480156105d457600080fd5b506105ef60048036038101906105ea919061357f565b61229a565b6040516105fc919061366a565b60405180910390f35b34801561061157600080fd5b5061061a612331565b604051610627919061369b565b60405180910390f35b61064a60048036038101906106459190613e90565b612337565b604051610657919061369b565b60405180910390f35b34801561066c57600080fd5b5061068760048036038101906106829190613893565b61285c565b005b34801561069557600080fd5b506106b060048036038101906106ab919061357f565b6129f0565b6040516106c1959493929190613f4e565b60405180910390f35b3480156106d657600080fd5b506106f160048036038101906106ec919061357f565b612a53565b005b3480156106ff57600080fd5b5061071a60048036038101906107159190613fa1565b612ad9565b005b34801561072857600080fd5b50610743600480360381019061073e9190613893565b612c36565b005b60006006600084815260200190815260200160002090508060070160009054906101000a900460ff166107ad576040517f08c379a00000000000000000000000000000000000000000000000000000000081526004016107a490614054565b60405180910390fd5b600073ffffffffffffffffffffffffffffffffffffffff168160040160009054906101000a900473ffffffffffffffffffffffffffffffffffffffff1673ffffffffffffffffffffffffffffffffffffffff161415801561080e5750600082115b156108d4578060040160009054906101000a900473ffffffffffffffffffffffffffffffffffffffff1673ffffffffffffffffffffffffffffffffffffffff166323b872dd3330856040518463ffffffff1660e01b815260040161087493929190614074565b6020604051808303816000875af1158015610893573d6000803e3d6000fd5b505050506040513d601f19601f820116820180604052508101906108b791906140c0565b508181600a0160008282546108cc919061411c565b925050819055505b60003411156108f957348160090160008282546108f1919061411c565b925050819055505b827f77f2460bc4014658a03824c31329bb19daec9d93da444242d1aa6e889072ad7a348460405161092b929190614150565b60405180910390a2505050565b6060600960008373ffffffffffffffffffffffffffffffffffffffff1673ffffffffffffffffffffffffffffffffffffffff1681526020019081526020016000208054806020026020016040519081016040528092919081815260200182805480156109c357602002820191906000526020600020905b8154815260200190600101908083116109af575b50505050509050919050565b600b6020528060005260406000206000915090505481565b60008073ffffffffffffffffffffffffffffffffffffffff168673ffffffffffffffffffffffffffffffffffffffff1603610a57576040517f08c379a0000000000000000000000000000000000000000000000000000000008152600401610a4e906141c5565b60405180910390fd5b60008511610a9a576040517f08c379a0000000000000000000000000000000000000000000000000000000008152600401610a9190614231565b60405180910390fd5b600060026000815480929190610aaf90614251565b9190505590506040518061012001604052808281526020013373ffffffffffffffffffffffffffffffffffffffff1681526020018873ffffffffffffffffffffffffffffffffffffffff1681526020018781526020018673ffffffffffffffffffffffffffffffffffffffff16815260200185815260200160001515815260200184815260200142815250600460008381526020019081526020016000206000820151816000015560208201518160010160006101000a81548173ffffffffffffffffffffffffffffffffffffffff021916908373ffffffffffffffffffffffffffffffffffffffff16021790555060408201518160020160006101000a81548173ffffffffffffffffffffffffffffffffffffffff021916908373ffffffffffffffffffffffffffffffffffffffff1602179055506060820151816003015560808201518160040160006101000a81548173ffffffffffffffffffffffffffffffffffffffff021916908373ffffffffffffffffffffffffffffffffffffffff16021790555060a0820151816005019081610c4b91906144a5565b5060c08201518160060160006101000a81548160ff02191690831515021790555060e082015181600701556101008201518160080155905050600760003373ffffffffffffffffffffffffffffffffffffffff1673ffffffffffffffffffffffffffffffffffffffff168152602001908152602001600020819080600181540180825580915050600190039060005260206000200160009091909190915055600860008873ffffffffffffffffffffffffffffffffffffffff1673ffffffffffffffffffffffffffffffffffffffff1681526020019081526020016000208190806001815401808255809150506001900390600052602060002001600090919091909150558673ffffffffffffffffffffffffffffffffffffffff163373ffffffffffffffffffffffffffffffffffffffff16827f3fbaae0f1597d7f24bf2231a5fe5248190743aecc5f3da7126965e14e3f1ca4d8987604051610db0929190614150565b60405180910390a48091505095945050505050565b610dcd61331b565b6004600083815260200190815260200160002060405180610120016040529081600082015481526020016001820160009054906101000a900473ffffffffffffffffffffffffffffffffffffffff1673ffffffffffffffffffffffffffffffffffffffff1673ffffffffffffffffffffffffffffffffffffffff1681526020016002820160009054906101000a900473ffffffffffffffffffffffffffffffffffffffff1673ffffffffffffffffffffffffffffffffffffffff1673ffffffffffffffffffffffffffffffffffffffff168152602001600382015481526020016004820160009054906101000a900473ffffffffffffffffffffffffffffffffffffffff1673ffffffffffffffffffffffffffffffffffffffff1673ffffffffffffffffffffffffffffffffffffffff168152602001600582018054610f12906142c8565b80601f0160208091040260200160405190810160405280929190818152602001828054610f3e906142c8565b8015610f8b5780601f10610f6057610100808354040283529160200191610f8b565b820191906000526020600020905b815481529060010190602001808311610f6e57829003601f168201915b505050505081526020016006820160009054906101000a900460ff16151515158152602001600782015481526020016008820154815250509050919050565b60066020528060005260406000206000915090508060000154908060010160009054906101000a900473ffffffffffffffffffffffffffffffffffffffff16908060020160009054906101000a900473ffffffffffffffffffffffffffffffffffffffff16908060030154908060040160009054906101000a900473ffffffffffffffffffffffffffffffffffffffff16908060050154908060060154908060070160009054906101000a900460ff169080600801805461108a906142c8565b80601f01602080910402602001604051908101604052809291908181526020018280546110b6906142c8565b80156111035780601f106110d857610100808354040283529160200191611103565b820191906000526020600020905b8154815290600101906020018083116110e657829003601f168201915b50505050509080600901549080600a01549080600b015490508c565b6000806000806000600760008773ffffffffffffffffffffffffffffffffffffffff1673ffffffffffffffffffffffffffffffffffffffff16815260200190815260200160002080549050600860008873ffffffffffffffffffffffffffffffffffffffff1673ffffffffffffffffffffffffffffffffffffffff16815260200190815260200160002080549050600a60008973ffffffffffffffffffffffffffffffffffffffff1673ffffffffffffffffffffffffffffffffffffffff16815260200190815260200160002054600b60008a73ffffffffffffffffffffffffffffffffffffffff1673ffffffffffffffffffffffffffffffffffffffff16815260200190815260200160002054600960008b73ffffffffffffffffffffffffffffffffffffffff1673ffffffffffffffffffffffffffffffffffffffff168152602001908152602001600020805490509450945094509450945091939590929450565b60046020528060005260406000206000915090508060000154908060010160009054906101000a900473ffffffffffffffffffffffffffffffffffffffff16908060020160009054906101000a900473ffffffffffffffffffffffffffffffffffffffff16908060030154908060040160009054906101000a900473ffffffffffffffffffffffffffffffffffffffff1690806005018054611324906142c8565b80601f0160208091040260200160405190810160405280929190818152602001828054611350906142c8565b801561139d5780601f106113725761010080835404028352916020019161139d565b820191906000526020600020905b81548152906001019060200180831161138057829003601f168201915b5050505050908060060160009054906101000a900460ff16908060070154908060080154905089565b6113ce6133ab565b600560008373ffffffffffffffffffffffffffffffffffffffff1673ffffffffffffffffffffffffffffffffffffffff1681526020019081526020016000206040518060a00160405290816000820160009054906101000a900460ff16151515158152602001600182015481526020016002820160009054906101000a900473ffffffffffffffffffffffffffffffffffffffff1673ffffffffffffffffffffffffffffffffffffffff1673ffffffffffffffffffffffffffffffffffffffff168152602001600382015481526020016004820154815250509050919050565b60006006600084815260200190815260200160002090503373ffffffffffffffffffffffffffffffffffffffff168160010160009054906101000a900473ffffffffffffffffffffffffffffffffffffffff1673ffffffffffffffffffffffffffffffffffffffff1614611557576040517f08c379a000000000000000000000000000000000000000000000000000000000815260040161154e906145c3565b60405180910390fd5b818160070160006101000a81548160ff021916908315150217905550827f6abccd5934f543a8605838d91768257de5521383bdb2aa5f286bc01dc9433563836040516115a391906145e3565b60405180910390a2505050565b60025481565b6115be613104565b6115c8600061318b565b565b6115d26133f2565b6006600083815260200190815260200160002060405180610180016040529081600082015481526020016001820160009054906101000a900473ffffffffffffffffffffffffffffffffffffffff1673ffffffffffffffffffffffffffffffffffffffff1673ffffffffffffffffffffffffffffffffffffffff1681526020016002820160009054906101000a900473ffffffffffffffffffffffffffffffffffffffff1673ffffffffffffffffffffffffffffffffffffffff1673ffffffffffffffffffffffffffffffffffffffff168152602001600382015481526020016004820160009054906101000a900473ffffffffffffffffffffffffffffffffffffffff1673ffffffffffffffffffffffffffffffffffffffff1673ffffffffffffffffffffffffffffffffffffffff16815260200160058201548152602001600682015481526020016007820160009054906101000a900460ff16151515158152602001600882018054611746906142c8565b80601f0160208091040260200160405190810160405280929190818152602001828054611772906142c8565b80156117bf5780601f10611794576101008083540402835291602001916117bf565b820191906000526020600020905b8154815290600101906020018083116117a257829003601f168201915b5050505050815260200160098201548152602001600a8201548152602001600b820154815250509050919050565b6000600254905090565b60006006600084815260200190815260200160002090503373ffffffffffffffffffffffffffffffffffffffff168160010160009054906101000a900473ffffffffffffffffffffffffffffffffffffffff1673ffffffffffffffffffffffffffffffffffffffff16146118a0576040517f08c379a0000000000000000000000000000000000000000000000000000000008152600401611897906145c3565b60405180910390fd5b8060070160009054906101000a900460ff166118f1576040517f08c379a00000000000000000000000000000000000000000000000000000000081526004016118e890614054565b60405180910390fd5b6000821461194f576000611908826006015461324f565b90508083101561194d576040517f08c379a00000000000000000000000000000000000000000000000000000000081526004016119449061464a565b60405180910390fd5b505b8181600b0181905550827fab9bfee2e136ce409aa530b138e54b2f00398127fc44d8a4222bc8946100eeeb83604051611988919061369b565b60405180910390a2505050565b60008060009054906101000a900473ffffffffffffffffffffffffffffffffffffffff16905090565b600a6020528060005260406000206000915090505481565b6060600860008373ffffffffffffffffffffffffffffffffffffffff1673ffffffffffffffffffffffffffffffffffffffff168152602001908152602001600020805480602002602001604051908101604052809291908181526020018280548015611a6157602002820191906000526020600020905b815481526020019060010190808311611a4d575b50505050509050919050565b611a756132c4565b60006006600083815260200190815260200160002090503373ffffffffffffffffffffffffffffffffffffffff168160010160009054906101000a900473ffffffffffffffffffffffffffffffffffffffff1673ffffffffffffffffffffffffffffffffffffffff1614611b1e576040517f08c379a0000000000000000000000000000000000000000000000000000000008152600401611b15906145c3565b60405180910390fd5b8060070160009054906101000a900460ff16611b6f576040517f08c379a0000000000000000000000000000000000000000000000000000000008152600401611b66906146b6565b60405180910390fd5b60008160070160006101000a81548160ff021916908315150217905550600080600083600901541115611c7f57826009015491506000836009018190555060008360010160009054906101000a900473ffffffffffffffffffffffffffffffffffffffff1673ffffffffffffffffffffffffffffffffffffffff1683604051611bf790614707565b60006040518083038185875af1925050503d8060008114611c34576040519150601f19603f3d011682016040523d82523d6000602084013e611c39565b606091505b5050905080611c7d576040517f08c379a0000000000000000000000000000000000000000000000000000000008152600401611c7490614768565b60405180910390fd5b505b600073ffffffffffffffffffffffffffffffffffffffff168360040160009054906101000a900473ffffffffffffffffffffffffffffffffffffffff1673ffffffffffffffffffffffffffffffffffffffff1614158015611ce45750600083600a0154115b15611dc25782600a01549050600083600a01819055508260040160009054906101000a900473ffffffffffffffffffffffffffffffffffffffff1673ffffffffffffffffffffffffffffffffffffffff1663a9059cbb8460010160009054906101000a900473ffffffffffffffffffffffffffffffffffffffff16836040518363ffffffff1660e01b8152600401611d7d929190614788565b6020604051808303816000875af1158015611d9c573d6000803e3d6000fd5b505050506040513d601f19601f82011682018060405250810190611dc091906140c0565b505b837fa923c88fcdba3ef914ef2cd253567d255d171ae587e21e1c1cb67c89985b1d8360405160405180910390a26000821180611dfe5750600081115b15611e3e57837f96907d778c1d60986d2a2dfec9bd5f67250747ea3d3367df465da3303d9d64618383604051611e35929190614150565b60405180910390a25b505050611e4961330a565b50565b611e546132c4565b60006004600083815260200190815260200160002090508060060160009054906101000a900460ff1615611ebd576040517f08c379a0000000000000000000000000000000000000000000000000000000008152600401611eb4906147fd565b60405180910390fd5b6000816003015411611f04576040517f08c379a0000000000000000000000000000000000000000000000000000000008152600401611efb90614869565b60405180910390fd5b600073ffffffffffffffffffffffffffffffffffffffff168160040160009054906101000a900473ffffffffffffffffffffffffffffffffffffffff1673ffffffffffffffffffffffffffffffffffffffff16036120785780600301543414611fa2576040517f08c379a0000000000000000000000000000000000000000000000000000000008152600401611f99906148d5565b60405180910390fd5b60008160010160009054906101000a900473ffffffffffffffffffffffffffffffffffffffff1673ffffffffffffffffffffffffffffffffffffffff1634604051611fec90614707565b60006040518083038185875af1925050503d8060008114612029576040519150601f19603f3d011682016040523d82523d6000602084013e61202e565b606091505b5050905080612072576040517f08c379a000000000000000000000000000000000000000000000000000000000815260040161206990614941565b60405180910390fd5b50612146565b8060040160009054906101000a900473ffffffffffffffffffffffffffffffffffffffff1673ffffffffffffffffffffffffffffffffffffffff166323b872dd338360010160009054906101000a900473ffffffffffffffffffffffffffffffffffffffff1684600301546040518463ffffffff1660e01b815260040161210193929190614074565b6020604051808303816000875af1158015612120573d6000803e3d6000fd5b505050506040513d601f19601f8201168201806040525081019061214491906140c0565b505b60018160060160006101000a81548160ff0219169083151502179055508060030154600a60003373ffffffffffffffffffffffffffffffffffffffff1673ffffffffffffffffffffffffffffffffffffffff16815260200190815260200160002060008282546121b6919061411c565b925050819055508060030154600b60008360010160009054906101000a900473ffffffffffffffffffffffffffffffffffffffff1673ffffffffffffffffffffffffffffffffffffffff1673ffffffffffffffffffffffffffffffffffffffff1681526020019081526020016000206000828254612234919061411c565b925050819055503373ffffffffffffffffffffffffffffffffffffffff16827fa6abfda59e12fa300d17e1aa76bd3233eaf23ee4feb4b02b6516ad1d60be84008360030154604051612286919061369b565b60405180910390a35061229761330a565b50565b6060600760008373ffffffffffffffffffffffffffffffffffffffff1673ffffffffffffffffffffffffffffffffffffffff16815260200190815260200160002080548060200260200160405190810160405280929190818152602001828054801561232557602002820191906000526020600020905b815481526020019060010190808311612311575b50505050509050919050565b60035481565b60008073ffffffffffffffffffffffffffffffffffffffff168873ffffffffffffffffffffffffffffffffffffffff16036123a7576040517f08c379a000000000000000000000000000000000000000000000000000000000815260040161239e906141c5565b60405180910390fd5b600087116123ea576040517f08c379a00000000000000000000000000000000000000000000000000000000081526004016123e190614231565b60405180910390fd5b600082146124445760006123fd8661324f565b905080831015612442576040517f08c379a00000000000000000000000000000000000000000000000000000000081526004016124399061464a565b60405180910390fd5b505b600073ffffffffffffffffffffffffffffffffffffffff168673ffffffffffffffffffffffffffffffffffffffff16141580156124815750600083115b15612508578573ffffffffffffffffffffffffffffffffffffffff166323b872dd3330866040518463ffffffff1660e01b81526004016124c393929190614074565b6020604051808303816000875af11580156124e2573d6000803e3d6000fd5b505050506040513d601f19601f8201168201806040525081019061250691906140c0565b505b60006003600081548092919061251d90614251565b9190505590506040518061018001604052808281526020013373ffffffffffffffffffffffffffffffffffffffff1681526020018a73ffffffffffffffffffffffffffffffffffffffff1681526020018981526020018873ffffffffffffffffffffffffffffffffffffffff168152602001874261259b919061411c565b815260200187815260200160011515815260200186815260200134815260200185815260200184815250600660008381526020019081526020016000206000820151816000015560208201518160010160006101000a81548173ffffffffffffffffffffffffffffffffffffffff021916908373ffffffffffffffffffffffffffffffffffffffff16021790555060408201518160020160006101000a81548173ffffffffffffffffffffffffffffffffffffffff021916908373ffffffffffffffffffffffffffffffffffffffff1602179055506060820151816003015560808201518160040160006101000a81548173ffffffffffffffffffffffffffffffffffffffff021916908373ffffffffffffffffffffffffffffffffffffffff16021790555060a0820151816005015560c0820151816006015560e08201518160070160006101000a81548160ff02191690831515021790555061010082015181600801908161270b91906144a5565b50610120820151816009015561014082015181600a015561016082015181600b0155905050600960003373ffffffffffffffffffffffffffffffffffffffff1673ffffffffffffffffffffffffffffffffffffffff1681526020019081526020016000208190806001815401808255809150506001900390600052602060002001600090919091909150558873ffffffffffffffffffffffffffffffffffffffff163373ffffffffffffffffffffffffffffffffffffffff16827fb272b7ba744e64ed131e7fd6a1abcb3ff4d3541979a489a829f325c0a243ad098b8a6040516127f6929190614150565b60405180910390a4600034118061280d5750600084115b1561284d57807f77f2460bc4014658a03824c31329bb19daec9d93da444242d1aa6e889072ad7a3486604051612844929190614150565b60405180910390a25b80915050979650505050505050565b60006004600083815260200190815260200160002090503373ffffffffffffffffffffffffffffffffffffffff168160010160009054906101000a900473ffffffffffffffffffffffffffffffffffffffff1673ffffffffffffffffffffffffffffffffffffffff1614612905576040517f08c379a00000000000000000000000000000000000000000000000000000000081526004016128fc906149ad565b60405180910390fd5b8060060160009054906101000a900460ff1615612957576040517f08c379a000000000000000000000000000000000000000000000000000000000815260040161294e90614a19565b60405180910390fd5b600081600301541161299e576040517f08c379a000000000000000000000000000000000000000000000000000000000815260040161299590614aab565b60405180910390fd5b600081600301819055503373ffffffffffffffffffffffffffffffffffffffff16827f1893bd55c53ca5d28463267b3794ea27b1c3fc3b0cc5f86e0c5b613ad4156f0860405160405180910390a35050565b60056020528060005260406000206000915090508060000160009054906101000a900460ff16908060010154908060020160009054906101000a900473ffffffffffffffffffffffffffffffffffffffff16908060030154908060040154905085565b612a5b613104565b600073ffffffffffffffffffffffffffffffffffffffff168173ffffffffffffffffffffffffffffffffffffffff1603612acd5760006040517f1e4fbdf7000000000000000000000000000000000000000000000000000000008152600401612ac49190613e75565b60405180910390fd5b612ad68161318b565b50565b6040518060a0016040528085151581526020018481526020018373ffffffffffffffffffffffffffffffffffffffff1681526020018281526020016000815250600560003373ffffffffffffffffffffffffffffffffffffffff1673ffffffffffffffffffffffffffffffffffffffff16815260200190815260200160002060008201518160000160006101000a81548160ff0219169083151502179055506020820151816001015560408201518160020160006101000a81548173ffffffffffffffffffffffffffffffffffffffff021916908373ffffffffffffffffffffffffffffffffffffffff16021790555060608201518160030155608082015181600401559050503373ffffffffffffffffffffffffffffffffffffffff167fd8e76f77a7d49cfb61cad9d5b13dbd242c96a8b16754cd33fe2c400a0fef9e068585604051612c28929190614acb565b60405180910390a250505050565b612c3e6132c4565b60006006600083815260200190815260200160002090508060070160009054906101000a900460ff16612ca6576040517f08c379a0000000000000000000000000000000000000000000000000000000008152600401612c9d90614b40565b60405180910390fd5b8060050154421015612ced576040517f08c379a0000000000000000000000000000000000000000000000000000000008152600401612ce490614bac565b60405180910390fd5b600081600b015414158015612d06575080600b01544210155b15612d5b5760008160070160006101000a81548160ff021916908315150217905550817fa923c88fcdba3ef914ef2cd253567d255d171ae587e21e1c1cb67c89985b1d8360405160405180910390a2506130f9565b600073ffffffffffffffffffffffffffffffffffffffff168160040160009054906101000a900473ffffffffffffffffffffffffffffffffffffffff1673ffffffffffffffffffffffffffffffffffffffff1603612ef757806003015481600901541015612dfe576040517f08c379a0000000000000000000000000000000000000000000000000000000008152600401612df590614c18565b60405180910390fd5b8060030154816009016000828254612e169190614c38565b9250508190555060008160020160009054906101000a900473ffffffffffffffffffffffffffffffffffffffff1673ffffffffffffffffffffffffffffffffffffffff168260030154604051612e6b90614707565b60006040518083038185875af1925050503d8060008114612ea8576040519150601f19603f3d011682016040523d82523d6000602084013e612ead565b606091505b5050905080612ef1576040517f08c379a0000000000000000000000000000000000000000000000000000000008152600401612ee890614cb8565b60405180910390fd5b5061302d565b806003015481600a01541015612f42576040517f08c379a0000000000000000000000000000000000000000000000000000000008152600401612f3990614d24565b60405180910390fd5b806003015481600a016000828254612f5a9190614c38565b925050819055508060040160009054906101000a900473ffffffffffffffffffffffffffffffffffffffff1673ffffffffffffffffffffffffffffffffffffffff1663a9059cbb8260020160009054906101000a900473ffffffffffffffffffffffffffffffffffffffff1683600301546040518363ffffffff1660e01b8152600401612fe8929190614788565b6020604051808303816000875af1158015613007573d6000803e3d6000fd5b505050506040513d601f19601f8201168201806040525081019061302b91906140c0565b505b80600601544261303d919061411c565b81600501819055508060020160009054906101000a900473ffffffffffffffffffffffffffffffffffffffff1673ffffffffffffffffffffffffffffffffffffffff168160010160009054906101000a900473ffffffffffffffffffffffffffffffffffffffff1673ffffffffffffffffffffffffffffffffffffffff16837fd83b8695535cf537e03c3a27451908aa08781afc5439a3193e1691a142d3728e84600301546040516130ef919061369b565b60405180910390a4505b61310161330a565b50565b61310c613313565b73ffffffffffffffffffffffffffffffffffffffff1661312a611995565b73ffffffffffffffffffffffffffffffffffffffff16146131895761314d613313565b6040517f118cdaa70000000000000000000000000000000000000000000000000000000081526004016131809190613e75565b60405180910390fd5b565b60008060009054906101000a900473ffffffffffffffffffffffffffffffffffffffff169050816000806101000a81548173ffffffffffffffffffffffffffffffffffffffff021916908373ffffffffffffffffffffffffffffffffffffffff1602179055508173ffffffffffffffffffffffffffffffffffffffff168173ffffffffffffffffffffffffffffffffffffffff167f8be0079c531659141344cd1fd0a4f28419497f9722a3daafe3b4186f6b6457e060405160405180910390a35050565b6000603c821161326d57607842613266919061411c565b90506132bf565b62015180821161328d576201518042613286919061411c565b90506132bf565b62093a8082116132ad57620a8c00426132a6919061411c565b90506132bf565b6228de80426132bc919061411c565b90505b919050565b600260015403613300576040517f3ee5aeb500000000000000000000000000000000000000000000000000000000815260040160405180910390fd5b6002600181905550565b60018081905550565b600033905090565b60405180610120016040528060008152602001600073ffffffffffffffffffffffffffffffffffffffff168152602001600073ffffffffffffffffffffffffffffffffffffffff16815260200160008152602001600073ffffffffffffffffffffffffffffffffffffffff1681526020016060815260200160001515815260200160008152602001600081525090565b6040518060a0016040528060001515815260200160008152602001600073ffffffffffffffffffffffffffffffffffffffff16815260200160008152602001600081525090565b60405180610180016040528060008152602001600073ffffffffffffffffffffffffffffffffffffffff168152602001600073ffffffffffffffffffffffffffffffffffffffff16815260200160008152602001600073ffffffffffffffffffffffffffffffffffffffff1681526020016000815260200160008152602001600015158152602001606081526020016000815260200160008152602001600081525090565b6000604051905090565b600080fd5b600080fd5b6000819050919050565b6134be816134ab565b81146134c957600080fd5b50565b6000813590506134db816134b5565b92915050565b600080604083850312156134f8576134f76134a1565b5b6000613506858286016134cc565b9250506020613517858286016134cc565b9150509250929050565b600073ffffffffffffffffffffffffffffffffffffffff82169050919050565b600061354c82613521565b9050919050565b61355c81613541565b811461356757600080fd5b50565b60008135905061357981613553565b92915050565b600060208284031215613595576135946134a1565b5b60006135a38482850161356a565b91505092915050565b600081519050919050565b600082825260208201905092915050565b6000819050602082019050919050565b6135e1816134ab565b82525050565b60006135f383836135d8565b60208301905092915050565b6000602082019050919050565b6000613617826135ac565b61362181856135b7565b935061362c836135c8565b8060005b8381101561365d57815161364488826135e7565b975061364f836135ff565b925050600181019050613630565b5085935050505092915050565b60006020820190508181036000830152613684818461360c565b905092915050565b613695816134ab565b82525050565b60006020820190506136b0600083018461368c565b92915050565b600080fd5b600080fd5b6000601f19601f8301169050919050565b7f4e487b7100000000000000000000000000000000000000000000000000000000600052604160045260246000fd5b613709826136c0565b810181811067ffffffffffffffff82111715613728576137276136d1565b5b80604052505050565b600061373b613497565b90506137478282613700565b919050565b600067ffffffffffffffff821115613767576137666136d1565b5b613770826136c0565b9050602081019050919050565b82818337600083830152505050565b600061379f61379a8461374c565b613731565b9050828152602081018484840111156137bb576137ba6136bb565b5b6137c684828561377d565b509392505050565b600082601f8301126137e3576137e26136b6565b5b81356137f384826020860161378c565b91505092915050565b600080600080600060a08688031215613818576138176134a1565b5b60006138268882890161356a565b9550506020613837888289016134cc565b94505060406138488882890161356a565b935050606086013567ffffffffffffffff811115613869576138686134a6565b5b613875888289016137ce565b9250506080613886888289016134cc565b9150509295509295909350565b6000602082840312156138a9576138a86134a1565b5b60006138b7848285016134cc565b91505092915050565b6138c981613541565b82525050565b600081519050919050565b600082825260208201905092915050565b60005b838110156139095780820151818401526020810190506138ee565b60008484015250505050565b6000613920826138cf565b61392a81856138da565b935061393a8185602086016138eb565b613943816136c0565b840191505092915050565b60008115159050919050565b6139638161394e565b82525050565b60006101208301600083015161398260008601826135d8565b50602083015161399560208601826138c0565b5060408301516139a860408601826138c0565b5060608301516139bb60608601826135d8565b5060808301516139ce60808601826138c0565b5060a083015184820360a08601526139e68282613915565b91505060c08301516139fb60c086018261395a565b5060e0830151613a0e60e08601826135d8565b50610100830151613a236101008601826135d8565b508091505092915050565b60006020820190508181036000830152613a488184613969565b905092915050565b613a5981613541565b82525050565b613a688161394e565b82525050565b600082825260208201905092915050565b6000613a8a826138cf565b613a948185613a6e565b9350613aa48185602086016138eb565b613aad816136c0565b840191505092915050565b600061018082019050613ace600083018f61368c565b613adb602083018e613a50565b613ae8604083018d613a50565b613af5606083018c61368c565b613b02608083018b613a50565b613b0f60a083018a61368c565b613b1c60c083018961368c565b613b2960e0830188613a5f565b818103610100830152613b3c8187613a7f565b9050613b4c61012083018661368c565b613b5a61014083018561368c565b613b6861016083018461368c565b9d9c50505050505050505050505050565b600060a082019050613b8e600083018861368c565b613b9b602083018761368c565b613ba8604083018661368c565b613bb5606083018561368c565b613bc2608083018461368c565b9695505050505050565b600061012082019050613be2600083018c61368c565b613bef602083018b613a50565b613bfc604083018a613a50565b613c09606083018961368c565b613c166080830188613a50565b81810360a0830152613c288187613a7f565b9050613c3760c0830186613a5f565b613c4460e083018561368c565b613c5261010083018461368c565b9a9950505050505050505050565b60a082016000820151613c76600085018261395a565b506020820151613c8960208501826135d8565b506040820151613c9c60408501826138c0565b506060820151613caf60608501826135d8565b506080820151613cc260808501826135d8565b50505050565b600060a082019050613cdd6000830184613c60565b92915050565b613cec8161394e565b8114613cf757600080fd5b50565b600081359050613d0981613ce3565b92915050565b60008060408385031215613d2657613d256134a1565b5b6000613d34858286016134cc565b9250506020613d4585828601613cfa565b9150509250929050565b600061018083016000830151613d6860008601826135d8565b506020830151613d7b60208601826138c0565b506040830151613d8e60408601826138c0565b506060830151613da160608601826135d8565b506080830151613db460808601826138c0565b5060a0830151613dc760a08601826135d8565b5060c0830151613dda60c08601826135d8565b5060e0830151613ded60e086018261395a565b50610100830151848203610100860152613e078282613915565b915050610120830151613e1e6101208601826135d8565b50610140830151613e336101408601826135d8565b50610160830151613e486101608601826135d8565b508091505092915050565b60006020820190508181036000830152613e6d8184613d4f565b905092915050565b6000602082019050613e8a6000830184613a50565b92915050565b600080600080600080600060e0888a031215613eaf57613eae6134a1565b5b6000613ebd8a828b0161356a565b9750506020613ece8a828b016134cc565b9650506040613edf8a828b0161356a565b9550506060613ef08a828b016134cc565b945050608088013567ffffffffffffffff811115613f1157613f106134a6565b5b613f1d8a828b016137ce565b93505060a0613f2e8a828b016134cc565b92505060c0613f3f8a828b016134cc565b91505092959891949750929550565b600060a082019050613f636000830188613a5f565b613f70602083018761368c565b613f7d6040830186613a50565b613f8a606083018561368c565b613f97608083018461368c565b9695505050505050565b60008060008060808587031215613fbb57613fba6134a1565b5b6000613fc987828801613cfa565b9450506020613fda878288016134cc565b9350506040613feb8782880161356a565b9250506060613ffc878288016134cc565b91505092959194509250565b7f4167656e74206e6f742061637469766500000000000000000000000000000000600082015250565b600061403e601083613a6e565b915061404982614008565b602082019050919050565b6000602082019050818103600083015261406d81614031565b9050919050565b60006060820190506140896000830186613a50565b6140966020830185613a50565b6140a3604083018461368c565b949350505050565b6000815190506140ba81613ce3565b92915050565b6000602082840312156140d6576140d56134a1565b5b60006140e4848285016140ab565b91505092915050565b7f4e487b7100000000000000000000000000000000000000000000000000000000600052601160045260246000fd5b6000614127826134ab565b9150614132836134ab565b925082820190508082111561414a576141496140ed565b5b92915050565b6000604082019050614165600083018561368c565b614172602083018461368c565b9392505050565b7f496e76616c696420726563697069656e74000000000000000000000000000000600082015250565b60006141af601183613a6e565b91506141ba82614179565b602082019050919050565b600060208201905081810360008301526141de816141a2565b9050919050565b7f416d6f756e74206d7573742062652067726561746572207468616e2030000000600082015250565b600061421b601d83613a6e565b9150614226826141e5565b602082019050919050565b6000602082019050818103600083015261424a8161420e565b9050919050565b600061425c826134ab565b91507fffffffffffffffffffffffffffffffffffffffffffffffffffffffffffffffff820361428e5761428d6140ed565b5b600182019050919050565b7f4e487b7100000000000000000000000000000000000000000000000000000000600052602260045260246000fd5b600060028204905060018216806142e057607f821691505b6020821081036142f3576142f2614299565b5b50919050565b60008190508160005260206000209050919050565b60006020601f8301049050919050565b600082821b905092915050565b60006008830261435b7fffffffffffffffffffffffffffffffffffffffffffffffffffffffffffffffff8261431e565b614365868361431e565b95508019841693508086168417925050509392505050565b6000819050919050565b60006143a261439d614398846134ab565b61437d565b6134ab565b9050919050565b6000819050919050565b6143bc83614387565b6143d06143c8826143a9565b84845461432b565b825550505050565b600090565b6143e56143d8565b6143f08184846143b3565b505050565b5b81811015614414576144096000826143dd565b6001810190506143f6565b5050565b601f8211156144595761442a816142f9565b6144338461430e565b81016020851015614442578190505b61445661444e8561430e565b8301826143f5565b50505b505050565b600082821c905092915050565b600061447c6000198460080261445e565b1980831691505092915050565b6000614495838361446b565b9150826002028217905092915050565b6144ae826138cf565b67ffffffffffffffff8111156144c7576144c66136d1565b5b6144d182546142c8565b6144dc828285614418565b600060209050601f83116001811461450f57600084156144fd578287015190505b6145078582614489565b86555061456f565b601f19841661451d866142f9565b60005b8281101561454557848901518255600182019150602085019450602081019050614520565b86831015614562578489015161455e601f89168261446b565b8355505b6001600288020188555050505b505050505050565b7f4e6f74206f776e65720000000000000000000000000000000000000000000000600082015250565b60006145ad600983613a6e565b91506145b882614577565b602082019050919050565b600060208201905081810360008301526145dc816145a0565b9050919050565b60006020820190506145f86000830184613a5f565b92915050565b7f456e64206461746520746f6f20736f6f6e20666f7220696e74657276616c0000600082015250565b6000614634601e83613a6e565b915061463f826145fe565b602082019050919050565b6000602082019050818103600083015261466381614627565b9050919050565b7f416c72656164792063616e63656c6c6564000000000000000000000000000000600082015250565b60006146a0601183613a6e565b91506146ab8261466a565b602082019050919050565b600060208201905081810360008301526146cf81614693565b9050919050565b600081905092915050565b50565b60006146f16000836146d6565b91506146fc826146e1565b600082019050919050565b6000614712826146e4565b9150819050919050565b7f526566756e64206661696c656400000000000000000000000000000000000000600082015250565b6000614752600d83613a6e565b915061475d8261471c565b602082019050919050565b6000602082019050818103600083015261478181614745565b9050919050565b600060408201905061479d6000830185613a50565b6147aa602083018461368c565b9392505050565b7f416c726561647920706169640000000000000000000000000000000000000000600082015250565b60006147e7600c83613a6e565b91506147f2826147b1565b602082019050919050565b60006020820190508181036000830152614816816147da565b9050919050565b7f496e766f69636520646f6573206e6f7420657869737400000000000000000000600082015250565b6000614853601683613a6e565b915061485e8261481d565b602082019050919050565b6000602082019050818103600083015261488281614846565b9050919050565b7f496e636f727265637420616d6f756e7400000000000000000000000000000000600082015250565b60006148bf601083613a6e565b91506148ca82614889565b602082019050919050565b600060208201905081810360008301526148ee816148b2565b9050919050565b7f4661696c656420746f2073656e64204d4e540000000000000000000000000000600082015250565b600061492b601283613a6e565b9150614936826148f5565b602082019050919050565b6000602082019050818103600083015261495a8161491e565b9050919050565b7f4e6f7420696e766f6963652063726561746f7200000000000000000000000000600082015250565b6000614997601383613a6e565b91506149a282614961565b602082019050919050565b600060208201905081810360008301526149c68161498a565b9050919050565b7f496e766f69636520616c72656164792070616964000000000000000000000000600082015250565b6000614a03601483613a6e565b9150614a0e826149cd565b602082019050919050565b60006020820190508181036000830152614a32816149f6565b9050919050565b7f496e766f69636520646f6573206e6f74206578697374206f7220616c7265616460008201527f792063616e63656c6c6564000000000000000000000000000000000000000000602082015250565b6000614a95602b83613a6e565b9150614aa082614a39565b604082019050919050565b60006020820190508181036000830152614ac481614a88565b9050919050565b6000604082019050614ae06000830185613a5f565b614aed602083018461368c565b9392505050565b7f5061796d656e74206e6f74206163746976650000000000000000000000000000600082015250565b6000614b2a601283613a6e565b9150614b3582614af4565b602082019050919050565b60006020820190508181036000830152614b5981614b1d565b9050919050565b7f4e6f742079657420647565000000000000000000000000000000000000000000600082015250565b6000614b96600b83613a6e565b9150614ba182614b60565b602082019050919050565b60006020820190508181036000830152614bc581614b89565b9050919050565b7f496e73756666696369656e74206167656e742062616c616e6365000000000000600082015250565b6000614c02601a83613a6e565b9150614c0d82614bcc565b602082019050919050565b60006020820190508181036000830152614c3181614bf5565b9050919050565b6000614c43826134ab565b9150614c4e836134ab565b9250828203905081811115614c6657614c656140ed565b5b92915050565b7f4661696c656420746f2073656e64000000000000000000000000000000000000600082015250565b6000614ca2600e83613a6e565b9150614cad82614c6c565b602082019050919050565b60006020820190508181036000830152614cd181614c95565b9050919050565b7f496e73756666696369656e7420746f6b656e2062616c616e6365000000000000600082015250565b6000614d0e601a83613a6e565b9150614d1982614cd8565b602082019050919050565b60006020820190508181036000830152614d3d81614d01565b905091905056fea26469706673582212200f12c41f4f57f4381c1e021f033c63016adf1ed09949df6fb16d6a46633bc0a464736f6c634300081b0033",
  "linkReferences": {},
  "deployedLinkReferences": {}
}